{
    "contractName": "BinarySystem",
    "abi": [
        {
            "inputs": [],
            "stateMutability": "nonpayable",
            "type": "constructor"
        },
        {
            "anonymous": false,
            "inputs": [
                {
                    "indexed": true,
                    "internalType": "address",
                    "name": "admin",
                    "type": "address"
                }
            ],
            "name": "AdminRemoved",
            "type": "event"
        },
        {
            "anonymous": false,
            "inputs": [
                {
                    "indexed": true,
                    "internalType": "address",
                    "name": "admin",
                    "type": "address"
                }
            ],
            "name": "NewAdmin",
            "type": "event"
        },
        {
            "anonymous": false,
            "inputs": [
                {
                    "indexed": true,
                    "internalType": "address",
                    "name": "previousOwner",
                    "type": "address"
                },
                {
                    "indexed": true,
                    "internalType": "address",
                    "name": "newOwner",
                    "type": "address"
                }
            ],
            "name": "OwnershipTransferred",
            "type": "event"
        },
        {
            "stateMutability": "payable",
            "type": "fallback"
        },
        {
            "inputs": [
                {
                    "internalType": "address",
                    "name": "_tokenTRC20",
                    "type": "address"
                }
            ],
            "name": "ChangeTokenPrincipal",
            "outputs": [
                {
                    "internalType": "bool",
                    "name": "",
                    "type": "bool"
                }
            ],
            "stateMutability": "nonpayable",
            "type": "function"
        },
        {
            "inputs": [],
            "name": "MIN_RETIRO",
            "outputs": [
                {
                    "internalType": "uint256",
                    "name": "",
                    "type": "uint256"
                }
            ],
            "stateMutability": "view",
            "type": "function"
        },
        {
            "inputs": [],
            "name": "MIN_RETIRO_interno",
            "outputs": [
                {
                    "internalType": "uint256",
                    "name": "",
                    "type": "uint256"
                }
            ],
            "stateMutability": "view",
            "type": "function"
        },
        {
            "inputs": [
                {
                    "internalType": "uint256",
                    "name": "",
                    "type": "uint256"
                }
            ],
            "name": "active",
            "outputs": [
                {
                    "internalType": "bool",
                    "name": "",
                    "type": "bool"
                }
            ],
            "stateMutability": "view",
            "type": "function"
        },
        {
            "inputs": [],
            "name": "activerFee",
            "outputs": [
                {
                    "internalType": "uint256",
                    "name": "",
                    "type": "uint256"
                }
            ],
            "stateMutability": "view",
            "type": "function"
        },
        {
            "inputs": [
                {
                    "internalType": "bool[]",
                    "name": "old",
                    "type": "bool[]"
                }
            ],
            "name": "actualizarArrayBool",
            "outputs": [
                {
                    "internalType": "bool[]",
                    "name": "",
                    "type": "bool[]"
                }
            ],
            "stateMutability": "pure",
            "type": "function"
        },
        {
            "inputs": [
                {
                    "internalType": "uint256[]",
                    "name": "old",
                    "type": "uint256[]"
                }
            ],
            "name": "actualizarArrayUint256",
            "outputs": [
                {
                    "internalType": "uint256[]",
                    "name": "",
                    "type": "uint256[]"
                }
            ],
            "stateMutability": "pure",
            "type": "function"
        },
        {
            "inputs": [
                {
                    "internalType": "address[]",
                    "name": "oldNetwork",
                    "type": "address[]"
                }
            ],
            "name": "actualizarNetwork",
            "outputs": [
                {
                    "internalType": "address[]",
                    "name": "",
                    "type": "address[]"
                }
            ],
            "stateMutability": "pure",
            "type": "function"
        },
        {
            "inputs": [
                {
                    "internalType": "address",
                    "name": "",
                    "type": "address"
                }
            ],
            "name": "addressToId",
            "outputs": [
                {
                    "internalType": "uint256",
                    "name": "",
                    "type": "uint256"
                }
            ],
            "stateMutability": "view",
            "type": "function"
        },
        {
            "inputs": [
                {
                    "internalType": "address",
                    "name": "",
                    "type": "address"
                }
            ],
            "name": "admin",
            "outputs": [
                {
                    "internalType": "bool",
                    "name": "",
                    "type": "bool"
                }
            ],
            "stateMutability": "view",
            "type": "function"
        },
        {
            "inputs": [
                {
                    "internalType": "address[]",
                    "name": "network",
                    "type": "address[]"
                }
            ],
            "name": "allnetwork",
            "outputs": [
                {
                    "internalType": "address[]",
                    "name": "",
                    "type": "address[]"
                }
            ],
            "stateMutability": "view",
            "type": "function"
        },
        {
            "inputs": [
                {
                    "internalType": "address",
                    "name": "_user",
                    "type": "address"
                },
                {
                    "internalType": "uint256",
                    "name": "_plan",
                    "type": "uint256"
                }
            ],
            "name": "asignarPlan",
            "outputs": [
                {
                    "internalType": "bool",
                    "name": "",
                    "type": "bool"
                }
            ],
            "stateMutability": "nonpayable",
            "type": "function"
        },
        {
            "inputs": [
                {
                    "internalType": "address",
                    "name": "_user",
                    "type": "address"
                },
                {
                    "internalType": "uint256",
                    "name": "_puntosLeft",
                    "type": "uint256"
                },
                {
                    "internalType": "uint256",
                    "name": "_puntosRigth",
                    "type": "uint256"
                }
            ],
            "name": "asignarPuntosBinarios",
            "outputs": [
                {
                    "internalType": "bool",
                    "name": "",
                    "type": "bool"
                }
            ],
            "stateMutability": "nonpayable",
            "type": "function"
        },
        {
            "inputs": [
                {
                    "internalType": "uint256",
                    "name": "_plan",
                    "type": "uint256"
                }
            ],
            "name": "buyPlan",
            "outputs": [],
            "stateMutability": "nonpayable",
            "type": "function"
        },
        {
            "inputs": [
                {
                    "internalType": "address",
                    "name": "yo",
                    "type": "address"
                },
                {
                    "internalType": "uint256",
                    "name": "_largo",
                    "type": "uint256"
                }
            ],
            "name": "column",
            "outputs": [
                {
                    "internalType": "address[]",
                    "name": "",
                    "type": "address[]"
                }
            ],
            "stateMutability": "view",
            "type": "function"
        },
        {
            "inputs": [
                {
                    "internalType": "bool",
                    "name": "_true_false",
                    "type": "bool"
                }
            ],
            "name": "controlWitdrawl",
            "outputs": [
                {
                    "internalType": "bool",
                    "name": "",
                    "type": "bool"
                }
            ],
            "stateMutability": "nonpayable",
            "type": "function"
        },
        {
            "inputs": [
                {
                    "internalType": "address",
                    "name": "any_user",
                    "type": "address"
                }
            ],
            "name": "corteBinario",
            "outputs": [
                {
                    "internalType": "uint256",
                    "name": "",
                    "type": "uint256"
                },
                {
                    "internalType": "uint256",
                    "name": "",
                    "type": "uint256"
                }
            ],
            "stateMutability": "view",
            "type": "function"
        },
        {
            "inputs": [
                {
                    "internalType": "address",
                    "name": "_user",
                    "type": "address"
                }
            ],
            "name": "depositos",
            "outputs": [
                {
                    "internalType": "uint256[]",
                    "name": "",
                    "type": "uint256[]"
                },
                {
                    "internalType": "uint256[]",
                    "name": "",
                    "type": "uint256[]"
                },
                {
                    "internalType": "bool[]",
                    "name": "",
                    "type": "bool[]"
                },
                {
                    "internalType": "bool[]",
                    "name": "",
                    "type": "bool[]"
                },
                {
                    "internalType": "uint256",
                    "name": "",
                    "type": "uint256"
                }
            ],
            "stateMutability": "view",
            "type": "function"
        },
        {
            "inputs": [],
            "name": "descuento",
            "outputs": [
                {
                    "internalType": "uint256",
                    "name": "",
                    "type": "uint256"
                }
            ],
            "stateMutability": "view",
            "type": "function"
        },
        {
            "inputs": [],
            "name": "dias",
            "outputs": [
                {
                    "internalType": "uint256",
                    "name": "",
                    "type": "uint256"
                }
            ],
            "stateMutability": "view",
            "type": "function"
        },
        {
            "inputs": [
                {
                    "internalType": "uint256",
                    "name": "",
                    "type": "uint256"
                }
            ],
            "name": "gananciasRango",
            "outputs": [
                {
                    "internalType": "uint256",
                    "name": "",
                    "type": "uint256"
                }
            ],
            "stateMutability": "view",
            "type": "function"
        },
        {
            "inputs": [
                {
                    "internalType": "address",
                    "name": "_user",
                    "type": "address"
                }
            ],
            "name": "handLeft",
            "outputs": [
                {
                    "internalType": "uint256",
                    "name": "extra",
                    "type": "uint256"
                },
                {
                    "internalType": "uint256",
                    "name": "reclamados",
                    "type": "uint256"
                },
                {
                    "internalType": "address",
                    "name": "referer",
                    "type": "address"
                }
            ],
            "stateMutability": "view",
            "type": "function"
        },
        {
            "inputs": [
                {
                    "internalType": "address",
                    "name": "_user",
                    "type": "address"
                }
            ],
            "name": "handRigth",
            "outputs": [
                {
                    "internalType": "uint256",
                    "name": "extra",
                    "type": "uint256"
                },
                {
                    "internalType": "uint256",
                    "name": "reclamados",
                    "type": "uint256"
                },
                {
                    "internalType": "address",
                    "name": "referer",
                    "type": "address"
                }
            ],
            "stateMutability": "view",
            "type": "function"
        },
        {
            "inputs": [
                {
                    "internalType": "uint256",
                    "name": "",
                    "type": "uint256"
                }
            ],
            "name": "idToAddress",
            "outputs": [
                {
                    "internalType": "address",
                    "name": "",
                    "type": "address"
                }
            ],
            "stateMutability": "view",
            "type": "function"
        },
        {
            "inputs": [
                {
                    "internalType": "address[]",
                    "name": "network",
                    "type": "address[]"
                }
            ],
            "name": "insertionLeft",
            "outputs": [
                {
                    "internalType": "address",
                    "name": "wallett",
                    "type": "address"
                }
            ],
            "stateMutability": "view",
            "type": "function"
        },
        {
            "inputs": [
                {
                    "internalType": "address[]",
                    "name": "network",
                    "type": "address[]"
                }
            ],
            "name": "insertionRigth",
            "outputs": [
                {
                    "internalType": "address",
                    "name": "wallett",
                    "type": "address"
                }
            ],
            "stateMutability": "view",
            "type": "function"
        },
        {
            "inputs": [],
            "name": "inversiones",
            "outputs": [
                {
                    "internalType": "uint256",
                    "name": "",
                    "type": "uint256"
                }
            ],
            "stateMutability": "view",
            "type": "function"
        },
        {
            "inputs": [
                {
                    "internalType": "address",
                    "name": "",
                    "type": "address"
                }
            ],
            "name": "investors",
            "outputs": [
                {
                    "internalType": "bool",
                    "name": "registered",
                    "type": "bool"
                },
                {
                    "internalType": "bool",
                    "name": "recompensa",
                    "type": "bool"
                },
                {
                    "internalType": "uint256",
                    "name": "balanceRef",
                    "type": "uint256"
                },
                {
                    "internalType": "uint256",
                    "name": "balanceSal",
                    "type": "uint256"
                },
                {
                    "internalType": "uint256",
                    "name": "totalRef",
                    "type": "uint256"
                },
                {
                    "internalType": "uint256",
                    "name": "invested",
                    "type": "uint256"
                },
                {
                    "internalType": "uint256",
                    "name": "paidAt",
                    "type": "uint256"
                },
                {
                    "internalType": "uint256",
                    "name": "amount",
                    "type": "uint256"
                },
                {
                    "internalType": "uint256",
                    "name": "withdrawn",
                    "type": "uint256"
                },
                {
                    "internalType": "uint256",
                    "name": "directos",
                    "type": "uint256"
                },
                {
                    "components": [
                        {
                            "internalType": "uint256",
                            "name": "lReclamados",
                            "type": "uint256"
                        },
                        {
                            "internalType": "uint256",
                            "name": "lExtra",
                            "type": "uint256"
                        },
                        {
                            "internalType": "address",
                            "name": "lReferer",
                            "type": "address"
                        },
                        {
                            "internalType": "uint256",
                            "name": "rReclamados",
                            "type": "uint256"
                        },
                        {
                            "internalType": "uint256",
                            "name": "rExtra",
                            "type": "uint256"
                        },
                        {
                            "internalType": "address",
                            "name": "rReferer",
                            "type": "address"
                        }
                    ],
                    "internalType": "struct BinarySystem.Hand",
                    "name": "hands",
                    "type": "tuple"
                }
            ],
            "stateMutability": "view",
            "type": "function"
        },
        {
            "inputs": [],
            "name": "lastUserId",
            "outputs": [
                {
                    "internalType": "uint256",
                    "name": "",
                    "type": "uint256"
                }
            ],
            "stateMutability": "view",
            "type": "function"
        },
        {
            "inputs": [
                {
                    "internalType": "address payable",
                    "name": "_newadmin",
                    "type": "address"
                }
            ],
            "name": "makeNewAdmin",
            "outputs": [],
            "stateMutability": "nonpayable",
            "type": "function"
        },
        {
            "inputs": [
                {
                    "internalType": "address payable",
                    "name": "_oldadmin",
                    "type": "address"
                }
            ],
            "name": "makeRemoveAdmin",
            "outputs": [],
            "stateMutability": "nonpayable",
            "type": "function"
        },
        {
            "inputs": [],
            "name": "newRecompensa",
            "outputs": [],
            "stateMutability": "nonpayable",
            "type": "function"
        },
        {
            "inputs": [],
            "name": "onOffWitdrawl",
            "outputs": [
                {
                    "internalType": "bool",
                    "name": "",
                    "type": "bool"
                }
            ],
            "stateMutability": "view",
            "type": "function"
        },
        {
            "inputs": [],
            "name": "owner",
            "outputs": [
                {
                    "internalType": "address payable",
                    "name": "",
                    "type": "address"
                }
            ],
            "stateMutability": "view",
            "type": "function"
        },
        {
            "inputs": [
                {
                    "internalType": "address",
                    "name": "",
                    "type": "address"
                }
            ],
            "name": "padre",
            "outputs": [
                {
                    "internalType": "address",
                    "name": "",
                    "type": "address"
                }
            ],
            "stateMutability": "view",
            "type": "function"
        },
        {
            "inputs": [],
            "name": "personas",
            "outputs": [
                {
                    "internalType": "uint256",
                    "name": "",
                    "type": "uint256"
                }
            ],
            "stateMutability": "view",
            "type": "function"
        },
        {
            "inputs": [
                {
                    "internalType": "address",
                    "name": "any_user",
                    "type": "address"
                }
            ],
            "name": "personasBinary",
            "outputs": [
                {
                    "internalType": "uint256",
                    "name": "left",
                    "type": "uint256"
                },
                {
                    "internalType": "uint256",
                    "name": "pLeft",
                    "type": "uint256"
                },
                {
                    "internalType": "uint256",
                    "name": "rigth",
                    "type": "uint256"
                },
                {
                    "internalType": "uint256",
                    "name": "pRigth",
                    "type": "uint256"
                }
            ],
            "stateMutability": "view",
            "type": "function"
        },
        {
            "inputs": [
                {
                    "internalType": "uint256",
                    "name": "",
                    "type": "uint256"
                }
            ],
            "name": "plans",
            "outputs": [
                {
                    "internalType": "uint256",
                    "name": "",
                    "type": "uint256"
                }
            ],
            "stateMutability": "view",
            "type": "function"
        },
        {
            "inputs": [],
            "name": "plansLength",
            "outputs": [
                {
                    "internalType": "uint8",
                    "name": "",
                    "type": "uint8"
                }
            ],
            "stateMutability": "view",
            "type": "function"
        },
        {
            "inputs": [],
            "name": "porcent",
            "outputs": [
                {
                    "internalType": "uint256",
                    "name": "",
                    "type": "uint256"
                }
            ],
            "stateMutability": "view",
            "type": "function"
        },
        {
            "inputs": [],
            "name": "porcentPuntosBinario",
            "outputs": [
                {
                    "internalType": "uint256",
                    "name": "",
                    "type": "uint256"
                }
            ],
            "stateMutability": "view",
            "type": "function"
        },
        {
            "inputs": [
                {
                    "internalType": "uint256",
                    "name": "",
                    "type": "uint256"
                }
            ],
            "name": "porcientos",
            "outputs": [
                {
                    "internalType": "uint256",
                    "name": "",
                    "type": "uint256"
                }
            ],
            "stateMutability": "view",
            "type": "function"
        },
        {
            "inputs": [
                {
                    "internalType": "uint256",
                    "name": "",
                    "type": "uint256"
                }
            ],
            "name": "porcientosSalida",
            "outputs": [
                {
                    "internalType": "uint256",
                    "name": "",
                    "type": "uint256"
                }
            ],
            "stateMutability": "view",
            "type": "function"
        },
        {
            "inputs": [],
            "name": "precioRegistro",
            "outputs": [
                {
                    "internalType": "uint256",
                    "name": "",
                    "type": "uint256"
                }
            ],
            "stateMutability": "view",
            "type": "function"
        },
        {
            "inputs": [
                {
                    "internalType": "uint256",
                    "name": "",
                    "type": "uint256"
                }
            ],
            "name": "primervez",
            "outputs": [
                {
                    "internalType": "uint256",
                    "name": "",
                    "type": "uint256"
                }
            ],
            "stateMutability": "view",
            "type": "function"
        },
        {
            "inputs": [
                {
                    "internalType": "uint256",
                    "name": "",
                    "type": "uint256"
                }
            ],
            "name": "puntosRango",
            "outputs": [
                {
                    "internalType": "uint256",
                    "name": "",
                    "type": "uint256"
                }
            ],
            "stateMutability": "view",
            "type": "function"
        },
        {
            "inputs": [
                {
                    "internalType": "address",
                    "name": "",
                    "type": "address"
                },
                {
                    "internalType": "uint256",
                    "name": "",
                    "type": "uint256"
                }
            ],
            "name": "rangoReclamado",
            "outputs": [
                {
                    "internalType": "bool",
                    "name": "",
                    "type": "bool"
                }
            ],
            "stateMutability": "view",
            "type": "function"
        },
        {
            "inputs": [],
            "name": "redimTRX",
            "outputs": [
                {
                    "internalType": "uint256",
                    "name": "",
                    "type": "uint256"
                }
            ],
            "stateMutability": "nonpayable",
            "type": "function"
        },
        {
            "inputs": [
                {
                    "internalType": "uint256",
                    "name": "_value",
                    "type": "uint256"
                }
            ],
            "name": "redimTokenPrincipal02",
            "outputs": [
                {
                    "internalType": "uint256",
                    "name": "",
                    "type": "uint256"
                }
            ],
            "stateMutability": "nonpayable",
            "type": "function"
        },
        {
            "inputs": [
                {
                    "internalType": "address",
                    "name": "_sponsor",
                    "type": "address"
                },
                {
                    "internalType": "uint8",
                    "name": "_hand",
                    "type": "uint8"
                }
            ],
            "name": "registro",
            "outputs": [],
            "stateMutability": "nonpayable",
            "type": "function"
        },
        {
            "inputs": [
                {
                    "internalType": "uint256",
                    "name": "_numerodeinverionessinganancia",
                    "type": "uint256"
                }
            ],
            "name": "setInversiones",
            "outputs": [
                {
                    "internalType": "uint256",
                    "name": "",
                    "type": "uint256"
                }
            ],
            "stateMutability": "nonpayable",
            "type": "function"
        },
        {
            "inputs": [
                {
                    "internalType": "uint256",
                    "name": "_min",
                    "type": "uint256"
                }
            ],
            "name": "setMIN_RETIRO",
            "outputs": [
                {
                    "internalType": "uint256",
                    "name": "",
                    "type": "uint256"
                }
            ],
            "stateMutability": "nonpayable",
            "type": "function"
        },
        {
            "inputs": [
                {
                    "internalType": "uint256[]",
                    "name": "_values",
                    "type": "uint256[]"
                },
                {
                    "internalType": "bool[]",
                    "name": "_true",
                    "type": "bool[]"
                }
            ],
            "name": "setPlansAll",
            "outputs": [
                {
                    "internalType": "bool",
                    "name": "",
                    "type": "bool"
                }
            ],
            "stateMutability": "nonpayable",
            "type": "function"
        },
        {
            "inputs": [
                {
                    "internalType": "uint256",
                    "name": "_nivel",
                    "type": "uint256"
                },
                {
                    "internalType": "uint256",
                    "name": "_value",
                    "type": "uint256"
                }
            ],
            "name": "setPorcientos",
            "outputs": [
                {
                    "internalType": "uint256[]",
                    "name": "",
                    "type": "uint256[]"
                }
            ],
            "stateMutability": "nonpayable",
            "type": "function"
        },
        {
            "inputs": [
                {
                    "internalType": "uint256",
                    "name": "_nivel",
                    "type": "uint256"
                },
                {
                    "internalType": "uint256",
                    "name": "_value",
                    "type": "uint256"
                }
            ],
            "name": "setPorcientosSalida",
            "outputs": [
                {
                    "internalType": "uint256[]",
                    "name": "",
                    "type": "uint256[]"
                }
            ],
            "stateMutability": "nonpayable",
            "type": "function"
        },
        {
            "inputs": [
                {
                    "internalType": "uint256",
                    "name": "_precio",
                    "type": "uint256"
                }
            ],
            "name": "setPrecioRegistro",
            "outputs": [
                {
                    "internalType": "bool",
                    "name": "",
                    "type": "bool"
                }
            ],
            "stateMutability": "nonpayable",
            "type": "function"
        },
        {
            "inputs": [
                {
                    "internalType": "uint256",
                    "name": "_nivel",
                    "type": "uint256"
                },
                {
                    "internalType": "uint256",
                    "name": "_value",
                    "type": "uint256"
                }
            ],
            "name": "setPrimeravezPorcientos",
            "outputs": [
                {
                    "internalType": "uint256[]",
                    "name": "",
                    "type": "uint256[]"
                }
            ],
            "stateMutability": "nonpayable",
            "type": "function"
        },
        {
            "inputs": [
                {
                    "internalType": "uint256",
                    "name": "_porcentaje",
                    "type": "uint256"
                }
            ],
            "name": "setPuntosPorcentajeBinario",
            "outputs": [
                {
                    "internalType": "uint256",
                    "name": "",
                    "type": "uint256"
                }
            ],
            "stateMutability": "nonpayable",
            "type": "function"
        },
        {
            "inputs": [
                {
                    "internalType": "uint256",
                    "name": "_porcentaje",
                    "type": "uint256"
                }
            ],
            "name": "setRetorno",
            "outputs": [
                {
                    "internalType": "uint256",
                    "name": "",
                    "type": "uint256"
                }
            ],
            "stateMutability": "nonpayable",
            "type": "function"
        },
        {
            "inputs": [
                {
                    "internalType": "uint256",
                    "name": "_dias",
                    "type": "uint256"
                }
            ],
            "name": "setTiempo",
            "outputs": [
                {
                    "internalType": "uint256",
                    "name": "",
                    "type": "uint256"
                }
            ],
            "stateMutability": "nonpayable",
            "type": "function"
        },
        {
            "inputs": [
                {
                    "internalType": "uint256",
                    "name": "_unidades",
                    "type": "uint256"
                }
            ],
            "name": "setTiempoUnidades",
            "outputs": [
                {
                    "internalType": "uint256",
                    "name": "",
                    "type": "uint256"
                }
            ],
            "stateMutability": "nonpayable",
            "type": "function"
        },
        {
            "inputs": [
                {
                    "internalType": "address",
                    "name": "_wallet",
                    "type": "address"
                },
                {
                    "internalType": "uint256",
                    "name": "_fee",
                    "type": "uint256"
                },
                {
                    "internalType": "uint256",
                    "name": "_activerFee",
                    "type": "uint256"
                }
            ],
            "name": "setWalletFee",
            "outputs": [
                {
                    "internalType": "bool",
                    "name": "",
                    "type": "bool"
                }
            ],
            "stateMutability": "nonpayable",
            "type": "function"
        },
        {
            "inputs": [
                {
                    "internalType": "address[]",
                    "name": "_wallets",
                    "type": "address[]"
                },
                {
                    "internalType": "bool[]",
                    "name": "_transfers",
                    "type": "bool[]"
                },
                {
                    "internalType": "uint256[]",
                    "name": "_valores",
                    "type": "uint256[]"
                }
            ],
            "name": "setWalletstransfers",
            "outputs": [
                {
                    "internalType": "bool",
                    "name": "",
                    "type": "bool"
                }
            ],
            "stateMutability": "nonpayable",
            "type": "function"
        },
        {
            "inputs": [],
            "name": "setstate",
            "outputs": [
                {
                    "internalType": "uint256",
                    "name": "Investors",
                    "type": "uint256"
                },
                {
                    "internalType": "uint256",
                    "name": "Invested",
                    "type": "uint256"
                },
                {
                    "internalType": "uint256",
                    "name": "RefRewards",
                    "type": "uint256"
                }
            ],
            "stateMutability": "view",
            "type": "function"
        },
        {
            "inputs": [],
            "name": "tiempo",
            "outputs": [
                {
                    "internalType": "uint256",
                    "name": "",
                    "type": "uint256"
                }
            ],
            "stateMutability": "view",
            "type": "function"
        },
        {
            "inputs": [],
            "name": "tokenPricipal",
            "outputs": [
                {
                    "internalType": "address",
                    "name": "",
                    "type": "address"
                }
            ],
            "stateMutability": "view",
            "type": "function"
        },
        {
            "inputs": [],
            "name": "totalInvested",
            "outputs": [
                {
                    "internalType": "uint256",
                    "name": "",
                    "type": "uint256"
                }
            ],
            "stateMutability": "view",
            "type": "function"
        },
        {
            "inputs": [],
            "name": "totalInvestors",
            "outputs": [
                {
                    "internalType": "uint256",
                    "name": "",
                    "type": "uint256"
                }
            ],
            "stateMutability": "view",
            "type": "function"
        },
        {
            "inputs": [],
            "name": "totalRefRewards",
            "outputs": [
                {
                    "internalType": "uint256",
                    "name": "",
                    "type": "uint256"
                }
            ],
            "stateMutability": "view",
            "type": "function"
        },
        {
            "inputs": [],
            "name": "totalRefWitdrawl",
            "outputs": [
                {
                    "internalType": "uint256",
                    "name": "",
                    "type": "uint256"
                }
            ],
            "stateMutability": "view",
            "type": "function"
        },
        {
            "inputs": [
                {
                    "internalType": "uint256",
                    "name": "",
                    "type": "uint256"
                }
            ],
            "name": "transfer",
            "outputs": [
                {
                    "internalType": "bool",
                    "name": "",
                    "type": "bool"
                }
            ],
            "stateMutability": "view",
            "type": "function"
        },
        {
            "inputs": [
                {
                    "internalType": "address payable",
                    "name": "newOwner",
                    "type": "address"
                }
            ],
            "name": "transferOwnership",
            "outputs": [],
            "stateMutability": "nonpayable",
            "type": "function"
        },
        {
            "inputs": [],
            "name": "unidades",
            "outputs": [
                {
                    "internalType": "uint256",
                    "name": "",
                    "type": "uint256"
                }
            ],
            "stateMutability": "view",
            "type": "function"
        },
        {
            "inputs": [
                {
                    "internalType": "uint256",
                    "name": "",
                    "type": "uint256"
                }
            ],
            "name": "valor",
            "outputs": [
                {
                    "internalType": "uint256",
                    "name": "",
                    "type": "uint256"
                }
            ],
            "stateMutability": "view",
            "type": "function"
        },
        {
            "inputs": [],
            "name": "valorFee",
            "outputs": [
                {
                    "internalType": "uint256",
                    "name": "",
                    "type": "uint256"
                }
            ],
            "stateMutability": "view",
            "type": "function"
        },
        {
            "inputs": [
                {
                    "internalType": "uint256",
                    "name": "",
                    "type": "uint256"
                }
            ],
            "name": "wallet",
            "outputs": [
                {
                    "internalType": "address",
                    "name": "",
                    "type": "address"
                }
            ],
            "stateMutability": "view",
            "type": "function"
        },
        {
            "inputs": [],
            "name": "walletFee",
            "outputs": [
                {
                    "internalType": "address",
                    "name": "",
                    "type": "address"
                }
            ],
            "stateMutability": "view",
            "type": "function"
        },
        {
            "inputs": [],
            "name": "withdraw",
            "outputs": [],
            "stateMutability": "nonpayable",
            "type": "function"
        },
        {
            "inputs": [
                {
                    "internalType": "address",
                    "name": "any_user",
                    "type": "address"
                }
            ],
            "name": "withdrawable",
            "outputs": [
                {
                    "internalType": "uint256",
                    "name": "",
                    "type": "uint256"
                }
            ],
            "stateMutability": "view",
            "type": "function"
        },
        {
            "inputs": [
                {
                    "internalType": "address",
                    "name": "any_user",
                    "type": "address"
                }
            ],
            "name": "withdrawableBinary",
            "outputs": [
                {
                    "internalType": "uint256",
                    "name": "left",
                    "type": "uint256"
                },
                {
                    "internalType": "uint256",
                    "name": "rigth",
                    "type": "uint256"
                },
                {
                    "internalType": "uint256",
                    "name": "amount",
                    "type": "uint256"
                }
            ],
            "stateMutability": "view",
            "type": "function"
        },
        {
            "inputs": [
                {
                    "internalType": "address",
                    "name": "any_user",
                    "type": "address"
                }
            ],
            "name": "withdrawableRange",
            "outputs": [
                {
                    "internalType": "uint256",
                    "name": "amount",
                    "type": "uint256"
                }
            ],
            "stateMutability": "view",
            "type": "function"
        },
        {
            "stateMutability": "payable",
            "type": "receive"
        }
    ],
    "bytecode": "600280547355d398326f99059ff775485246999027b31979556001600160a01b03199182168117909255600380548216831790556801a055690d9db80000600455600680549091169091179055600160075561012060405260466080908152600060a081905260c081905260e08190526101005262000083906008906005620005d0565b506040805160a081018252600080825260208201819052918101829052606081018290526080810191909152620000bf906009906005620005d0565b506040805160a081018252600a808252600460208301526003928201929092526002606082015260016080820152620000fb91906005620005d0565b506040805161012081018252600081526802b5e3af16b1880000602082015268056bc75e2d6310000091810191909152680d8d726b7177a800006060820152681b1ae4d6e2ef5000006080820152683635c9adc5dea0000060a082015268878678326eac90000060c082015269010f0cf064dd5920000060e082015269021e19e0c9bab24000006101008201526200019890600b90600962000625565b50604080516101208101825260008152600160208201819052918101829052606081018290526080810182905260a0810182905260c0810182905260e08101829052610100810191909152620001f390600c9060096200066e565b506040805160e0810182526802b5e3af16b18800008152680ad78ebc5ac62000006020820152681b1ae4d6e2ef5000009181019190915268410d586a20a4c00000606082015269014542ba12a337c00000608082015269032d26d12e980b60000060a0820152690a968163f0a57b40000060c08201526200027990600d90600762000625565b506040805160e08101825269010f0cf064dd59200000815269043c33c19375648000006020820152690a968163f0a57b40000091810191909152691969368974c05b0000006060820152697f0e10af47c1c700000060808201526a013da329b633647180000060a08201526a0422ca8b0a00a42500000060c08201526200030590600e90600762000715565b50600f805460ff1916600190811790915560c86010556201518060115560fa6012556005601355605f601455600260158190556016829055601f55602080546001600160a01b031916730556a260b9ef10756bc2df281168697f353d1e8e178155600060215560036022556023919091556040805160e081018252734490566647735e8cbce0ce96efc8fb91c164859b815273e201933ca7b5af514a1b0119bbc1072a066c06df9281019290925273e2283cb00b9c32727941728bede372005c6ca3119082015273763eb0a2a2925c45927dbf6432f191fc66fbcfa8606082015273deff65e4bcf19a52b0db33e57b7ce262fd5db53f6080820152738a6ac002b64bbba26e746d97d4050e71240b30b060a0820152730bddc342f66f46968a15bd1c16dbefa5b63a158860c0820152620004449060249060076200075e565b506040805160e081018252600180825260208201819052918101829052606081018290526080810182905260a0810182905260c08101919091526200048e9060259060076200066e565b506040805160e08101825260068152600560208201526002918101829052606081018290526080810182905260a0810191909152602f60c0820152620004d9906026906007620005d0565b50348015620004e757600080fd5b50600080546001600160a01b031916339081178255808252600160208181526040808520805460ff191690931790925583546001600160a01b03168452601a8152818420805461ffff1916610101178155825160e081018452858152808301869052808401869052606081018690526080810186905260a0810186905260c08101869052938552601e9091529220620005829160076200066e565b50507f6de76108811faf2f94afbe5ac6c98e8393206cd093932de1fbfd61bbeec43a0280546001600160a01b031916339081179091556000908152601d6020526040902060019055620007cd565b82805482825590600052602060002090810192821562000613579160200282015b8281111562000613578251829060ff16905591602001919060010190620005f1565b5062000621929150620007b6565b5090565b82805482825590600052602060002090810192821562000613579160200282015b828111156200061357825182906001600160501b031690559160200191906001019062000646565b82805482825590600052602060002090601f01602090048101928215620006135791602002820160005b83821115620006d757835183826101000a81548160ff021916908315150217905550926020019260010160208160000104928301926001030262000698565b8015620007065782816101000a81549060ff0219169055600101602081600001049283019260010302620006d7565b505062000621929150620007b6565b82805482825590600052602060002090810192821562000613579160200282015b828111156200061357825182906001600160581b031690559160200191906001019062000736565b82805482825590600052602060002090810192821562000613579160200282015b828111156200061357825182546001600160a01b0319166001600160a01b039091161782556020909201916001909101906200077f565b5b80821115620006215760008155600101620007b7565b614fb880620007dd6000396000f3fe6080604052600436106104525760003560e01c80636bf199ff1161023d578063a95b4df911610138578063bfe0e020116100bb578063cc759ba211610082578063cc759ba214610fc6578063cdb8bb2a14610fdc578063ce513b6f14610ff1578063e7348e8c14611011578063f2fde38b1461102b578063f90b3f5a1461104b57005b8063bfe0e02014610f2d578063c14b836114610f43578063c2307ee614610f63578063c70371a914610f79578063cb0e0d7d14610f9957005b8063b1620616116100ff578063b162061614610e81578063b17b6e4414610ea1578063b35f0a8f14610ec1578063b85ea33514610ef7578063bd9bee1914610f1757005b8063a95b4df914610deb578063aaa749c514610e0b578063ab6db19914610e2b578063ac557f6614610e41578063b139042614610e6157005b80638033d581116101c057806398c07d0a1161018757806398c07d0a14610d5f5780639b8ff50314610d7f578063a278133514610d95578063a77d211914610db5578063a80b223b14610dcb57005b80638033d58114610cb75780638103289214610cd757806385338e2014610cf75780638da5cb5b14610d2957806396600ed214610d4957005b80637367b080116102045780637367b08014610c1e5780637b0412ed14610c3e5780637db9e9c614610c545780637faee04714610c6a5780637fcc1e3614610c8a57005b80636bf199ff14610a3d5780636c52927914610a5d5780636f7bc9be14610a7357806370a0966b14610bde578063725fc27014610bfe57005b80634b9b82031161034d5780635d216c60116102d05780636589fa8a116102975780636589fa8a1461096b578063664e62b91461098b57806369ed1e0a146109bc57806369f4a84b146109dc5780636a88e297146109f157005b80635d216c60146108bb57806362550916146108db57806363a846f8146108fb57806364417c891461092b578063656e8c371461094b57005b806350da983f1161031457806350da983f146107d55780635216aeec146107f5578063548225221461080b57806355465fa51461082b5780635a090c2d1461089b57005b80634b9b8203146107345780634bdcd4291461074a5780634de1be62146107605780634e929b0f1461078057806350188c08146107c057005b806326837aa8116103d55780632acc82101161039c5780632acc8210146106b3578063348d4487146106d35780633ccfd60b146106e957806342ccc234146106fe5780634728f7181461071e57005b806326837aa8146105ed5780632748d29b1461060f57806328cca7191461062f57806329b8caff1461064f5780632a2d0c471461066557005b80631ce7f99b116104195780631ce7f99b146105405780631e403c351461056057806321309f211461058d57806322c0a574146105ad57806323f376bc146105cd57005b80631140e85b1461045b57806312514bba1461048e57806312730daf146104be57806315e8392b146104de578063177371641461050b57005b3661045957005b005b34801561046757600080fd5b5061047b6104763660046148f1565b61106b565b6040519081526020015b60405180910390f35b34801561049a57600080fd5b506104ae6104a93660046148f1565b611183565b6040519015158152602001610485565b3480156104ca57600080fd5b506104ae6104d9366004614922565b6111b7565b3480156104ea57600080fd5b506104fe6104f9366004614957565b611205565b6040516104859190614983565b34801561051757600080fd5b5061052b6105263660046149d0565b61129c565b60408051928352602083019190915201610485565b34801561054c57600080fd5b506104fe61055b366004614acc565b6112bb565b34801561056c57600080fd5b5061058061057b366004614b01565b61137a565b6040516104859190614b5e565b34801561059957600080fd5b5061047b6105a83660046148f1565b611418565b3480156105b957600080fd5b5061047b6105c83660046148f1565b611439565b3480156105d957600080fd5b506104ae6105e8366004614c3e565b611449565b3480156105f957600080fd5b50600b5460405160ff9091168152602001610485565b34801561061b57600080fd5b5061047b61062a3660046148f1565b61149b565b34801561063b57600080fd5b5061047b61064a3660046148f1565b6114c5565b34801561065b57600080fd5b5061047b60165481565b34801561067157600080fd5b5061069b6106803660046148f1565b601c602052600090815260409020546001600160a01b031681565b6040516001600160a01b039091168152602001610485565b3480156106bf57600080fd5b506104ae6106ce366004614957565b6114d5565b3480156106df57600080fd5b5061047b601f5481565b3480156106f557600080fd5b50610459611518565b34801561070a57600080fd5b5061069b610719366004614acc565b61193d565b34801561072a57600080fd5b5061047b60125481565b34801561074057600080fd5b5061047b60115481565b34801561075657600080fd5b5061047b60055481565b34801561076c57600080fd5b5061047b61077b3660046148f1565b611b82565b34801561078c57600080fd5b506107a061079b3660046149d0565b611bac565b604080519485526020850193909352918301526060820152608001610485565b3480156107cc57600080fd5b5061047b6122fa565b3480156107e157600080fd5b506104ae6107f03660046149d0565b612318565b34801561080157600080fd5b5061047b60175481565b34801561081757600080fd5b50610580610826366004614b01565b61236c565b34801561083757600080fd5b506108776108463660046149d0565b6001600160a01b039081166000908152601a60205260409020600b810154600a820154600c90920154909391921690565b6040805193845260208401929092526001600160a01b031690820152606001610485565b3480156108a757600080fd5b506104ae6108b6366004614922565b612408565b3480156108c757600080fd5b506105806108d6366004614b01565b6124d9565b3480156108e757600080fd5b5061047b6108f63660046148f1565b612575565b34801561090757600080fd5b506104ae6109163660046149d0565b60016020526000908152604090205460ff1681565b34801561093757600080fd5b5061047b6109463660046148f1565b612585565b34801561095757600080fd5b506104ae610966366004614ca2565b6125af565b34801561097757600080fd5b5061047b6109863660046148f1565b612616565b34801561099757600080fd5b506109ab6109a63660046149d0565b61263b565b604051610485959493929190614d5c565b3480156109c857600080fd5b506104596109d73660046149d0565b61282b565b3480156109e857600080fd5b506104596128b9565b3480156109fd57600080fd5b50610877610a0c3660046149d0565b6001600160a01b039081166000908152601a60205260409020600e810154600d820154600f90920154909391921690565b348015610a4957600080fd5b5061069b610a58366004614acc565b612a58565b348015610a6957600080fd5b5061047b60045481565b348015610a7f57600080fd5b50610b3e610a8e3660046149d0565b601a602090815260009182526040918290208054600182015460028301546003840154600485015460058601546006870154600788015460088901548b5160c081018d52600a8b01548152600b8b01549b81019b909b52600c8a01546001600160a01b039081169c8c019c909c52600d8a015460608c0152600e8a015460808c0152600f90990154909a1660a08a015260ff8088169a61010090980416989597949693959294919390929091908b565b604080519b15158c529915156020808d01919091528b8b01999099526060808c01989098526080808c019790975260a0808c019690965260c08b019490945260e08a0192909252610100890152610120880152805161014088015293840151610160870152938301516001600160a01b03908116610180870152918301516101a08601528201516101c0850152910151166101e082015261020001610485565b348015610bea57600080fd5b50610459610bf93660046149d0565b612c7a565b348015610c0a57600080fd5b5061047b610c193660046148f1565b612d02565b348015610c2a57600080fd5b50610580610c39366004614dbc565b612d12565b348015610c4a57600080fd5b5061047b60145481565b348015610c6057600080fd5b5061047b60215481565b348015610c7657600080fd5b506104fe610c85366004614acc565b612dbd565b348015610c9657600080fd5b50610caa610ca5366004614df1565b612f7c565b6040516104859190614e26565b348015610cc357600080fd5b506104ae610cd23660046148f1565b61302c565b348015610ce357600080fd5b5061047b610cf23660046148f1565b61303c565b348015610d0357600080fd5b506016546017546018545b60408051938452602084019290925290820152606001610485565b348015610d3557600080fd5b5060005461069b906001600160a01b031681565b348015610d5557600080fd5b5061047b60225481565b348015610d6b57600080fd5b5061047b610d7a3660046149d0565b61304c565b348015610d8b57600080fd5b5061047b60195481565b348015610da157600080fd5b5061069b610db03660046148f1565b61320a565b348015610dc157600080fd5b5061047b60075481565b348015610dd757600080fd5b50610459610de63660046148f1565b613234565b348015610df757600080fd5b50610d0e610e063660046149d0565b613798565b348015610e1757600080fd5b506104ae610e263660046148f1565b613a92565b348015610e3757600080fd5b5061047b60105481565b348015610e4d57600080fd5b5060205461069b906001600160a01b031681565b348015610e6d57600080fd5b5060065461069b906001600160a01b031681565b348015610e8d57600080fd5b5061047b610e9c3660046148f1565b613abc565b348015610ead57600080fd5b506104ae610ebc366004614e39565b613acc565b348015610ecd57600080fd5b5061069b610edc3660046149d0565b601b602052600090815260409020546001600160a01b031681565b348015610f0357600080fd5b5061047b610f123660046148f1565b613aff565b348015610f2357600080fd5b5061047b60235481565b348015610f3957600080fd5b5061047b60185481565b348015610f4f57600080fd5b50610459610f5e366004614e56565b613b29565b348015610f6f57600080fd5b5061047b60135481565b348015610f8557600080fd5b506104ae610f94366004614957565b613fa7565b348015610fa557600080fd5b5061047b610fb43660046149d0565b601d6020526000908152604090205481565b348015610fd257600080fd5b5061047b60155481565b348015610fe857600080fd5b5061047b6140f2565b348015610ffd57600080fd5b5061047b61100c3660046149d0565b614154565b34801561101d57600080fd5b50600f546104ae9060ff1681565b34801561103757600080fd5b506104596110463660046149d0565b61435d565b34801561105757600080fd5b5061047b6110663660046148f1565b6143eb565b600080546001600160a01b0316336001600160a01b03161461108c57600080fd5b6003546040516370a0823160e01b815230600482015283916001600160a01b0316906370a0823190602401602060405180830381865afa1580156110d4573d6000803e3d6000fd5b505050506040513d601f19601f820116820180604052508101906110f89190614e95565b101561110357600080fd5b60035460005460405163a9059cbb60e01b81526001600160a01b0391821660048201526024810185905291169063a9059cbb906044016020604051808303816000875af1158015611158573d6000803e3d6000fd5b505050506040513d601f19601f8201168201806040525081019061117c9190614eae565b5090919050565b6025818154811061119357600080fd5b9060005260206000209060209182820401919006915054906101000a900460ff1681565b600080546001600160a01b0316336001600160a01b0316146111d857600080fd5b50602080546001600160a01b0319166001600160a01b039490941693909317909255602255602355600190565b60608060005b838110156112925761121c826112bb565b6001600160a01b038087166000908152601b60205260409020548251929450169083908390811061124f5761124f614ecb565b6001600160a01b039283166020918202929092018101919091529581166000908152601b909652604090952054909416938061128a81614ef7565b91505061120b565b5090505b92915050565b60008060008060006112ad86613798565b509097909650945050505050565b60606000825160016112cd9190614f12565b67ffffffffffffffff8111156112e5576112e56149ed565b60405190808252806020026020018201604052801561130e578160200160208202803683370190505b50905060005b83518110156113735783818151811061132f5761132f614ecb565b602002602001015182828151811061134957611349614ecb565b6001600160a01b03909216602092830291909101909101528061136b81614ef7565b915050611314565b5092915050565b6000546060906001600160a01b0316336001600160a01b03161461139d57600080fd5b81600984815481106113b1576113b1614ecb565b9060005260206000200181905550600980548060200260200160405190810160405280929190818152602001828054801561140b57602002820191906000526020600020905b8154815260200190600101908083116113f7575b5050505050905092915050565b600e818154811061142857600080fd5b600091825260209091200154905081565b600a818154811061142857600080fd5b600080546001600160a01b0316336001600160a01b03161461146a57600080fd5b825161147d90600b9060208601906146ef565b50815161149190600c90602085019061473a565b5060019392505050565b600080546001600160a01b0316336001600160a01b0316146114bc57600080fd5b50601181905590565b6009818154811061142857600080fd5b601e60205281600052604060002081815481106114f157600080fd5b9060005260206000209060209182820401919006915091509054906101000a900460ff1681565b600f5460ff1661152757600080fd5b600061153233614154565b6003546040516370a0823160e01b815230600482015291925082916001600160a01b03909116906370a0823190602401602060405180830381865afa15801561157f573d6000803e3d6000fd5b505050506040513d601f19601f820116820180604052508101906115a39190614e95565b10156115ae57600080fd5b6004548110156115bd57600080fd5b60016023541061170d576003546020546022546001600160a01b039283169263a9059cbb9216906115fc906064906115f6908790614410565b90614449565b6040516001600160e01b031960e085901b1681526001600160a01b03909216600483015260248201526044016020604051808303816000875af1158015611647573d6000803e3d6000fd5b505050506040513d601f19601f8201168201806040525081019061166b9190614eae565b506003546001600160a01b031663a9059cbb3361169860646115f66014548761441090919063ffffffff16565b6040516001600160e01b031960e085901b1681526001600160a01b03909216600483015260248201526044016020604051808303816000875af11580156116e3573d6000803e3d6000fd5b505050506040513d601f19601f820116820180604052508101906117079190614eae565b506117aa565b6003546001600160a01b031663a9059cbb3361173960646115f66014548761441090919063ffffffff16565b6040516001600160e01b031960e085901b1681526001600160a01b03909216600483015260248201526044016020604051808303816000875af1158015611784573d6000803e3d6000fd5b505050506040513d601f19601f820116820180604052508101906117a89190614eae565b505b6118073382600a8054806020026020016040519081016040528092919081815260200182805480156117fb57602002820191906000526020600020905b8154815260200190600101908083116117e7575b5050505050600161446b565b336000818152601a602052604081209181906118229061129c565b9092509050811580159061183557508015155b156118b95780821015611880578183600a0160000160008282546118599190614f12565b9091555050600d83018054839190600090611875908490614f12565b909155506118b99050565b8083600a0160000160008282546118979190614f12565b9091555050600d830180548291906000906118b3908490614f12565b90915550505b6118d7836002015484600101546118d09190614f12565b85906146d4565b8360060160008282546118ea9190614f2a565b92505081905550838360070160008282546119059190614f12565b90915550504260058401556000600184018190556002840181905560198054869290611932908490614f12565b909155505050505050565b60006119476147da565b60005b8351811015611b7157601a600085838151811061196957611969614ecb565b6020908102919091018101516001600160a01b031682528181019290925260409081016000908120825161018081018452815460ff8082161515835261010091829004161515828701526001830154828601526002830154606083015260038301546080830152600483015460a0830152600583015460c0830152600683015460e0830152600783015490820152600882015461012082015260098201805485518188028101880190965280865291959294610140870194909391929184015b82821015611a7a5760008481526020908190206040805160608101825260038602909201805483526001808201548486015260029091015460ff161515918301919091529083529092019101611a29565b505050908252506040805160c081018252600a8401548152600b840154602082810191909152600c8501546001600160a01b0390811693830193909352600d8501546060830152600e8501546080830152600f90940154821660a0808301919091529390920191909152610160830151909101519193508116611b1b57848281518110611b0957611b09614ecb565b60200260200101519350505050919050565b611b24856112bb565b9450808560018751611b369190614f2a565b81518110611b4657611b46614ecb565b6001600160a01b03909216602092830291909101909101525080611b6981614ef7565b91505061194a565b50611b7b8361193d565b5050919050565b600080546001600160a01b0316336001600160a01b031614611ba357600080fd5b50600481905590565b6001600160a01b0381166000908152601a60209081526040808320815161018081018352815460ff8082161515835261010091829004161515828601526001830154828501526002830154606083015260038301546080830152600483015460a0830152600583015460c0830152600683015460e083015260078301549082015260088201546101208201526009820180548451818702810187019095528085528695869586958695949093610140860193879084015b82821015611cb45760008481526020908190206040805160608101825260038602909201805483526001808201548486015260029091015460ff161515918301919091529083529092019101611c63565b505050908252506040805160c081018252600a8401548152600b840154602082810191909152600c8501546001600160a01b0390811683850152600d8601546060840152600e8601546080840152600f90950154851660a08301529092019190915261016083015101519192501615611f4c576060611d32816112bb565b90508161016001516040015181600081518110611d5157611d51614ecb565b60200260200101906001600160a01b031690816001600160a01b031681525050611d7a81612dbd565b905060005b8151811015611f4957601a6000838381518110611d9e57611d9e614ecb565b6020908102919091018101516001600160a01b031682528181019290925260409081016000908120825161018081018452815460ff8082161515835261010091829004161515828701526001830154828601526002830154606083015260038301546080830152600483015460a0830152600583015460c0830152600683015460e0830152600783015490820152600882015461012082015260098201805485518188028101880190965280865291959294610140870194909391929184015b82821015611eaf5760008481526020908190206040805160608101825260038602909201805483526001808201548486015260029091015460ff161515918301919091529083529092019101611e5e565b505050908252506040805160c081018252600a8401548152600b840154602082810191909152600c8501546001600160a01b0390811693830193909352600d8501546060830152600e8501546080830152600f9094015490911660a0808301919091529290910152810151909350611f279088614f12565b965085611f3381614ef7565b9650508080611f4190614ef7565b915050611d7f565b50505b6001600160a01b0386166000908152601a60209081526040808320815161018081018352815460ff8082161515835261010091829004161515828601526001830154828501526002830154606083015260038301546080830152600483015460a0830152600583015460c0830152600683015460e0830152600783015490820152600882015461012082015260098201805484518187028101870190955280855291959294610140870194939192919084015b828210156120505760008481526020908190206040805160608101825260038602909201805483526001808201548486015260029091015460ff161515918301919091529083529092019101611fff565b505050908252506040805160c081018252600a8401548152600b840154602082810191909152600c8501546001600160a01b0390811693830193909352600d8501546060830152600e8501546080830152600f90940154821660a08083019190915293909201919091526101608301519091015191925016156122f25760606120d8816112bb565b905081610160015160a00151816000815181106120f7576120f7614ecb565b60200260200101906001600160a01b031690816001600160a01b03168152505061212081612dbd565b905060005b81518110156122ef57601a600083838151811061214457612144614ecb565b6020908102919091018101516001600160a01b031682528181019290925260409081016000908120825161018081018452815460ff8082161515835261010091829004161515828701526001830154828601526002830154606083015260038301546080830152600483015460a0830152600583015460c0830152600683015460e0830152600783015490820152600882015461012082015260098201805485518188028101880190965280865291959294610140870194909391929184015b828210156122555760008481526020908190206040805160608101825260038602909201805483526001808201548486015260029091015460ff161515918301919091529083529092019101612204565b505050908252506040805160c081018252600a8401548152600b840154602082810191909152600c8501546001600160a01b0390811693830193909352600d8501546060830152600e8501546080830152600f9094015490911660a08083019190915292909101528101519093506122cd9086614f12565b9450836122d981614ef7565b94505080806122e790614ef7565b915050612125565b50505b509193509193565b600061231360115460105461441090919063ffffffff16565b905090565b600080546001600160a01b0316336001600160a01b03161461233957600080fd5b50600380546001600160a01b0383166001600160a01b031991821681179092556006805490911690911790556001919050565b6000546060906001600160a01b0316336001600160a01b03161461238f57600080fd5b81600884815481106123a3576123a3614ecb565b9060005260206000200181905550600880548060200260200160405190810160405280929190818152602001828054801561140b57602002820191906000526020600020908154815260200190600101908083116113f7575050505050905092915050565b600080546001600160a01b0316336001600160a01b03161461242957600080fd5b6001600160a01b0384166000908152601a60205260409020805460ff166124965760405162461bcd60e51b815260206004820152601d60248201527f656c207573756172696f206e6f2065737461207265676973747261646f000000604482015260640160405180910390fd5b8381600a0160010160008282546124ad9190614f12565b9091555050600e810180548491906000906124c9908490614f12565b9091555060019695505050505050565b6000546060906001600160a01b0316336001600160a01b0316146124fc57600080fd5b81600a848154811061251057612510614ecb565b9060005260206000200181905550600a80548060200260200160405190810160405280929190818152602001828054801561140b57602002820191906000526020600020908154815260200190600101908083116113f7575050505050905092915050565b6026818154811061142857600080fd5b600080546001600160a01b0316336001600160a01b0316146125a657600080fd5b50601381905590565b600080546001600160a01b0316336001600160a01b0316146125d057600080fd5b83516125e3906024906020870190614887565b5082516125f790602590602086019061473a565b50815161260b9060269060208501906146ef565b506001949350505050565b3360009081526001602052604081205460ff1661263257600080fd5b50601281905590565b6001600160a01b0381166000908152601a602052604081206060918291829182918280808085805b60098701548110156128175761267886612d12565b955061268385612d12565b945061268e84612f7c565b935061269983612f7c565b925060008760090182815481106126b2576126b2614ecb565b9060005260206000209060030201905080600001548683815181106126d9576126d9614ecb565b60200260200101818152505060006126ef6122fa565b82546126fb9190614f12565b9050600082600001548a600501541161271557825461271b565b89600501545b9050600082421161272c574261272e565b825b9050811580159061273e57508082105b156127ad57600284015460ff1615612788576127586122fa565b6127628383614f2a565b85600101546127719190614f41565b61277b9190614f60565b6127859087614f12565b95505b600187868151811061279c5761279c614ecb565b911515602092830291909101909101525b83600101548a86815181106127c4576127c4614ecb565b60209081029190910101526002840154885160ff909116908990879081106127ee576127ee614ecb565b60200260200101901515908115158152505050505050808061280f90614ef7565b915050612663565b50939b929a50909850965090945092505050565b6000546001600160a01b0316336001600160a01b03161461284b57600080fd5b6001600160a01b03811661285e57600080fd5b6040516001600160a01b038216907f71614071b88dee5e0b2ae578a9dd7b2ebbe9ae832ba419dc0242cd065a290b6c90600090a26001600160a01b03166000908152600160208190526040909120805460ff19169091179055565b600f5460ff166128c857600080fd5b60006128d33361304c565b905060005b600d54811015612a5457600e81815481106128f5576128f5614ecb565b9060005260206000200154821015801561294d5750336000908152601e6020526040902080548290811061292b5761292b614ecb565b90600052602060002090602091828204019190069054906101000a900460ff16155b15612a42576003546001600160a01b031663a9059cbb33600d848154811061297757612977614ecb565b6000918252602090912001546040516001600160e01b031960e085901b1681526001600160a01b03909216600483015260248201526044016020604051808303816000875af11580156129ce573d6000803e3d6000fd5b505050506040513d601f19601f820116820180604052508101906129f29190614eae565b50336000908152601e6020526040902080546001919083908110612a1857612a18614ecb565b90600052602060002090602091828204019190066101000a81548160ff0219169083151502179055505b80612a4c81614ef7565b9150506128d8565b5050565b6000612a626147da565b60005b8351811015612c7057601a6000858381518110612a8457612a84614ecb565b6020908102919091018101516001600160a01b031682528181019290925260409081016000908120825161018081018452815460ff8082161515835261010091829004161515828701526001830154828601526002830154606083015260038301546080830152600483015460a0830152600583015460c0830152600683015460e0830152600783015490820152600882015461012082015260098201805485518188028101880190965280865291959294610140870194909391929184015b82821015612b955760008481526020908190206040805160608101825260038602909201805483526001808201548486015260029091015460ff161515918301919091529083529092019101612b44565b505050908252506040805160c081018252600a8401548152600b840154602082810191909152600c8501546001600160a01b0390811683850152600d8601546060840152600e8601546080840152600f90950154851660a08301529092019190915261016083015101519193508116612c1a57848281518110611b0957611b09614ecb565b612c23856112bb565b9450808560018751612c359190614f2a565b81518110612c4557612c45614ecb565b6001600160a01b03909216602092830291909101909101525080612c6881614ef7565b915050612a65565b50611b7b83612a58565b6000546001600160a01b0316336001600160a01b031614612c9a57600080fd5b6001600160a01b038116612cad57600080fd5b6040516001600160a01b038216907fa3b62bc36326052d97ea62d63c3d60308ed4c3ea8ac079dd8499f1e9c4f80c0f90600090a26001600160a01b03166000908152600160205260409020805460ff19169055565b6008818154811061142857600080fd5b6060600082516001612d249190614f12565b67ffffffffffffffff811115612d3c57612d3c6149ed565b604051908082528060200260200182016040528015612d65578160200160208202803683370190505b50905060005b835181101561137357838181518110612d8657612d86614ecb565b6020026020010151828281518110612da057612da0614ecb565b602090810291909101015280612db581614ef7565b915050612d6b565b60606000805b8351811015612f7457601a6000858381518110612de257612de2614ecb565b6020908102919091018101516001600160a01b039081168352908201929092526040016000908120600c810154600f82015491955083169216905b8651811015612ea857868181518110612e3857612e38614ecb565b60200260200101516001600160a01b0316836001600160a01b03161415612e5e57600092505b868181518110612e7057612e70614ecb565b60200260200101516001600160a01b0316826001600160a01b03161415612e9657600091505b80612ea081614ef7565b915050612e1d565b506001600160a01b03821615612f0457612ec1866112bb565b9550818660018851612ed39190614f2a565b81518110612ee357612ee3614ecb565b60200260200101906001600160a01b031690816001600160a01b0316815250505b6001600160a01b03811615612f5f57612f1c866112bb565b9550808660018851612f2e9190614f2a565b81518110612f3e57612f3e614ecb565b60200260200101906001600160a01b031690816001600160a01b0316815250505b50508080612f6c90614ef7565b915050612dc3565b509192915050565b6060600082516001612f8e9190614f12565b67ffffffffffffffff811115612fa657612fa66149ed565b604051908082528060200260200182016040528015612fcf578160200160208202803683370190505b50905060005b835181101561137357838181518110612ff057612ff0614ecb565b602002602001015182828151811061300a5761300a614ecb565b911515602092830291909101909101528061302481614ef7565b915050612fd5565b600c818154811061119357600080fd5b600d818154811061142857600080fd5b6001600160a01b0381166000908152601a60209081526040808320815161018081018352815460ff8082161515835261010091829004161515828601526001830154828501526002830154606083015260038301546080830152600483015460a0830152600583015460c0830152600683015460e083015260078301549082015260088201546101208201526009820180548451818702810187019095528085528695929461014086019390929190879084015b828210156131515760008481526020908190206040805160608101825260038602909201805483526001808201548486015260029091015460ff161515918301919091529083529092019101613100565b505050908252506040805160c081018252600a8401548152600b840154602082810191909152600c8501546001600160a01b0390811693830193909352600d8501546060830152600e8501546080830152600f9094015490911660a0820152908201526101608201518051910151919250906131cd9082614f12565b6101608301516060810151608090910151919250906131ec9082614f12565b9050808210156131fe57819350613202565b8093505b505050919050565b6024818154811061321a57600080fd5b6000918252602090912001546001600160a01b0316905081565b600b54811061324257600080fd5b600c818154811061325557613255614ecb565b90600052602060002090602091828204019190069054906101000a900460ff1661327e57600080fd5b336000908152601a60205260409020805460ff1615613793576000600b83815481106132ac576132ac614ecb565b60009182526020909120015460035490915081906001600160a01b031663dd62ed3e336040516001600160e01b031960e084901b1681526001600160a01b039091166004820152306024820152604401602060405180830381865afa158015613319573d6000803e3d6000fd5b505050506040513d601f19601f8201168201806040525081019061333d9190614e95565b101561334857600080fd5b6003546001600160a01b03166323b872dd336040516001600160e01b031960e084901b1681526001600160a01b039091166004820152306024820152604481018490526064016020604051808303816000875af11580156133ad573d6000803e3d6000fd5b505050506040513d601f19601f820116820180604052508101906133d19190614eae565b6133da57600080fd5b336000908152601b60205260409020546001600160a01b0316156134c35760075460098301541015613468576134633382600880548060200260200160405190810160405280929190818152602001828054801561345757602002820191906000526020600020905b815481526020019060010190808311613443575b5050505050600061446b565b6134c3565b6134c3338260098054806020026020016040519081016040528092919081815260200182805480156134575760200282019190600052602060002090815481526020019060010190808311613443575050505050600061446b565b8160090160405180606001604052804281526020016134f86134f1606460125461444990919063ffffffff16565b8590614410565b815260016020918201819052835480820185556000948552828520845160039092020190815591830151908201556040909101516002909101805460ff1916911515919091179055600483018054839290613554908490614f12565b90915550506012546135729061356b906064614449565b8290614410565b8260060160008282546135859190614f12565b9091555060009050806135973361129c565b909250905081158015906135aa57508015155b1561362e57808210156135f5578184600a0160000160008282546135ce9190614f12565b9091555050600d840180548391906000906135ea908490614f12565b9091555061362e9050565b8084600a01600001600082825461360c9190614f12565b9091555050600d84018054829190600090613628908490614f12565b90915550505b82601760008282546136409190614f12565b90915550600090505b60245481101561378b576025818154811061366657613666614ecb565b90600052602060002090602091828204019190069054906101000a900460ff161561377957600354602480546001600160a01b039092169163a9059cbb9190849081106136b5576136b5614ecb565b9060005260206000200160009054906101000a90046001600160a01b031661370860646115f6602687815481106136ee576136ee614ecb565b90600052602060002001548a61441090919063ffffffff16565b6040516001600160e01b031960e085901b1681526001600160a01b03909216600483015260248201526044016020604051808303816000875af1158015613753573d6000803e3d6000fd5b505050506040513d601f19601f820116820180604052508101906137779190614eae565b505b8061378381614ef7565b915050613649565b505050505050565b600080fd5b6001600160a01b038082166000908152601a60205260408120600c8101549192839283929116156138915760606137ce816112bb565b600c83015481519192506001600160a01b03169082906000906137f3576137f3614ecb565b60200260200101906001600160a01b031690816001600160a01b03168152505061381c81612dbd565b905060005b815181101561388e57601a600083838151811061384057613840614ecb565b60200260200101516001600160a01b03166001600160a01b03168152602001908152602001600020925082600401548661387a9190614f12565b95508061388681614ef7565b915050613821565b50505b506001600160a01b0384166000908152601a60205260409020600b8101546138b99085614f12565b600a8201549094506138cb9085614f2a565b600f8201549094506001600160a01b0316156139af5760606138ec816112bb565b600f83015481519192506001600160a01b031690829060009061391157613911614ecb565b60200260200101906001600160a01b031690816001600160a01b03168152505061393a81612dbd565b905060005b81518110156139ac57601a600083838151811061395e5761395e614ecb565b60200260200101516001600160a01b03166001600160a01b0316815260200190815260200160002092508260040154856139989190614f12565b9450806139a481614ef7565b91505061393f565b50505b506001600160a01b0384166000908152601a60205260409020600e8101546139d79084614f12565b600d8201549093506139e99084614f2a565b925082841015613a44578060060154613a1260646115f66013548861441090919063ffffffff16565b11613a3857613a3160646115f66013548761441090919063ffffffff16565b9150613a8a565b80600601549150613a8a565b8060060154613a6360646115f66013548761441090919063ffffffff16565b11613a8257613a3160646115f66013548661441090919063ffffffff16565b806006015491505b509193909250565b600080546001600160a01b0316336001600160a01b031614613ab357600080fd5b50602155600190565b600b818154811061142857600080fd5b600080546001600160a01b0316336001600160a01b031614613aed57600080fd5b50600f805460ff191682151517905590565b600080546001600160a01b0316336001600160a01b031614613b2057600080fd5b50600781905590565b60018160ff161115613b3a57600080fd5b336000908152601a60205260409020805460ff1615613b5857600080fd5b60215415613c81576021546003546001600160a01b031663dd62ed3e336040516001600160e01b031960e084901b1681526001600160a01b039091166004820152306024820152604401602060405180830381865afa158015613bbf573d6000803e3d6000fd5b505050506040513d601f19601f82011682018060405250810190613be39190614e95565b1015613bee57600080fd5b6003546001600160a01b03166323b872dd336021546040516001600160e01b031960e085901b1681526001600160a01b03909216600483015230602483015260448201526064016020604051808303816000875af1158015613c54573d6000803e3d6000fd5b505050506040513d601f19601f82011682018060405250810190613c789190614eae565b613c8157600080fd5b600260235410613d0a5760035460205460215460405163a9059cbb60e01b81526001600160a01b039283166004820152602481019190915291169063a9059cbb906044016020604051808303816000875af1158015613ce4573d6000803e3d6000fd5b505050506040513d601f19601f82011682018060405250810190613d089190614eae565b505b805461ffff1916610101178155336000908152601b6020526040902080546001600160a01b0319166001600160a01b03851690811790915515613ef6576001600160a01b0383166000908152601a602052604081206008810180549192613d7083614ef7565b909155505060ff8316613e3b57600c8101546001600160a01b0316613da857600c810180546001600160a01b03191633179055613ef4565b6060613db3816112bb565b600c83015481519192506001600160a01b0316908290600090613dd857613dd8614ecb565b60200260200101906001600160a01b031690816001600160a01b031681525050601a6000613e0583612a58565b6001600160a01b031681526020810191909152604001600020600c810180546001600160a01b031916331790559150613ef49050565b600f8101546001600160a01b0316613e6657600f810180546001600160a01b03191633179055613ef4565b6060613e71816112bb565b600f83015481519192506001600160a01b0316908290600090613e9657613e96614ecb565b60200260200101906001600160a01b031690816001600160a01b031681525050601a6000613ec38361193d565b6001600160a01b031681526020810191909152604001600020600f810180546001600160a01b031916331790559150505b505b60168054906000613f0683614ef7565b90915550506040805160e08101825260008082526020808301829052828401829052606083018290526080830182905260a0830182905260c08301829052338252601e905291909120613f5a91600761473a565b50601f80546000908152601c6020908152604080832080546001600160a01b031916339081179091558454908452601d90925282208190559190613f9d83614ef7565b9190505550505050565b3360009081526001602052604081205460ff16613fc357600080fd5b600b548210613fd157600080fd5b600c8281548110613fe457613fe4614ecb565b90600052602060002090602091828204019190069054906101000a900460ff1661400d57600080fd5b6001600160a01b0383166000908152601a60205260409020805460ff1661403357600080fd5b6000600b848154811061404857614048614ecb565b906000526020600020015490508160090160405180606001604052804281526020016140836134f1606460125461444990919063ffffffff16565b8152600060209182018190528354600180820186559482529082902083516003909202019081559082015192810192909255604001516002909101805460ff19169115159190911790556012546140df9061356b906064614449565b8260060160008282546124c99190614f12565b600080546001600160a01b0316336001600160a01b03161461411357600080fd5b600080546040516001600160a01b03909116914780156108fc02929091818181858888f1935050505015801561414d573d6000803e3d6000fd5b5047905090565b6001600160a01b0381166000908152601a60209081526040808320815161018081018352815460ff8082161515835261010091829004161515828601526001830154828501526002830154606083015260038301546080830152600483015460a0830152600583015460c0830152600683015460e083015260078301549082015260088201546101208201526009820180548451818702810187019095528085528695929461014086019390929190879084015b828210156142595760008481526020908190206040805160608101825260038602909201805483526001808201548486015260029091015460ff161515918301919091529083529092019101614208565b505050908252506040805160c081018252600a8401548152600b840154602082810191909152600c8501546001600160a01b0390811683850152600d860154606080850191909152600e8701546080850152600f909601541660a083015290920191909152908201519082015160e08301519293506000928392916142dd91614f12565b6142e79190614f12565b905060008060608060608060006142fd8c613798565b9a50909750955061430d8c61263b565b9398509196509450925090506143238982614f12565b90508960400151816143359190614f12565b905080881061434d579b9a5050505050505050505050565b50959a9950505050505050505050565b6000546001600160a01b0316336001600160a01b03161461437d57600080fd5b6001600160a01b03811661439057600080fd5b600080546040516001600160a01b03808516939216917f8be0079c531659141344cd1fd0a4f28419497f9722a3daafe3b4186f6b6457e091a3600080546001600160a01b0319166001600160a01b0392909216919091179055565b3360009081526001602052604081205460ff1661440757600080fd5b50601081905590565b60008261441f57506000611296565b600061442b8385614f41565b9050826144388583614f60565b1461444257600080fd5b9392505050565b600080821161445757600080fd5b60006144638385614f60565b949350505050565b6060614478858451611205565b905060008060005b85518110156146ca5785818151811061449b5761449b614ecb565b60200260200101516000146146b357601a60008583815181106144c0576144c0614ecb565b6020908102919091018101516001600160a01b03168252810191909152604001600020805490925060ff1680156144fd57508154610100900460ff165b801561450d575060008260060154115b156146b85760006001600160a01b031684828151811061452f5761452f614ecb565b60200260200101516001600160a01b0316146146b3576145776103e86115f688848151811061456057614560614ecb565b60200260200101518a61441090919063ffffffff16565b925061458233614154565b61458c9084614f12565b8260060154111561462757828260060160008282546145ab9190614f2a565b909155505084156145d557828260020160008282546145ca9190614f12565b9091555061460a9050565b828260010160008282546145e99190614f12565b92505081905550828260030160008282546146049190614f12565b90915550505b826018600082825461461c9190614f12565b909155506146b89050565b84156146505781600601548260020160008282546146459190614f12565b9091555061468c9050565b81600601548260010160008282546146689190614f12565b90915550506006820154600383018054600090614686908490614f12565b90915550505b8160060154601860008282546146a29190614f12565b9091555050600060068301556146b8565b6146ca565b806146c281614ef7565b915050614480565b5050505050505050565b6000828211156146e357600080fd5b60006144638385614f2a565b82805482825590600052602060002090810192821561472a579160200282015b8281111561472a57825182559160200191906001019061470f565b506147369291506148dc565b5090565b82805482825590600052602060002090601f0160209004810192821561472a5791602002820160005b838211156147a057835183826101000a81548160ff0219169083151502179055509260200192600101602081600001049283019260010302614763565b80156147cd5782816101000a81549060ff02191690556001016020816000010492830192600103026147a0565b50506147369291506148dc565b6040518061018001604052806000151581526020016000151581526020016000815260200160008152602001600081526020016000815260200160008152602001600081526020016000815260200160008152602001606081526020016148826040518060c00160405280600081526020016000815260200160006001600160a01b03168152602001600081526020016000815260200160006001600160a01b031681525090565b905290565b82805482825590600052602060002090810192821561472a579160200282015b8281111561472a57825182546001600160a01b0319166001600160a01b039091161782556020909201916001909101906148a7565b5b8082111561473657600081556001016148dd565b60006020828403121561490357600080fd5b5035919050565b6001600160a01b038116811461491f57600080fd5b50565b60008060006060848603121561493757600080fd5b83356149428161490a565b95602085013595506040909401359392505050565b6000806040838503121561496a57600080fd5b82356149758161490a565b946020939093013593505050565b6020808252825182820181905260009190848201906040850190845b818110156149c45783516001600160a01b03168352928401929184019160010161499f565b50909695505050505050565b6000602082840312156149e257600080fd5b81356144428161490a565b634e487b7160e01b600052604160045260246000fd5b604051601f8201601f1916810167ffffffffffffffff81118282101715614a2c57614a2c6149ed565b604052919050565b600067ffffffffffffffff821115614a4e57614a4e6149ed565b5060051b60200190565b600082601f830112614a6957600080fd5b81356020614a7e614a7983614a34565b614a03565b82815260059290921b84018101918181019086841115614a9d57600080fd5b8286015b84811015614ac1578035614ab48161490a565b8352918301918301614aa1565b509695505050505050565b600060208284031215614ade57600080fd5b813567ffffffffffffffff811115614af557600080fd5b61446384828501614a58565b60008060408385031215614b1457600080fd5b50508035926020909101359150565b600081518084526020808501945080840160005b83811015614b5357815187529582019590820190600101614b37565b509495945050505050565b6020815260006144426020830184614b23565b600082601f830112614b8257600080fd5b81356020614b92614a7983614a34565b82815260059290921b84018101918181019086841115614bb157600080fd5b8286015b84811015614ac15780358352918301918301614bb5565b801515811461491f57600080fd5b600082601f830112614beb57600080fd5b81356020614bfb614a7983614a34565b82815260059290921b84018101918181019086841115614c1a57600080fd5b8286015b84811015614ac1578035614c3181614bcc565b8352918301918301614c1e565b60008060408385031215614c5157600080fd5b823567ffffffffffffffff80821115614c6957600080fd5b614c7586838701614b71565b93506020850135915080821115614c8b57600080fd5b50614c9885828601614bda565b9150509250929050565b600080600060608486031215614cb757600080fd5b833567ffffffffffffffff80821115614ccf57600080fd5b614cdb87838801614a58565b94506020860135915080821115614cf157600080fd5b614cfd87838801614bda565b93506040860135915080821115614d1357600080fd5b50614d2086828701614b71565b9150509250925092565b600081518084526020808501945080840160005b83811015614b53578151151587529582019590820190600101614d3e565b60a081526000614d6f60a0830188614b23565b8281036020840152614d818188614b23565b90508281036040840152614d958187614d2a565b90508281036060840152614da98186614d2a565b9150508260808301529695505050505050565b600060208284031215614dce57600080fd5b813567ffffffffffffffff811115614de557600080fd5b61446384828501614b71565b600060208284031215614e0357600080fd5b813567ffffffffffffffff811115614e1a57600080fd5b61446384828501614bda565b6020815260006144426020830184614d2a565b600060208284031215614e4b57600080fd5b813561444281614bcc565b60008060408385031215614e6957600080fd5b8235614e748161490a565b9150602083013560ff81168114614e8a57600080fd5b809150509250929050565b600060208284031215614ea757600080fd5b5051919050565b600060208284031215614ec057600080fd5b815161444281614bcc565b634e487b7160e01b600052603260045260246000fd5b634e487b7160e01b600052601160045260246000fd5b6000600019821415614f0b57614f0b614ee1565b5060010190565b60008219821115614f2557614f25614ee1565b500190565b600082821015614f3c57614f3c614ee1565b500390565b6000816000190483118215151615614f5b57614f5b614ee1565b500290565b600082614f7d57634e487b7160e01b600052601260045260246000fd5b50049056fea26469706673582212205bc214588792a90e9be4ef4227ca29bfd83136d44f9f936d3a6e86a34f8ac4c164736f6c634300080a0033",
    "sourcePath": "c:/Users/STC/Documents/GitHub/10-Metapro-bi/contracts/BinariSystem.sol",
    "compiler": {
        "name": "solc",
        "version": "0.8.10+commit.fc410830"
    },
    "functionHashes": {
        "ChangeTokenPrincipal(address)": "50da983f",
        "MIN_RETIRO()": "6c529279",
        "MIN_RETIRO_interno()": "4bdcd429",
        "active(uint256)": "8033d581",
        "activerFee()": "bd9bee19",
        "actualizarArrayBool(bool[])": "7fcc1e36",
        "actualizarArrayUint256(uint256[])": "7367b080",
        "actualizarNetwork(address[])": "1ce7f99b",
        "addressToId(address)": "cb0e0d7d",
        "admin(address)": "63a846f8",
        "allnetwork(address[])": "7faee047",
        "asignarPlan(address,uint256)": "c70371a9",
        "asignarPuntosBinarios(address,uint256,uint256)": "5a090c2d",
        "buyPlan(uint256)": "a80b223b",
        "column(address,uint256)": "15e8392b",
        "controlWitdrawl(bool)": "b17b6e44",
        "corteBinario(address)": "17737164",
        "depositos(address)": "664e62b9",
        "descuento()": "7b0412ed",
        "dias()": "ab6db199",
        "gananciasRango(uint256)": "81032892",
        "handLeft(address)": "55465fa5",
        "handRigth(address)": "6a88e297",
        "idToAddress(uint256)": "2a2d0c47",
        "insertionLeft(address[])": "6bf199ff",
        "insertionRigth(address[])": "42ccc234",
        "inversiones()": "a77d2119",
        "investors(address)": "6f7bc9be",
        "lastUserId()": "348d4487",
        "makeNewAdmin(address)": "69ed1e0a",
        "makeRemoveAdmin(address)": "70a0966b",
        "newRecompensa()": "69f4a84b",
        "onOffWitdrawl()": "e7348e8c",
        "owner()": "8da5cb5b",
        "padre(address)": "b35f0a8f",
        "personas()": "cc759ba2",
        "personasBinary(address)": "4e929b0f",
        "plans(uint256)": "b1620616",
        "plansLength()": "26837aa8",
        "porcent()": "4728f718",
        "porcentPuntosBinario()": "c2307ee6",
        "porcientos(uint256)": "28cca719",
        "porcientosSalida(uint256)": "22c0a574",
        "precioRegistro()": "7db9e9c6",
        "primervez(uint256)": "725fc270",
        "puntosRango(uint256)": "21309f21",
        "rangoReclamado(address,uint256)": "2acc8210",
        "redimTRX()": "cdb8bb2a",
        "redimTokenPrincipal02(uint256)": "1140e85b",
        "registro(address,uint8)": "c14b8361",
        "setInversiones(uint256)": "b85ea335",
        "setMIN_RETIRO(uint256)": "4de1be62",
        "setPlansAll(uint256[],bool[])": "23f376bc",
        "setPorcientos(uint256,uint256)": "1e403c35",
        "setPorcientosSalida(uint256,uint256)": "5d216c60",
        "setPrecioRegistro(uint256)": "aaa749c5",
        "setPrimeravezPorcientos(uint256,uint256)": "54822522",
        "setPuntosPorcentajeBinario(uint256)": "64417c89",
        "setRetorno(uint256)": "6589fa8a",
        "setTiempo(uint256)": "f90b3f5a",
        "setTiempoUnidades(uint256)": "2748d29b",
        "setWalletFee(address,uint256,uint256)": "12730daf",
        "setWalletstransfers(address[],bool[],uint256[])": "656e8c37",
        "setstate()": "85338e20",
        "tiempo()": "50188c08",
        "tokenPricipal()": "b1390426",
        "totalInvested()": "5216aeec",
        "totalInvestors()": "29b8caff",
        "totalRefRewards()": "bfe0e020",
        "totalRefWitdrawl()": "9b8ff503",
        "transfer(uint256)": "12514bba",
        "transferOwnership(address)": "f2fde38b",
        "unidades()": "4b9b8203",
        "valor(uint256)": "62550916",
        "valorFee()": "96600ed2",
        "wallet(uint256)": "a2781335",
        "walletFee()": "ac557f66",
        "withdraw()": "3ccfd60b",
        "withdrawable(address)": "ce513b6f",
        "withdrawableBinary(address)": "a95b4df9",
        "withdrawableRange(address)": "98c07d0a"
    },
    "gasEstimates": {
        "creation": {
            "codeDepositCost": "4081600",
            "executionCost": "infinite",
            "totalCost": "infinite"
        },
        "external": {
            "": "253",
            "ChangeTokenPrincipal(address)": "51094",
            "MIN_RETIRO()": "2375",
            "MIN_RETIRO_interno()": "2375",
            "active(uint256)": "6304",
            "activerFee()": "2439",
            "actualizarArrayBool(bool[])": "infinite",
            "actualizarArrayUint256(uint256[])": "infinite",
            "actualizarNetwork(address[])": "infinite",
            "addressToId(address)": "2657",
            "admin(address)": "2637",
            "allnetwork(address[])": "infinite",
            "asignarPlan(address,uint256)": "infinite",
            "asignarPuntosBinarios(address,uint256,uint256)": "infinite",
            "buyPlan(uint256)": "infinite",
            "column(address,uint256)": "infinite",
            "controlWitdrawl(bool)": "26832",
            "corteBinario(address)": "infinite",
            "depositos(address)": "infinite",
            "descuento()": "2374",
            "dias()": "2396",
            "gananciasRango(uint256)": "4654",
            "handLeft(address)": "6976",
            "handRigth(address)": "6997",
            "idToAddress(uint256)": "2634",
            "insertionLeft(address[])": "infinite",
            "insertionRigth(address[])": "infinite",
            "inversiones()": "2417",
            "investors(address)": "32812",
            "lastUserId()": "2374",
            "makeNewAdmin(address)": "28087",
            "makeRemoveAdmin(address)": "28093",
            "newRecompensa()": "infinite",
            "onOffWitdrawl()": "2442",
            "owner()": "2471",
            "padre(address)": "2663",
            "personas()": "2350",
            "personasBinary(address)": "infinite",
            "plans(uint256)": "4631",
            "plansLength()": "2358",
            "porcent()": "2440",
            "porcentPuntosBinario()": "2395",
            "porcientos(uint256)": "4677",
            "porcientosSalida(uint256)": "4699",
            "precioRegistro()": "2396",
            "primervez(uint256)": "4721",
            "puntosRango(uint256)": "4677",
            "rangoReclamado(address,uint256)": "6471",
            "redimTRX()": "infinite",
            "redimTokenPrincipal02(uint256)": "infinite",
            "registro(address,uint8)": "infinite",
            "setInversiones(uint256)": "24675",
            "setMIN_RETIRO(uint256)": "24655",
            "setPlansAll(uint256[],bool[])": "infinite",
            "setPorcientos(uint256,uint256)": "infinite",
            "setPorcientosSalida(uint256,uint256)": "infinite",
            "setPrecioRegistro(uint256)": "24646",
            "setPrimeravezPorcientos(uint256,uint256)": "infinite",
            "setPuntosPorcentajeBinario(uint256)": "24676",
            "setRetorno(uint256)": "24639",
            "setTiempo(uint256)": "24748",
            "setTiempoUnidades(uint256)": "24633",
            "setWalletFee(address,uint256,uint256)": "71161",
            "setWalletstransfers(address[],bool[],uint256[])": "infinite",
            "setstate()": "6641",
            "tiempo()": "infinite",
            "tokenPricipal()": "2493",
            "totalInvested()": "2374",
            "totalInvestors()": "2419",
            "totalRefRewards()": "2351",
            "totalRefWitdrawl()": "2373",
            "transfer(uint256)": "6328",
            "transferOwnership(address)": "30566",
            "unidades()": "2353",
            "valor(uint256)": "4654",
            "valorFee()": "2440",
            "wallet(uint256)": "4725",
            "walletFee()": "2471",
            "withdraw()": "infinite",
            "withdrawable(address)": "infinite",
            "withdrawableBinary(address)": "infinite",
            "withdrawableRange(address)": "infinite"
        },
        "internal": {
            "rewardReferers(address,uint256,uint256[] memory,bool)": "infinite"
        }
    }
}