{
    "contractName": "BinarySystem",
    "abi": [
        {
            "inputs": [],
            "stateMutability": "nonpayable",
            "type": "constructor"
        },
        {
            "anonymous": false,
            "inputs": [
                {
                    "indexed": true,
                    "internalType": "address",
                    "name": "admin",
                    "type": "address"
                }
            ],
            "name": "AdminRemoved",
            "type": "event"
        },
        {
            "anonymous": false,
            "inputs": [
                {
                    "indexed": true,
                    "internalType": "address",
                    "name": "admin",
                    "type": "address"
                }
            ],
            "name": "NewAdmin",
            "type": "event"
        },
        {
            "anonymous": false,
            "inputs": [
                {
                    "indexed": true,
                    "internalType": "address",
                    "name": "previousOwner",
                    "type": "address"
                },
                {
                    "indexed": true,
                    "internalType": "address",
                    "name": "newOwner",
                    "type": "address"
                }
            ],
            "name": "OwnershipTransferred",
            "type": "event"
        },
        {
            "stateMutability": "payable",
            "type": "fallback"
        },
        {
            "inputs": [
                {
                    "internalType": "address",
                    "name": "_tokenTRC20",
                    "type": "address"
                }
            ],
            "name": "ChangeTokenPrincipal",
            "outputs": [
                {
                    "internalType": "bool",
                    "name": "",
                    "type": "bool"
                }
            ],
            "stateMutability": "nonpayable",
            "type": "function"
        },
        {
            "inputs": [],
            "name": "MIN_RETIRO",
            "outputs": [
                {
                    "internalType": "uint256",
                    "name": "",
                    "type": "uint256"
                }
            ],
            "stateMutability": "view",
            "type": "function"
        },
        {
            "inputs": [],
            "name": "MIN_RETIRO_interno",
            "outputs": [
                {
                    "internalType": "uint256",
                    "name": "",
                    "type": "uint256"
                }
            ],
            "stateMutability": "view",
            "type": "function"
        },
        {
            "inputs": [
                {
                    "internalType": "uint256",
                    "name": "",
                    "type": "uint256"
                }
            ],
            "name": "active",
            "outputs": [
                {
                    "internalType": "bool",
                    "name": "",
                    "type": "bool"
                }
            ],
            "stateMutability": "view",
            "type": "function"
        },
        {
            "inputs": [],
            "name": "activerFee",
            "outputs": [
                {
                    "internalType": "uint256",
                    "name": "",
                    "type": "uint256"
                }
            ],
            "stateMutability": "view",
            "type": "function"
        },
        {
            "inputs": [
                {
                    "internalType": "bool[]",
                    "name": "old",
                    "type": "bool[]"
                }
            ],
            "name": "actualizarArrayBool",
            "outputs": [
                {
                    "internalType": "bool[]",
                    "name": "",
                    "type": "bool[]"
                }
            ],
            "stateMutability": "pure",
            "type": "function"
        },
        {
            "inputs": [
                {
                    "internalType": "uint256[]",
                    "name": "old",
                    "type": "uint256[]"
                }
            ],
            "name": "actualizarArrayUint256",
            "outputs": [
                {
                    "internalType": "uint256[]",
                    "name": "",
                    "type": "uint256[]"
                }
            ],
            "stateMutability": "pure",
            "type": "function"
        },
        {
            "inputs": [
                {
                    "internalType": "address[]",
                    "name": "oldNetwork",
                    "type": "address[]"
                }
            ],
            "name": "actualizarNetwork",
            "outputs": [
                {
                    "internalType": "address[]",
                    "name": "",
                    "type": "address[]"
                }
            ],
            "stateMutability": "pure",
            "type": "function"
        },
        {
            "inputs": [
                {
                    "internalType": "address",
                    "name": "",
                    "type": "address"
                }
            ],
            "name": "addressToId",
            "outputs": [
                {
                    "internalType": "uint256",
                    "name": "",
                    "type": "uint256"
                }
            ],
            "stateMutability": "view",
            "type": "function"
        },
        {
            "inputs": [
                {
                    "internalType": "address",
                    "name": "",
                    "type": "address"
                }
            ],
            "name": "admin",
            "outputs": [
                {
                    "internalType": "bool",
                    "name": "",
                    "type": "bool"
                }
            ],
            "stateMutability": "view",
            "type": "function"
        },
        {
            "inputs": [
                {
                    "internalType": "address[]",
                    "name": "network",
                    "type": "address[]"
                }
            ],
            "name": "allnetwork",
            "outputs": [
                {
                    "internalType": "address[]",
                    "name": "",
                    "type": "address[]"
                }
            ],
            "stateMutability": "view",
            "type": "function"
        },
        {
            "inputs": [
                {
                    "internalType": "address",
                    "name": "_user",
                    "type": "address"
                },
                {
                    "internalType": "uint256",
                    "name": "_plan",
                    "type": "uint256"
                }
            ],
            "name": "asignarPlan",
            "outputs": [
                {
                    "internalType": "bool",
                    "name": "",
                    "type": "bool"
                }
            ],
            "stateMutability": "nonpayable",
            "type": "function"
        },
        {
            "inputs": [
                {
                    "internalType": "address",
                    "name": "_user",
                    "type": "address"
                },
                {
                    "internalType": "uint256",
                    "name": "_puntosLeft",
                    "type": "uint256"
                },
                {
                    "internalType": "uint256",
                    "name": "_puntosRigth",
                    "type": "uint256"
                }
            ],
            "name": "asignarPuntosBinarios",
            "outputs": [
                {
                    "internalType": "bool",
                    "name": "",
                    "type": "bool"
                }
            ],
            "stateMutability": "nonpayable",
            "type": "function"
        },
        {
            "inputs": [
                {
                    "internalType": "uint256",
                    "name": "_plan",
                    "type": "uint256"
                }
            ],
            "name": "buyPlan",
            "outputs": [],
            "stateMutability": "nonpayable",
            "type": "function"
        },
        {
            "inputs": [
                {
                    "internalType": "address",
                    "name": "yo",
                    "type": "address"
                },
                {
                    "internalType": "uint256",
                    "name": "_largo",
                    "type": "uint256"
                }
            ],
            "name": "column",
            "outputs": [
                {
                    "internalType": "address[]",
                    "name": "",
                    "type": "address[]"
                }
            ],
            "stateMutability": "view",
            "type": "function"
        },
        {
            "inputs": [
                {
                    "internalType": "bool",
                    "name": "_true_false",
                    "type": "bool"
                }
            ],
            "name": "controlWitdrawl",
            "outputs": [
                {
                    "internalType": "bool",
                    "name": "",
                    "type": "bool"
                }
            ],
            "stateMutability": "nonpayable",
            "type": "function"
        },
        {
            "inputs": [
                {
                    "internalType": "address",
                    "name": "any_user",
                    "type": "address"
                }
            ],
            "name": "corteBinario",
            "outputs": [
                {
                    "internalType": "uint256",
                    "name": "",
                    "type": "uint256"
                },
                {
                    "internalType": "uint256",
                    "name": "",
                    "type": "uint256"
                }
            ],
            "stateMutability": "view",
            "type": "function"
        },
        {
            "inputs": [
                {
                    "internalType": "address",
                    "name": "_user",
                    "type": "address"
                }
            ],
            "name": "depositos",
            "outputs": [
                {
                    "internalType": "uint256[]",
                    "name": "",
                    "type": "uint256[]"
                },
                {
                    "internalType": "uint256[]",
                    "name": "",
                    "type": "uint256[]"
                },
                {
                    "internalType": "bool[]",
                    "name": "",
                    "type": "bool[]"
                },
                {
                    "internalType": "bool[]",
                    "name": "",
                    "type": "bool[]"
                },
                {
                    "internalType": "uint256",
                    "name": "",
                    "type": "uint256"
                }
            ],
            "stateMutability": "view",
            "type": "function"
        },
        {
            "inputs": [],
            "name": "descuento",
            "outputs": [
                {
                    "internalType": "uint256",
                    "name": "",
                    "type": "uint256"
                }
            ],
            "stateMutability": "view",
            "type": "function"
        },
        {
            "inputs": [],
            "name": "dias",
            "outputs": [
                {
                    "internalType": "uint256",
                    "name": "",
                    "type": "uint256"
                }
            ],
            "stateMutability": "view",
            "type": "function"
        },
        {
            "inputs": [
                {
                    "internalType": "address",
                    "name": "_user",
                    "type": "address"
                },
                {
                    "internalType": "uint256",
                    "name": "_valor",
                    "type": "uint256"
                }
            ],
            "name": "discountDeposits",
            "outputs": [],
            "stateMutability": "nonpayable",
            "type": "function"
        },
        {
            "inputs": [
                {
                    "internalType": "uint256",
                    "name": "",
                    "type": "uint256"
                }
            ],
            "name": "gananciasRango",
            "outputs": [
                {
                    "internalType": "uint256",
                    "name": "",
                    "type": "uint256"
                }
            ],
            "stateMutability": "view",
            "type": "function"
        },
        {
            "inputs": [
                {
                    "internalType": "address",
                    "name": "_user",
                    "type": "address"
                }
            ],
            "name": "handLeft",
            "outputs": [
                {
                    "internalType": "uint256",
                    "name": "extra",
                    "type": "uint256"
                },
                {
                    "internalType": "uint256",
                    "name": "reclamados",
                    "type": "uint256"
                },
                {
                    "internalType": "address",
                    "name": "referer",
                    "type": "address"
                }
            ],
            "stateMutability": "view",
            "type": "function"
        },
        {
            "inputs": [
                {
                    "internalType": "address",
                    "name": "_user",
                    "type": "address"
                }
            ],
            "name": "handRigth",
            "outputs": [
                {
                    "internalType": "uint256",
                    "name": "extra",
                    "type": "uint256"
                },
                {
                    "internalType": "uint256",
                    "name": "reclamados",
                    "type": "uint256"
                },
                {
                    "internalType": "address",
                    "name": "referer",
                    "type": "address"
                }
            ],
            "stateMutability": "view",
            "type": "function"
        },
        {
            "inputs": [
                {
                    "internalType": "uint256",
                    "name": "",
                    "type": "uint256"
                }
            ],
            "name": "idToAddress",
            "outputs": [
                {
                    "internalType": "address",
                    "name": "",
                    "type": "address"
                }
            ],
            "stateMutability": "view",
            "type": "function"
        },
        {
            "inputs": [
                {
                    "internalType": "address[]",
                    "name": "network",
                    "type": "address[]"
                }
            ],
            "name": "insertionLeft",
            "outputs": [
                {
                    "internalType": "address",
                    "name": "wallett",
                    "type": "address"
                }
            ],
            "stateMutability": "view",
            "type": "function"
        },
        {
            "inputs": [
                {
                    "internalType": "address[]",
                    "name": "network",
                    "type": "address[]"
                }
            ],
            "name": "insertionRigth",
            "outputs": [
                {
                    "internalType": "address",
                    "name": "wallett",
                    "type": "address"
                }
            ],
            "stateMutability": "view",
            "type": "function"
        },
        {
            "inputs": [],
            "name": "inversiones",
            "outputs": [
                {
                    "internalType": "uint256",
                    "name": "",
                    "type": "uint256"
                }
            ],
            "stateMutability": "view",
            "type": "function"
        },
        {
            "inputs": [
                {
                    "internalType": "address",
                    "name": "",
                    "type": "address"
                }
            ],
            "name": "investors",
            "outputs": [
                {
                    "internalType": "bool",
                    "name": "registered",
                    "type": "bool"
                },
                {
                    "internalType": "bool",
                    "name": "recompensa",
                    "type": "bool"
                },
                {
                    "internalType": "uint256",
                    "name": "balanceRef",
                    "type": "uint256"
                },
                {
                    "internalType": "uint256",
                    "name": "balanceSal",
                    "type": "uint256"
                },
                {
                    "internalType": "uint256",
                    "name": "totalRef",
                    "type": "uint256"
                },
                {
                    "internalType": "uint256",
                    "name": "invested",
                    "type": "uint256"
                },
                {
                    "internalType": "uint256",
                    "name": "paidAt",
                    "type": "uint256"
                },
                {
                    "internalType": "uint256",
                    "name": "amount",
                    "type": "uint256"
                },
                {
                    "internalType": "uint256",
                    "name": "withdrawn",
                    "type": "uint256"
                },
                {
                    "internalType": "uint256",
                    "name": "directos",
                    "type": "uint256"
                },
                {
                    "components": [
                        {
                            "internalType": "uint256",
                            "name": "lReclamados",
                            "type": "uint256"
                        },
                        {
                            "internalType": "uint256",
                            "name": "lExtra",
                            "type": "uint256"
                        },
                        {
                            "internalType": "address",
                            "name": "lReferer",
                            "type": "address"
                        },
                        {
                            "internalType": "uint256",
                            "name": "rReclamados",
                            "type": "uint256"
                        },
                        {
                            "internalType": "uint256",
                            "name": "rExtra",
                            "type": "uint256"
                        },
                        {
                            "internalType": "address",
                            "name": "rReferer",
                            "type": "address"
                        }
                    ],
                    "internalType": "struct BinarySystem.Hand",
                    "name": "hands",
                    "type": "tuple"
                }
            ],
            "stateMutability": "view",
            "type": "function"
        },
        {
            "inputs": [],
            "name": "lastUserId",
            "outputs": [
                {
                    "internalType": "uint256",
                    "name": "",
                    "type": "uint256"
                }
            ],
            "stateMutability": "view",
            "type": "function"
        },
        {
            "inputs": [
                {
                    "internalType": "address payable",
                    "name": "_newadmin",
                    "type": "address"
                }
            ],
            "name": "makeNewAdmin",
            "outputs": [],
            "stateMutability": "nonpayable",
            "type": "function"
        },
        {
            "inputs": [
                {
                    "internalType": "address payable",
                    "name": "_oldadmin",
                    "type": "address"
                }
            ],
            "name": "makeRemoveAdmin",
            "outputs": [],
            "stateMutability": "nonpayable",
            "type": "function"
        },
        {
            "inputs": [],
            "name": "newRecompensa",
            "outputs": [],
            "stateMutability": "nonpayable",
            "type": "function"
        },
        {
            "inputs": [],
            "name": "onOffWitdrawl",
            "outputs": [
                {
                    "internalType": "bool",
                    "name": "",
                    "type": "bool"
                }
            ],
            "stateMutability": "view",
            "type": "function"
        },
        {
            "inputs": [],
            "name": "owner",
            "outputs": [
                {
                    "internalType": "address payable",
                    "name": "",
                    "type": "address"
                }
            ],
            "stateMutability": "view",
            "type": "function"
        },
        {
            "inputs": [
                {
                    "internalType": "address",
                    "name": "",
                    "type": "address"
                }
            ],
            "name": "padre",
            "outputs": [
                {
                    "internalType": "address",
                    "name": "",
                    "type": "address"
                }
            ],
            "stateMutability": "view",
            "type": "function"
        },
        {
            "inputs": [],
            "name": "personas",
            "outputs": [
                {
                    "internalType": "uint256",
                    "name": "",
                    "type": "uint256"
                }
            ],
            "stateMutability": "view",
            "type": "function"
        },
        {
            "inputs": [
                {
                    "internalType": "address",
                    "name": "any_user",
                    "type": "address"
                }
            ],
            "name": "personasBinary",
            "outputs": [
                {
                    "internalType": "uint256",
                    "name": "left",
                    "type": "uint256"
                },
                {
                    "internalType": "uint256",
                    "name": "pLeft",
                    "type": "uint256"
                },
                {
                    "internalType": "uint256",
                    "name": "rigth",
                    "type": "uint256"
                },
                {
                    "internalType": "uint256",
                    "name": "pRigth",
                    "type": "uint256"
                }
            ],
            "stateMutability": "view",
            "type": "function"
        },
        {
            "inputs": [
                {
                    "internalType": "uint256",
                    "name": "",
                    "type": "uint256"
                }
            ],
            "name": "plans",
            "outputs": [
                {
                    "internalType": "uint256",
                    "name": "",
                    "type": "uint256"
                }
            ],
            "stateMutability": "view",
            "type": "function"
        },
        {
            "inputs": [],
            "name": "plansLength",
            "outputs": [
                {
                    "internalType": "uint8",
                    "name": "",
                    "type": "uint8"
                }
            ],
            "stateMutability": "view",
            "type": "function"
        },
        {
            "inputs": [],
            "name": "porcent",
            "outputs": [
                {
                    "internalType": "uint256",
                    "name": "",
                    "type": "uint256"
                }
            ],
            "stateMutability": "view",
            "type": "function"
        },
        {
            "inputs": [],
            "name": "porcentPuntosBinario",
            "outputs": [
                {
                    "internalType": "uint256",
                    "name": "",
                    "type": "uint256"
                }
            ],
            "stateMutability": "view",
            "type": "function"
        },
        {
            "inputs": [
                {
                    "internalType": "uint256",
                    "name": "",
                    "type": "uint256"
                }
            ],
            "name": "porcientos",
            "outputs": [
                {
                    "internalType": "uint256",
                    "name": "",
                    "type": "uint256"
                }
            ],
            "stateMutability": "view",
            "type": "function"
        },
        {
            "inputs": [
                {
                    "internalType": "uint256",
                    "name": "",
                    "type": "uint256"
                }
            ],
            "name": "porcientosSalida",
            "outputs": [
                {
                    "internalType": "uint256",
                    "name": "",
                    "type": "uint256"
                }
            ],
            "stateMutability": "view",
            "type": "function"
        },
        {
            "inputs": [],
            "name": "precioRegistro",
            "outputs": [
                {
                    "internalType": "uint256",
                    "name": "",
                    "type": "uint256"
                }
            ],
            "stateMutability": "view",
            "type": "function"
        },
        {
            "inputs": [
                {
                    "internalType": "uint256",
                    "name": "",
                    "type": "uint256"
                }
            ],
            "name": "primervez",
            "outputs": [
                {
                    "internalType": "uint256",
                    "name": "",
                    "type": "uint256"
                }
            ],
            "stateMutability": "view",
            "type": "function"
        },
        {
            "inputs": [
                {
                    "internalType": "uint256",
                    "name": "",
                    "type": "uint256"
                }
            ],
            "name": "puntosRango",
            "outputs": [
                {
                    "internalType": "uint256",
                    "name": "",
                    "type": "uint256"
                }
            ],
            "stateMutability": "view",
            "type": "function"
        },
        {
            "inputs": [
                {
                    "internalType": "address",
                    "name": "",
                    "type": "address"
                },
                {
                    "internalType": "uint256",
                    "name": "",
                    "type": "uint256"
                }
            ],
            "name": "rangoReclamado",
            "outputs": [
                {
                    "internalType": "bool",
                    "name": "",
                    "type": "bool"
                }
            ],
            "stateMutability": "view",
            "type": "function"
        },
        {
            "inputs": [],
            "name": "redimTRX",
            "outputs": [
                {
                    "internalType": "uint256",
                    "name": "",
                    "type": "uint256"
                }
            ],
            "stateMutability": "nonpayable",
            "type": "function"
        },
        {
            "inputs": [
                {
                    "internalType": "uint256",
                    "name": "_value",
                    "type": "uint256"
                }
            ],
            "name": "redimTokenPrincipal02",
            "outputs": [
                {
                    "internalType": "uint256",
                    "name": "",
                    "type": "uint256"
                }
            ],
            "stateMutability": "nonpayable",
            "type": "function"
        },
        {
            "inputs": [
                {
                    "internalType": "address",
                    "name": "_sponsor",
                    "type": "address"
                },
                {
                    "internalType": "uint8",
                    "name": "_hand",
                    "type": "uint8"
                }
            ],
            "name": "registro",
            "outputs": [],
            "stateMutability": "nonpayable",
            "type": "function"
        },
        {
            "inputs": [
                {
                    "internalType": "uint256",
                    "name": "_descuento",
                    "type": "uint256"
                }
            ],
            "name": "setDescuento",
            "outputs": [
                {
                    "internalType": "bool",
                    "name": "",
                    "type": "bool"
                }
            ],
            "stateMutability": "nonpayable",
            "type": "function"
        },
        {
            "inputs": [
                {
                    "internalType": "uint256",
                    "name": "_numerodeinverionessinganancia",
                    "type": "uint256"
                }
            ],
            "name": "setInversiones",
            "outputs": [
                {
                    "internalType": "uint256",
                    "name": "",
                    "type": "uint256"
                }
            ],
            "stateMutability": "nonpayable",
            "type": "function"
        },
        {
            "inputs": [
                {
                    "internalType": "uint256",
                    "name": "_min",
                    "type": "uint256"
                }
            ],
            "name": "setMIN_RETIRO",
            "outputs": [
                {
                    "internalType": "uint256",
                    "name": "",
                    "type": "uint256"
                }
            ],
            "stateMutability": "nonpayable",
            "type": "function"
        },
        {
            "inputs": [
                {
                    "internalType": "uint256[]",
                    "name": "_values",
                    "type": "uint256[]"
                },
                {
                    "internalType": "bool[]",
                    "name": "_true",
                    "type": "bool[]"
                }
            ],
            "name": "setPlansAll",
            "outputs": [
                {
                    "internalType": "bool",
                    "name": "",
                    "type": "bool"
                }
            ],
            "stateMutability": "nonpayable",
            "type": "function"
        },
        {
            "inputs": [
                {
                    "internalType": "uint256",
                    "name": "_nivel",
                    "type": "uint256"
                },
                {
                    "internalType": "uint256",
                    "name": "_value",
                    "type": "uint256"
                }
            ],
            "name": "setPorcientos",
            "outputs": [
                {
                    "internalType": "uint256[]",
                    "name": "",
                    "type": "uint256[]"
                }
            ],
            "stateMutability": "nonpayable",
            "type": "function"
        },
        {
            "inputs": [
                {
                    "internalType": "uint256",
                    "name": "_nivel",
                    "type": "uint256"
                },
                {
                    "internalType": "uint256",
                    "name": "_value",
                    "type": "uint256"
                }
            ],
            "name": "setPorcientosSalida",
            "outputs": [
                {
                    "internalType": "uint256[]",
                    "name": "",
                    "type": "uint256[]"
                }
            ],
            "stateMutability": "nonpayable",
            "type": "function"
        },
        {
            "inputs": [
                {
                    "internalType": "uint256",
                    "name": "_precio",
                    "type": "uint256"
                }
            ],
            "name": "setPrecioRegistro",
            "outputs": [
                {
                    "internalType": "bool",
                    "name": "",
                    "type": "bool"
                }
            ],
            "stateMutability": "nonpayable",
            "type": "function"
        },
        {
            "inputs": [
                {
                    "internalType": "uint256",
                    "name": "_nivel",
                    "type": "uint256"
                },
                {
                    "internalType": "uint256",
                    "name": "_value",
                    "type": "uint256"
                }
            ],
            "name": "setPrimeravezPorcientos",
            "outputs": [
                {
                    "internalType": "uint256[]",
                    "name": "",
                    "type": "uint256[]"
                }
            ],
            "stateMutability": "nonpayable",
            "type": "function"
        },
        {
            "inputs": [
                {
                    "internalType": "uint256",
                    "name": "_porcentaje",
                    "type": "uint256"
                }
            ],
            "name": "setPuntosPorcentajeBinario",
            "outputs": [
                {
                    "internalType": "uint256",
                    "name": "",
                    "type": "uint256"
                }
            ],
            "stateMutability": "nonpayable",
            "type": "function"
        },
        {
            "inputs": [
                {
                    "internalType": "uint256",
                    "name": "_porcentaje",
                    "type": "uint256"
                }
            ],
            "name": "setRetorno",
            "outputs": [
                {
                    "internalType": "uint256",
                    "name": "",
                    "type": "uint256"
                }
            ],
            "stateMutability": "nonpayable",
            "type": "function"
        },
        {
            "inputs": [
                {
                    "internalType": "uint256",
                    "name": "_dias",
                    "type": "uint256"
                }
            ],
            "name": "setTiempo",
            "outputs": [
                {
                    "internalType": "uint256",
                    "name": "",
                    "type": "uint256"
                }
            ],
            "stateMutability": "nonpayable",
            "type": "function"
        },
        {
            "inputs": [
                {
                    "internalType": "uint256",
                    "name": "_unidades",
                    "type": "uint256"
                }
            ],
            "name": "setTiempoUnidades",
            "outputs": [
                {
                    "internalType": "uint256",
                    "name": "",
                    "type": "uint256"
                }
            ],
            "stateMutability": "nonpayable",
            "type": "function"
        },
        {
            "inputs": [
                {
                    "internalType": "address[]",
                    "name": "_wallet",
                    "type": "address[]"
                },
                {
                    "internalType": "uint256[]",
                    "name": "_fee",
                    "type": "uint256[]"
                },
                {
                    "internalType": "uint256",
                    "name": "_activerFee",
                    "type": "uint256"
                }
            ],
            "name": "setWalletFee",
            "outputs": [
                {
                    "internalType": "bool",
                    "name": "",
                    "type": "bool"
                }
            ],
            "stateMutability": "nonpayable",
            "type": "function"
        },
        {
            "inputs": [
                {
                    "internalType": "address[]",
                    "name": "_wallets",
                    "type": "address[]"
                },
                {
                    "internalType": "uint256[]",
                    "name": "_valores",
                    "type": "uint256[]"
                }
            ],
            "name": "setWalletstransfers",
            "outputs": [
                {
                    "internalType": "bool",
                    "name": "",
                    "type": "bool"
                }
            ],
            "stateMutability": "nonpayable",
            "type": "function"
        },
        {
            "inputs": [],
            "name": "setstate",
            "outputs": [
                {
                    "internalType": "uint256",
                    "name": "Investors",
                    "type": "uint256"
                },
                {
                    "internalType": "uint256",
                    "name": "Invested",
                    "type": "uint256"
                },
                {
                    "internalType": "uint256",
                    "name": "RefRewards",
                    "type": "uint256"
                }
            ],
            "stateMutability": "view",
            "type": "function"
        },
        {
            "inputs": [],
            "name": "tiempo",
            "outputs": [
                {
                    "internalType": "uint256",
                    "name": "",
                    "type": "uint256"
                }
            ],
            "stateMutability": "view",
            "type": "function"
        },
        {
            "inputs": [],
            "name": "tokenPricipal",
            "outputs": [
                {
                    "internalType": "address",
                    "name": "",
                    "type": "address"
                }
            ],
            "stateMutability": "view",
            "type": "function"
        },
        {
            "inputs": [],
            "name": "totalInvested",
            "outputs": [
                {
                    "internalType": "uint256",
                    "name": "",
                    "type": "uint256"
                }
            ],
            "stateMutability": "view",
            "type": "function"
        },
        {
            "inputs": [],
            "name": "totalInvestors",
            "outputs": [
                {
                    "internalType": "uint256",
                    "name": "",
                    "type": "uint256"
                }
            ],
            "stateMutability": "view",
            "type": "function"
        },
        {
            "inputs": [],
            "name": "totalRefRewards",
            "outputs": [
                {
                    "internalType": "uint256",
                    "name": "",
                    "type": "uint256"
                }
            ],
            "stateMutability": "view",
            "type": "function"
        },
        {
            "inputs": [],
            "name": "totalRefWitdrawl",
            "outputs": [
                {
                    "internalType": "uint256",
                    "name": "",
                    "type": "uint256"
                }
            ],
            "stateMutability": "view",
            "type": "function"
        },
        {
            "inputs": [
                {
                    "internalType": "address payable",
                    "name": "newOwner",
                    "type": "address"
                }
            ],
            "name": "transferOwnership",
            "outputs": [],
            "stateMutability": "nonpayable",
            "type": "function"
        },
        {
            "inputs": [],
            "name": "unidades",
            "outputs": [
                {
                    "internalType": "uint256",
                    "name": "",
                    "type": "uint256"
                }
            ],
            "stateMutability": "view",
            "type": "function"
        },
        {
            "inputs": [
                {
                    "internalType": "uint256",
                    "name": "",
                    "type": "uint256"
                }
            ],
            "name": "valor",
            "outputs": [
                {
                    "internalType": "uint256",
                    "name": "",
                    "type": "uint256"
                }
            ],
            "stateMutability": "view",
            "type": "function"
        },
        {
            "inputs": [
                {
                    "internalType": "uint256",
                    "name": "",
                    "type": "uint256"
                }
            ],
            "name": "valorFee",
            "outputs": [
                {
                    "internalType": "uint256",
                    "name": "",
                    "type": "uint256"
                }
            ],
            "stateMutability": "view",
            "type": "function"
        },
        {
            "inputs": [
                {
                    "internalType": "uint256",
                    "name": "",
                    "type": "uint256"
                }
            ],
            "name": "wallet",
            "outputs": [
                {
                    "internalType": "address",
                    "name": "",
                    "type": "address"
                }
            ],
            "stateMutability": "view",
            "type": "function"
        },
        {
            "inputs": [
                {
                    "internalType": "uint256",
                    "name": "",
                    "type": "uint256"
                }
            ],
            "name": "walletFee",
            "outputs": [
                {
                    "internalType": "address",
                    "name": "",
                    "type": "address"
                }
            ],
            "stateMutability": "view",
            "type": "function"
        },
        {
            "inputs": [],
            "name": "withdraw",
            "outputs": [],
            "stateMutability": "nonpayable",
            "type": "function"
        },
        {
            "inputs": [
                {
                    "internalType": "address",
                    "name": "any_user",
                    "type": "address"
                }
            ],
            "name": "withdrawable",
            "outputs": [
                {
                    "internalType": "uint256",
                    "name": "",
                    "type": "uint256"
                }
            ],
            "stateMutability": "view",
            "type": "function"
        },
        {
            "inputs": [
                {
                    "internalType": "address",
                    "name": "any_user",
                    "type": "address"
                }
            ],
            "name": "withdrawableBinary",
            "outputs": [
                {
                    "internalType": "uint256",
                    "name": "left",
                    "type": "uint256"
                },
                {
                    "internalType": "uint256",
                    "name": "rigth",
                    "type": "uint256"
                },
                {
                    "internalType": "uint256",
                    "name": "amount",
                    "type": "uint256"
                }
            ],
            "stateMutability": "view",
            "type": "function"
        },
        {
            "inputs": [
                {
                    "internalType": "address",
                    "name": "any_user",
                    "type": "address"
                }
            ],
            "name": "withdrawableRange",
            "outputs": [
                {
                    "internalType": "uint256",
                    "name": "amount",
                    "type": "uint256"
                }
            ],
            "stateMutability": "view",
            "type": "function"
        },
        {
            "stateMutability": "payable",
            "type": "receive"
        }
    ],
    "bytecode": "600280547355d398326f99059ff775485246999027b31979556001600160a01b03199182168117909255600380548216831790556801a055690d9db80000600455600680549091169091179055600160075561012060405260466080908152600060a081905260c081905260e08190526101005262000083906008906005620005c7565b506040805160a081018252600080825260208201819052918101829052606081018290526080810191909152620000bf906009906005620005c7565b506040805160a081018252600a808252600460208301526003928201929092526002606082015260016080820152620000fb91906005620005c7565b506040805161012081018252600081526802b5e3af16b1880000602082015268056bc75e2d6310000091810191909152680d8d726b7177a800006060820152681b1ae4d6e2ef5000006080820152683635c9adc5dea0000060a082015268878678326eac90000060c082015269010f0cf064dd5920000060e082015269021e19e0c9bab24000006101008201526200019890600b9060096200061c565b50604080516101208101825260008152600160208201819052918101829052606081018290526080810182905260a0810182905260c0810182905260e08101829052610100810191909152620001f390600c90600962000665565b5060408051610100810182526801158e460913d0000081526802b5e3af16b18800006020820152680ad78ebc5ac620000091810191909152681b1ae4d6e2ef500000606082015268410d586a20a4c00000608082015269014542ba12a337c0000060a082015269032d26d12e980b60000060c0820152690a968163f0a57b40000060e08201526200028990600d9060086200061c565b506040805161010081018252685150ae84a8cdf00000815269010f0cf064dd59200000602082015269043c33c193756480000091810191909152690a968163f0a57b4000006060820152691969368974c05b0000006080820152697f0e10af47c1c700000060a08201526a013da329b633647180000060c08201526a0422ca8b0a00a42500000060e08201526200032590600e9060086200070c565b50600f805460ff1916600190811790915560c86010819055620151806011556012556005601355605f60145560026015556016819055601f819055604080516020808201909252730556a260b9ef10756bc2df281168697f353d1e8e81526200038e9262000755565b50604080516020810190915260648152620003ae906021906001620005c7565b50600060225560016023556040805160e081018252734490566647735e8cbce0ce96efc8fb91c164859b815273e201933ca7b5af514a1b0119bbc1072a066c06df602082015273e2283cb00b9c32727941728bede372005c6ca3119181019190915273763eb0a2a2925c45927dbf6432f191fc66fbcfa8606082015273deff65e4bcf19a52b0db33e57b7ce262fd5db53f6080820152738a6ac002b64bbba26e746d97d4050e71240b30b060a0820152730bddc342f66f46968a15bd1c16dbefa5b63a158860c08201526200048890602490600762000755565b506040805160e08101825260068152600560208201526002918101829052606081018290526080810182905260a0810191909152602f60c0820152620004d3906025906007620005c7565b50348015620004e157600080fd5b50600080546001600160a01b031916339081178255808252600160208181526040808520805460ff191690931790925583546001600160a01b03168452601a8152818420805461ffff1916610101178155825160e081018452858152808301869052808401869052606081018690526080810186905260a0810186905260c08101869052938552601e90915292206200057c91600762000665565b50507f6de76108811faf2f94afbe5ac6c98e8393206cd093932de1fbfd61bbeec43a0280546001600160a01b031916339081179091556000908152601d6020526040812055620007c4565b8280548282559060005260206000209081019282156200060a579160200282015b828111156200060a578251829060ff16905591602001919060010190620005e8565b5062000618929150620007ad565b5090565b8280548282559060005260206000209081019282156200060a579160200282015b828111156200060a57825182906001600160501b03169055916020019190600101906200063d565b82805482825590600052602060002090601f016020900481019282156200060a5791602002820160005b83821115620006ce57835183826101000a81548160ff02191690831515021790555092602001926001016020816000010492830192600103026200068f565b8015620006fd5782816101000a81549060ff0219169055600101602081600001049283019260010302620006ce565b505062000618929150620007ad565b8280548282559060005260206000209081019282156200060a579160200282015b828111156200060a57825182906001600160581b03169055916020019190600101906200072d565b8280548282559060005260206000209081019282156200060a579160200282015b828111156200060a57825182546001600160a01b0319166001600160a01b0390911617825560209092019160019091019062000776565b5b80821115620006185760008155600101620007ae565b6151b880620007d46000396000f3fe60806040526004361061045d5760003560e01c806370a0966b1161023d578063ab6db19911610138578063c14b8361116100bb578063cdb8bb2a11610082578063cdb8bb2a14610ff1578063ce513b6f14611006578063db3be1a214611026578063e7348e8c14611046578063f2fde38b14611060578063f90b3f5a1461108057005b8063c14b836114610f58578063c2307ee614610f78578063c70371a914610f8e578063cb0e0d7d14610fae578063cc759ba214610fdb57005b8063b3d9fa09116100ff578063b3d9fa0914610ecc578063b85ea33514610eec578063bd9bee1914610f0c578063bfe0e02014610f22578063c073d90914610f3857005b8063ab6db19914610e20578063b139042614610e36578063b162061614610e56578063b17b6e4414610e76578063b35f0a8f14610e9657005b806385338e20116101c0578063a77d211911610187578063a77d211914610d8a578063a80b223b14610da0578063a8beb71714610dc0578063a95b4df914610de0578063aaa749c514610e0057005b806385338e2014610ce25780638da5cb5b14610d1457806398c07d0a14610d345780639b8ff50314610d54578063a278133514610d6a57005b80637db9e9c6116102045780637db9e9c614610c3f5780637faee04714610c555780637fcc1e3614610c755780638033d58114610ca25780638103289214610cc257005b806370a0966b14610ba95780637251b9ac14610bc9578063725fc27014610be95780637367b08014610c095780637b0412ed14610c2957005b80634bdcd4291161035857806362550916116102db57806369ed1e0a116102a257806369ed1e0a1461098757806369f4a84b146109a75780636a88e297146109bc5780636bf199ff14610a085780636c52927914610a285780636f7bc9be14610a3e57005b806362550916146108c657806363a846f8146108e657806364417c89146109165780636589fa8a14610936578063664e62b91461095657005b80635216aeec1161031f5780635216aeec146107e057806354822522146107f657806355465fa5146108165780635a090c2d146108865780635d216c60146108a657005b80634bdcd429146107355780634de1be621461074b5780634e929b0f1461076b57806350188c08146107ab57806350da983f146107c057005b806328cca719116103e0578063348d4487116103a7578063348d4487146106be5780633ccfd60b146106d457806342ccc234146106e95780634728f718146107095780634b9b82031461071f57005b806328cca719146105fa57806329b8caff1461061a57806329e1a243146106305780632a2d0c47146106505780632acc82101461069e57005b806321309f211161042457806321309f211461054857806322c0a5741461056857806323f376bc1461058857806326837aa8146105b85780632748d29b146105da57005b80631140e85b1461046657806315e8392b1461049957806317737164146104c65780631ce7f99b146104fb5780631e403c351461051b57005b3661046457005b005b34801561047257600080fd5b50610486610481366004614ab2565b6110a0565b6040519081526020015b60405180910390f35b3480156104a557600080fd5b506104b96104b4366004614ae3565b6111b8565b6040516104909190614b0f565b3480156104d257600080fd5b506104e66104e1366004614b5c565b61124f565b60408051928352602083019190915201610490565b34801561050757600080fd5b506104b9610516366004614c58565b61126e565b34801561052757600080fd5b5061053b610536366004614c8d565b61132d565b6040516104909190614cea565b34801561055457600080fd5b50610486610563366004614ab2565b6113cb565b34801561057457600080fd5b50610486610583366004614ab2565b6113ec565b34801561059457600080fd5b506105a86105a3366004614dca565b6113fc565b6040519015158152602001610490565b3480156105c457600080fd5b50600b5460405160ff9091168152602001610490565b3480156105e657600080fd5b506104866105f5366004614ab2565b61144e565b34801561060657600080fd5b50610486610615366004614ab2565b611478565b34801561062657600080fd5b5061048660165481565b34801561063c57600080fd5b5061048661064b366004614ab2565b611488565b34801561065c57600080fd5b5061068661066b366004614ab2565b601c602052600090815260409020546001600160a01b031681565b6040516001600160a01b039091168152602001610490565b3480156106aa57600080fd5b506105a86106b9366004614ae3565b611498565b3480156106ca57600080fd5b50610486601f5481565b3480156106e057600080fd5b506104646114db565b3480156106f557600080fd5b50610686610704366004614c58565b61196e565b34801561071557600080fd5b5061048660125481565b34801561072b57600080fd5b5061048660115481565b34801561074157600080fd5b5061048660055481565b34801561075757600080fd5b50610486610766366004614ab2565b611bb3565b34801561077757600080fd5b5061078b610786366004614b5c565b611bdd565b604080519485526020850193909352918301526060820152608001610490565b3480156107b757600080fd5b5061048661232b565b3480156107cc57600080fd5b506105a86107db366004614b5c565b612349565b3480156107ec57600080fd5b5061048660175481565b34801561080257600080fd5b5061053b610811366004614c8d565b61239d565b34801561082257600080fd5b50610862610831366004614b5c565b6001600160a01b039081166000908152601a60205260409020600b810154600a820154600c90920154909391921690565b6040805193845260208401929092526001600160a01b031690820152606001610490565b34801561089257600080fd5b506105a86108a1366004614e2e565b612439565b3480156108b257600080fd5b5061053b6108c1366004614c8d565b61250a565b3480156108d257600080fd5b506104866108e1366004614ab2565b6125a6565b3480156108f257600080fd5b506105a8610901366004614b5c565b60016020526000908152604090205460ff1681565b34801561092257600080fd5b50610486610931366004614ab2565b6125b6565b34801561094257600080fd5b50610486610951366004614ab2565b6125e0565b34801561096257600080fd5b50610976610971366004614b5c565b612605565b604051610490959493929190614e95565b34801561099357600080fd5b506104646109a2366004614b5c565b6127f5565b3480156109b357600080fd5b50610464612883565b3480156109c857600080fd5b506108626109d7366004614b5c565b6001600160a01b039081166000908152601a60205260409020600e810154600d820154600f90920154909391921690565b348015610a1457600080fd5b50610686610a23366004614c58565b612a22565b348015610a3457600080fd5b5061048660045481565b348015610a4a57600080fd5b50610b09610a59366004614b5c565b601a602090815260009182526040918290208054600182015460028301546003840154600485015460058601546006870154600788015460088901548b5160c081018d52600a8b01548152600b8b01549b81019b909b52600c8a01546001600160a01b039081169c8c019c909c52600d8a015460608c0152600e8a015460808c0152600f90990154909a1660a08a015260ff8088169a61010090980416989597949693959294919390929091908b565b604080519b15158c529915156020808d01919091528b8b01999099526060808c01989098526080808c019790975260a0808c019690965260c08b019490945260e08a0192909252610100890152610120880152805161014088015293840151610160870152938301516001600160a01b03908116610180870152918301516101a08601528201516101c0850152910151166101e082015261020001610490565b348015610bb557600080fd5b50610464610bc4366004614b5c565b612c44565b348015610bd557600080fd5b50610686610be4366004614ab2565b612ccc565b348015610bf557600080fd5b50610486610c04366004614ab2565b612cf6565b348015610c1557600080fd5b5061053b610c24366004614ef5565b612d06565b348015610c3557600080fd5b5061048660145481565b348015610c4b57600080fd5b5061048660225481565b348015610c6157600080fd5b506104b9610c70366004614c58565b612db1565b348015610c8157600080fd5b50610c95610c90366004614f2a565b612f70565b6040516104909190614f5f565b348015610cae57600080fd5b506105a8610cbd366004614ab2565b613020565b348015610cce57600080fd5b50610486610cdd366004614ab2565b613054565b348015610cee57600080fd5b506016546017546018545b60408051938452602084019290925290820152606001610490565b348015610d2057600080fd5b50600054610686906001600160a01b031681565b348015610d4057600080fd5b50610486610d4f366004614b5c565b613064565b348015610d6057600080fd5b5061048660195481565b348015610d7657600080fd5b50610686610d85366004614ab2565b613222565b348015610d9657600080fd5b5061048660075481565b348015610dac57600080fd5b50610464610dbb366004614ab2565b613232565b348015610dcc57600080fd5b506105a8610ddb366004614f72565b61375d565b348015610dec57600080fd5b50610cf9610dfb366004614b5c565b6137a5565b348015610e0c57600080fd5b506105a8610e1b366004614ab2565b613a9f565b348015610e2c57600080fd5b5061048660105481565b348015610e4257600080fd5b50600654610686906001600160a01b031681565b348015610e6257600080fd5b50610486610e71366004614ab2565b613ac9565b348015610e8257600080fd5b506105a8610e91366004614fcc565b613ad9565b348015610ea257600080fd5b50610686610eb1366004614b5c565b601b602052600090815260409020546001600160a01b031681565b348015610ed857600080fd5b506105a8610ee7366004614ab2565b613b0c565b348015610ef857600080fd5b50610486610f07366004614ab2565b613b36565b348015610f1857600080fd5b5061048660235481565b348015610f2e57600080fd5b5061048660185481565b348015610f4457600080fd5b50610464610f53366004614ae3565b613b60565b348015610f6457600080fd5b50610464610f73366004614fe9565b613c05565b348015610f8457600080fd5b5061048660135481565b348015610f9a57600080fd5b506105a8610fa9366004614ae3565b614114565b348015610fba57600080fd5b50610486610fc9366004614b5c565b601d6020526000908152604090205481565b348015610fe757600080fd5b5061048660155481565b348015610ffd57600080fd5b5061048661425f565b34801561101257600080fd5b50610486611021366004614b5c565b6142c1565b34801561103257600080fd5b506105a8611041366004615028565b6144ca565b34801561105257600080fd5b50600f546105a89060ff1681565b34801561106c57600080fd5b5061046461107b366004614b5c565b61451e565b34801561108c57600080fd5b5061048661109b366004614ab2565b6145ac565b600080546001600160a01b0316336001600160a01b0316146110c157600080fd5b6003546040516370a0823160e01b815230600482015283916001600160a01b0316906370a0823190602401602060405180830381865afa158015611109573d6000803e3d6000fd5b505050506040513d601f19601f8201168201806040525081019061112d9190615095565b101561113857600080fd5b60035460005460405163a9059cbb60e01b81526001600160a01b0391821660048201526024810185905291169063a9059cbb906044016020604051808303816000875af115801561118d573d6000803e3d6000fd5b505050506040513d601f19601f820116820180604052508101906111b191906150ae565b5090919050565b60608060005b83811015611245576111cf8261126e565b6001600160a01b038087166000908152601b602052604090205482519294501690839083908110611202576112026150cb565b6001600160a01b039283166020918202929092018101919091529581166000908152601b909652604090952054909416938061123d816150f7565b9150506111be565b5090505b92915050565b6000806000806000611260866137a5565b509097909650945050505050565b60606000825160016112809190615112565b67ffffffffffffffff81111561129857611298614b79565b6040519080825280602002602001820160405280156112c1578160200160208202803683370190505b50905060005b8351811015611326578381815181106112e2576112e26150cb565b60200260200101518282815181106112fc576112fc6150cb565b6001600160a01b03909216602092830291909101909101528061131e816150f7565b9150506112c7565b5092915050565b6000546060906001600160a01b0316336001600160a01b03161461135057600080fd5b8160098481548110611364576113646150cb565b906000526020600020018190555060098054806020026020016040519081016040528092919081815260200182805480156113be57602002820191906000526020600020905b8154815260200190600101908083116113aa575b5050505050905092915050565b600e81815481106113db57600080fd5b600091825260209091200154905081565b600a81815481106113db57600080fd5b600080546001600160a01b0316336001600160a01b03161461141d57600080fd5b825161143090600b9060208601906148b0565b50815161144490600c9060208501906148fb565b5060019392505050565b600080546001600160a01b0316336001600160a01b03161461146f57600080fd5b50601181905590565b600981815481106113db57600080fd5b602181815481106113db57600080fd5b601e60205281600052604060002081815481106114b457600080fd5b9060005260206000209060209182820401919006915091509054906101000a900460ff1681565b600f5460ff166114ea57600080fd5b60006114f5336142c1565b6003546040516370a0823160e01b815230600482015291925082916001600160a01b03909116906370a0823190602401602060405180830381865afa158015611542573d6000803e3d6000fd5b505050506040513d601f19601f820116820180604052508101906115669190615095565b101561157157600080fd5b60045481101561158057600080fd5b60016023541061173e5760005b60205481101561169c57600354602080546001600160a01b039092169163a9059cbb9190849081106115c1576115c16150cb565b9060005260206000200160009054906101000a90046001600160a01b031661161a6064611614602187815481106115fa576115fa6150cb565b9060005260206000200154886145d190919063ffffffff16565b9061460a565b6040516001600160e01b031960e085901b1681526001600160a01b03909216600483015260248201526044016020604051808303816000875af1158015611665573d6000803e3d6000fd5b505050506040513d601f19601f8201168201806040525081019061168991906150ae565b5080611694816150f7565b91505061158d565b506003546001600160a01b031663a9059cbb336116c96064611614601454876145d190919063ffffffff16565b6040516001600160e01b031960e085901b1681526001600160a01b03909216600483015260248201526044016020604051808303816000875af1158015611714573d6000803e3d6000fd5b505050506040513d601f19601f8201168201806040525081019061173891906150ae565b506117db565b6003546001600160a01b031663a9059cbb3361176a6064611614601454876145d190919063ffffffff16565b6040516001600160e01b031960e085901b1681526001600160a01b03909216600483015260248201526044016020604051808303816000875af11580156117b5573d6000803e3d6000fd5b505050506040513d601f19601f820116820180604052508101906117d991906150ae565b505b6118383382600a80548060200260200160405190810160405280929190818152602001828054801561182c57602002820191906000526020600020905b815481526020019060010190808311611818575b5050505050600161462c565b336000818152601a602052604081209181906118539061124f565b9092509050811580159061186657508015155b156118ea57808210156118b1578183600a01600001600082825461188a9190615112565b9091555050600d830180548391906000906118a6908490615112565b909155506118ea9050565b8083600a0160000160008282546118c89190615112565b9091555050600d830180548291906000906118e4908490615112565b90915550505b611908836002015484600101546119019190615112565b8590614895565b83600601600082825461191b919061512a565b92505081905550838360070160008282546119369190615112565b90915550504260058401556000600184018190556002840181905560198054869290611963908490615112565b909155505050505050565b600061197861499b565b60005b8351811015611ba257601a600085838151811061199a5761199a6150cb565b6020908102919091018101516001600160a01b031682528181019290925260409081016000908120825161018081018452815460ff8082161515835261010091829004161515828701526001830154828601526002830154606083015260038301546080830152600483015460a0830152600583015460c0830152600683015460e0830152600783015490820152600882015461012082015260098201805485518188028101880190965280865291959294610140870194909391929184015b82821015611aab5760008481526020908190206040805160608101825260038602909201805483526001808201548486015260029091015460ff161515918301919091529083529092019101611a5a565b505050908252506040805160c081018252600a8401548152600b840154602082810191909152600c8501546001600160a01b0390811693830193909352600d8501546060830152600e8501546080830152600f90940154821660a0808301919091529390920191909152610160830151909101519193508116611b4c57848281518110611b3a57611b3a6150cb565b60200260200101519350505050919050565b611b558561126e565b9450808560018751611b67919061512a565b81518110611b7757611b776150cb565b6001600160a01b03909216602092830291909101909101525080611b9a816150f7565b91505061197b565b50611bac8361196e565b5050919050565b600080546001600160a01b0316336001600160a01b031614611bd457600080fd5b50600481905590565b6001600160a01b0381166000908152601a60209081526040808320815161018081018352815460ff8082161515835261010091829004161515828601526001830154828501526002830154606083015260038301546080830152600483015460a0830152600583015460c0830152600683015460e083015260078301549082015260088201546101208201526009820180548451818702810187019095528085528695869586958695949093610140860193879084015b82821015611ce55760008481526020908190206040805160608101825260038602909201805483526001808201548486015260029091015460ff161515918301919091529083529092019101611c94565b505050908252506040805160c081018252600a8401548152600b840154602082810191909152600c8501546001600160a01b0390811683850152600d8601546060840152600e8601546080840152600f90950154851660a08301529092019190915261016083015101519192501615611f7d576060611d638161126e565b90508161016001516040015181600081518110611d8257611d826150cb565b60200260200101906001600160a01b031690816001600160a01b031681525050611dab81612db1565b905060005b8151811015611f7a57601a6000838381518110611dcf57611dcf6150cb565b6020908102919091018101516001600160a01b031682528181019290925260409081016000908120825161018081018452815460ff8082161515835261010091829004161515828701526001830154828601526002830154606083015260038301546080830152600483015460a0830152600583015460c0830152600683015460e0830152600783015490820152600882015461012082015260098201805485518188028101880190965280865291959294610140870194909391929184015b82821015611ee05760008481526020908190206040805160608101825260038602909201805483526001808201548486015260029091015460ff161515918301919091529083529092019101611e8f565b505050908252506040805160c081018252600a8401548152600b840154602082810191909152600c8501546001600160a01b0390811693830193909352600d8501546060830152600e8501546080830152600f9094015490911660a0808301919091529290910152810151909350611f589088615112565b965085611f64816150f7565b9650508080611f72906150f7565b915050611db0565b50505b6001600160a01b0386166000908152601a60209081526040808320815161018081018352815460ff8082161515835261010091829004161515828601526001830154828501526002830154606083015260038301546080830152600483015460a0830152600583015460c0830152600683015460e0830152600783015490820152600882015461012082015260098201805484518187028101870190955280855291959294610140870194939192919084015b828210156120815760008481526020908190206040805160608101825260038602909201805483526001808201548486015260029091015460ff161515918301919091529083529092019101612030565b505050908252506040805160c081018252600a8401548152600b840154602082810191909152600c8501546001600160a01b0390811693830193909352600d8501546060830152600e8501546080830152600f90940154821660a08083019190915293909201919091526101608301519091015191925016156123235760606121098161126e565b905081610160015160a0015181600081518110612128576121286150cb565b60200260200101906001600160a01b031690816001600160a01b03168152505061215181612db1565b905060005b815181101561232057601a6000838381518110612175576121756150cb565b6020908102919091018101516001600160a01b031682528181019290925260409081016000908120825161018081018452815460ff8082161515835261010091829004161515828701526001830154828601526002830154606083015260038301546080830152600483015460a0830152600583015460c0830152600683015460e0830152600783015490820152600882015461012082015260098201805485518188028101880190965280865291959294610140870194909391929184015b828210156122865760008481526020908190206040805160608101825260038602909201805483526001808201548486015260029091015460ff161515918301919091529083529092019101612235565b505050908252506040805160c081018252600a8401548152600b840154602082810191909152600c8501546001600160a01b0390811693830193909352600d8501546060830152600e8501546080830152600f9094015490911660a08083019190915292909101528101519093506122fe9086615112565b94508361230a816150f7565b9450508080612318906150f7565b915050612156565b50505b509193509193565b60006123446011546010546145d190919063ffffffff16565b905090565b600080546001600160a01b0316336001600160a01b03161461236a57600080fd5b50600380546001600160a01b0383166001600160a01b031991821681179092556006805490911690911790556001919050565b6000546060906001600160a01b0316336001600160a01b0316146123c057600080fd5b81600884815481106123d4576123d46150cb565b906000526020600020018190555060088054806020026020016040519081016040528092919081815260200182805480156113be57602002820191906000526020600020908154815260200190600101908083116113aa575050505050905092915050565b600080546001600160a01b0316336001600160a01b03161461245a57600080fd5b6001600160a01b0384166000908152601a60205260409020805460ff166124c75760405162461bcd60e51b815260206004820152601d60248201527f656c207573756172696f206e6f2065737461207265676973747261646f000000604482015260640160405180910390fd5b8381600a0160010160008282546124de9190615112565b9091555050600e810180548491906000906124fa908490615112565b9091555060019695505050505050565b6000546060906001600160a01b0316336001600160a01b03161461252d57600080fd5b81600a8481548110612541576125416150cb565b9060005260206000200181905550600a8054806020026020016040519081016040528092919081815260200182805480156113be57602002820191906000526020600020908154815260200190600101908083116113aa575050505050905092915050565b602581815481106113db57600080fd5b600080546001600160a01b0316336001600160a01b0316146125d757600080fd5b50601381905590565b3360009081526001602052604081205460ff166125fc57600080fd5b50601281905590565b6001600160a01b0381166000908152601a602052604081206060918291829182918280808085805b60098701548110156127e15761264286612d06565b955061264d85612d06565b945061265884612f70565b935061266383612f70565b9250600087600901828154811061267c5761267c6150cb565b9060005260206000209060030201905080600001548683815181106126a3576126a36150cb565b60200260200101818152505060006126b961232b565b82546126c59190615112565b9050600082600001548a60050154116126df5782546126e5565b89600501545b905060008242116126f657426126f8565b825b9050811580159061270857508082105b1561277757600284015460ff16156127525761272261232b565b61272c838361512a565b856001015461273b9190615141565b6127459190615160565b61274f9087615112565b95505b6001878681518110612766576127666150cb565b911515602092830291909101909101525b83600101548a868151811061278e5761278e6150cb565b60209081029190910101526002840154885160ff909116908990879081106127b8576127b86150cb565b6020026020010190151590811515815250505050505080806127d9906150f7565b91505061262d565b50939b929a50909850965090945092505050565b6000546001600160a01b0316336001600160a01b03161461281557600080fd5b6001600160a01b03811661282857600080fd5b6040516001600160a01b038216907f71614071b88dee5e0b2ae578a9dd7b2ebbe9ae832ba419dc0242cd065a290b6c90600090a26001600160a01b03166000908152600160208190526040909120805460ff19169091179055565b600f5460ff1661289257600080fd5b600061289d33613064565b905060005b600d54811015612a1e57600e81815481106128bf576128bf6150cb565b906000526020600020015482101580156129175750336000908152601e602052604090208054829081106128f5576128f56150cb565b90600052602060002090602091828204019190069054906101000a900460ff16155b15612a0c576003546001600160a01b031663a9059cbb33600d8481548110612941576129416150cb565b6000918252602090912001546040516001600160e01b031960e085901b1681526001600160a01b03909216600483015260248201526044016020604051808303816000875af1158015612998573d6000803e3d6000fd5b505050506040513d601f19601f820116820180604052508101906129bc91906150ae565b50336000908152601e60205260409020805460019190839081106129e2576129e26150cb565b90600052602060002090602091828204019190066101000a81548160ff0219169083151502179055505b80612a16816150f7565b9150506128a2565b5050565b6000612a2c61499b565b60005b8351811015612c3a57601a6000858381518110612a4e57612a4e6150cb565b6020908102919091018101516001600160a01b031682528181019290925260409081016000908120825161018081018452815460ff8082161515835261010091829004161515828701526001830154828601526002830154606083015260038301546080830152600483015460a0830152600583015460c0830152600683015460e0830152600783015490820152600882015461012082015260098201805485518188028101880190965280865291959294610140870194909391929184015b82821015612b5f5760008481526020908190206040805160608101825260038602909201805483526001808201548486015260029091015460ff161515918301919091529083529092019101612b0e565b505050908252506040805160c081018252600a8401548152600b840154602082810191909152600c8501546001600160a01b0390811683850152600d8601546060840152600e8601546080840152600f90950154851660a08301529092019190915261016083015101519193508116612be457848281518110611b3a57611b3a6150cb565b612bed8561126e565b9450808560018751612bff919061512a565b81518110612c0f57612c0f6150cb565b6001600160a01b03909216602092830291909101909101525080612c32816150f7565b915050612a2f565b50611bac83612a22565b6000546001600160a01b0316336001600160a01b031614612c6457600080fd5b6001600160a01b038116612c7757600080fd5b6040516001600160a01b038216907fa3b62bc36326052d97ea62d63c3d60308ed4c3ea8ac079dd8499f1e9c4f80c0f90600090a26001600160a01b03166000908152600160205260409020805460ff19169055565b60208181548110612cdc57600080fd5b6000918252602090912001546001600160a01b0316905081565b600881815481106113db57600080fd5b6060600082516001612d189190615112565b67ffffffffffffffff811115612d3057612d30614b79565b604051908082528060200260200182016040528015612d59578160200160208202803683370190505b50905060005b835181101561132657838181518110612d7a57612d7a6150cb565b6020026020010151828281518110612d9457612d946150cb565b602090810291909101015280612da9816150f7565b915050612d5f565b60606000805b8351811015612f6857601a6000858381518110612dd657612dd66150cb565b6020908102919091018101516001600160a01b039081168352908201929092526040016000908120600c810154600f82015491955083169216905b8651811015612e9c57868181518110612e2c57612e2c6150cb565b60200260200101516001600160a01b0316836001600160a01b03161415612e5257600092505b868181518110612e6457612e646150cb565b60200260200101516001600160a01b0316826001600160a01b03161415612e8a57600091505b80612e94816150f7565b915050612e11565b506001600160a01b03821615612ef857612eb58661126e565b9550818660018851612ec7919061512a565b81518110612ed757612ed76150cb565b60200260200101906001600160a01b031690816001600160a01b0316815250505b6001600160a01b03811615612f5357612f108661126e565b9550808660018851612f22919061512a565b81518110612f3257612f326150cb565b60200260200101906001600160a01b031690816001600160a01b0316815250505b50508080612f60906150f7565b915050612db7565b509192915050565b6060600082516001612f829190615112565b67ffffffffffffffff811115612f9a57612f9a614b79565b604051908082528060200260200182016040528015612fc3578160200160208202803683370190505b50905060005b835181101561132657838181518110612fe457612fe46150cb565b6020026020010151828281518110612ffe57612ffe6150cb565b9115156020928302919091019091015280613018816150f7565b915050612fc9565b600c818154811061303057600080fd5b9060005260206000209060209182820401919006915054906101000a900460ff1681565b600d81815481106113db57600080fd5b6001600160a01b0381166000908152601a60209081526040808320815161018081018352815460ff8082161515835261010091829004161515828601526001830154828501526002830154606083015260038301546080830152600483015460a0830152600583015460c0830152600683015460e083015260078301549082015260088201546101208201526009820180548451818702810187019095528085528695929461014086019390929190879084015b828210156131695760008481526020908190206040805160608101825260038602909201805483526001808201548486015260029091015460ff161515918301919091529083529092019101613118565b505050908252506040805160c081018252600a8401548152600b840154602082810191909152600c8501546001600160a01b0390811693830193909352600d8501546060830152600e8501546080830152600f9094015490911660a0820152908201526101608201518051910151919250906131e59082615112565b6101608301516060810151608090910151919250906132049082615112565b9050808210156132165781935061321a565b8093505b505050919050565b60248181548110612cdc57600080fd5b600b54811061324057600080fd5b600c8181548110613253576132536150cb565b90600052602060002090602091828204019190069054906101000a900460ff1661327c57600080fd5b336000908152601a60205260409020805460ff1615613758576000600b83815481106132aa576132aa6150cb565b60009182526020909120015460035490915081906001600160a01b031663dd62ed3e336040516001600160e01b031960e084901b1681526001600160a01b039091166004820152306024820152604401602060405180830381865afa158015613317573d6000803e3d6000fd5b505050506040513d601f19601f8201168201806040525081019061333b9190615095565b101561334657600080fd5b6003546001600160a01b03166323b872dd336040516001600160e01b031960e084901b1681526001600160a01b039091166004820152306024820152604481018490526064016020604051808303816000875af11580156133ab573d6000803e3d6000fd5b505050506040513d601f19601f820116820180604052508101906133cf91906150ae565b6133d857600080fd5b336000908152601b60205260409020546001600160a01b0316156134c15760075460098301541015613466576134613382600880548060200260200160405190810160405280929190818152602001828054801561345557602002820191906000526020600020905b815481526020019060010190808311613441575b5050505050600061462c565b6134c1565b6134c1338260098054806020026020016040519081016040528092919081815260200182805480156134555760200282019190600052602060002090815481526020019060010190808311613441575050505050600061462c565b8160090160405180606001604052804281526020016134f66134ef606460125461460a90919063ffffffff16565b85906145d1565b815260016020918201819052835480820185556000948552828520845160039092020190815591830151908201556040909101516002909101805460ff1916911515919091179055600483018054839290613552908490615112565b90915550506012546135709061356990606461460a565b82906145d1565b8260060160008282546135839190615112565b9091555060009050806135953361124f565b909250905081158015906135a857508015155b1561362c57808210156135f3578184600a0160000160008282546135cc9190615112565b9091555050600d840180548391906000906135e8908490615112565b9091555061362c9050565b8084600a01600001600082825461360a9190615112565b9091555050600d84018054829190600090613626908490615112565b90915550505b826017600082825461363e9190615112565b90915550600090505b60245481101561375057600354602480546001600160a01b039092169163a9059cbb91908490811061367b5761367b6150cb565b9060005260206000200160009054906101000a90046001600160a01b03166136ce6064611614602587815481106136b4576136b46150cb565b90600052602060002001548a6145d190919063ffffffff16565b6040516001600160e01b031960e085901b1681526001600160a01b03909216600483015260248201526044016020604051808303816000875af1158015613719573d6000803e3d6000fd5b505050506040513d601f19601f8201168201806040525081019061373d91906150ae565b5080613748816150f7565b915050613647565b505050505050565b600080fd5b600080546001600160a01b0316336001600160a01b03161461377e57600080fd5b8251613791906024906020860190614a48565b5081516114449060259060208501906148b0565b6001600160a01b038082166000908152601a60205260408120600c81015491928392839291161561389e5760606137db8161126e565b600c83015481519192506001600160a01b0316908290600090613800576138006150cb565b60200260200101906001600160a01b031690816001600160a01b03168152505061382981612db1565b905060005b815181101561389b57601a600083838151811061384d5761384d6150cb565b60200260200101516001600160a01b03166001600160a01b0316815260200190815260200160002092508260040154866138879190615112565b955080613893816150f7565b91505061382e565b50505b506001600160a01b0384166000908152601a60205260409020600b8101546138c69085615112565b600a8201549094506138d8908561512a565b600f8201549094506001600160a01b0316156139bc5760606138f98161126e565b600f83015481519192506001600160a01b031690829060009061391e5761391e6150cb565b60200260200101906001600160a01b031690816001600160a01b03168152505061394781612db1565b905060005b81518110156139b957601a600083838151811061396b5761396b6150cb565b60200260200101516001600160a01b03166001600160a01b0316815260200190815260200160002092508260040154856139a59190615112565b9450806139b1816150f7565b91505061394c565b50505b506001600160a01b0384166000908152601a60205260409020600e8101546139e49084615112565b600d8201549093506139f6908461512a565b925082841015613a51578060060154613a1f6064611614601354886145d190919063ffffffff16565b11613a4557613a3e6064611614601354876145d190919063ffffffff16565b9150613a97565b80600601549150613a97565b8060060154613a706064611614601354876145d190919063ffffffff16565b11613a8f57613a3e6064611614601354866145d190919063ffffffff16565b806006015491505b509193909250565b600080546001600160a01b0316336001600160a01b031614613ac057600080fd5b50602255600190565b600b81815481106113db57600080fd5b600080546001600160a01b0316336001600160a01b031614613afa57600080fd5b50600f805460ff191682151517905590565b600080546001600160a01b0316336001600160a01b031614613b2d57600080fd5b50601455600190565b600080546001600160a01b0316336001600160a01b031614613b5757600080fd5b50600781905590565b6001600160a01b0382166000908152601a60205260408120905b6009820154811015613bff576000826009018281548110613b9d57613b9d6150cb565b9060005260206000209060030201905083816001015410613bd657838160010154613bc8919061512a565b600182015560009350613bec565b600060018201819055613be9908561512a565b93505b5080613bf7816150f7565b915050613b7a565b50505050565b60018160ff161115613c1657600080fd5b336000908152601a60205260409020805460ff1615613c3457600080fd5b60225415613d5d576022546003546001600160a01b031663dd62ed3e336040516001600160e01b031960e084901b1681526001600160a01b039091166004820152306024820152604401602060405180830381865afa158015613c9b573d6000803e3d6000fd5b505050506040513d601f19601f82011682018060405250810190613cbf9190615095565b1015613cca57600080fd5b6003546001600160a01b03166323b872dd336022546040516001600160e01b031960e085901b1681526001600160a01b03909216600483015230602483015260448201526064016020604051808303816000875af1158015613d30573d6000803e3d6000fd5b505050506040513d601f19601f82011682018060405250810190613d5491906150ae565b613d5d57600080fd5b600260235410613e775760005b602454811015613e7557600354602080546001600160a01b039092169163a9059cbb919084908110613d9e57613d9e6150cb565b9060005260206000200160009054906101000a90046001600160a01b0316613df3606461161460218781548110613dd757613dd76150cb565b90600052602060002001546022546145d190919063ffffffff16565b6040516001600160e01b031960e085901b1681526001600160a01b03909216600483015260248201526044016020604051808303816000875af1158015613e3e573d6000803e3d6000fd5b505050506040513d601f19601f82011682018060405250810190613e6291906150ae565b5080613e6d816150f7565b915050613d6a565b505b805461ffff1916610101178155336000908152601b6020526040902080546001600160a01b0319166001600160a01b03851690811790915515614063576001600160a01b0383166000908152601a602052604081206008810180549192613edd836150f7565b909155505060ff8316613fa857600c8101546001600160a01b0316613f1557600c810180546001600160a01b03191633179055614061565b6060613f208161126e565b600c83015481519192506001600160a01b0316908290600090613f4557613f456150cb565b60200260200101906001600160a01b031690816001600160a01b031681525050601a6000613f7283612a22565b6001600160a01b031681526020810191909152604001600020600c810180546001600160a01b0319163317905591506140619050565b600f8101546001600160a01b0316613fd357600f810180546001600160a01b03191633179055614061565b6060613fde8161126e565b600f83015481519192506001600160a01b0316908290600090614003576140036150cb565b60200260200101906001600160a01b031690816001600160a01b031681525050601a60006140308361196e565b6001600160a01b031681526020810191909152604001600020600f810180546001600160a01b031916331790559150505b505b60168054906000614073836150f7565b90915550506040805160e08101825260008082526020808301829052828401829052606083018290526080830182905260a0830182905260c08301829052338252601e9052919091206140c79160076148fb565b50601f80546000908152601c6020908152604080832080546001600160a01b031916339081179091558454908452601d9092528220819055919061410a836150f7565b9190505550505050565b3360009081526001602052604081205460ff1661413057600080fd5b600b54821061413e57600080fd5b600c8281548110614151576141516150cb565b90600052602060002090602091828204019190069054906101000a900460ff1661417a57600080fd5b6001600160a01b0383166000908152601a60205260409020805460ff166141a057600080fd5b6000600b84815481106141b5576141b56150cb565b906000526020600020015490508160090160405180606001604052804281526020016141f06134ef606460125461460a90919063ffffffff16565b8152600060209182018190528354600180820186559482529082902083516003909202019081559082015192810192909255604001516002909101805460ff191691151591909117905560125461424c9061356990606461460a565b8260060160008282546124fa9190615112565b600080546001600160a01b0316336001600160a01b03161461428057600080fd5b600080546040516001600160a01b03909116914780156108fc02929091818181858888f193505050501580156142ba573d6000803e3d6000fd5b5047905090565b6001600160a01b0381166000908152601a60209081526040808320815161018081018352815460ff8082161515835261010091829004161515828601526001830154828501526002830154606083015260038301546080830152600483015460a0830152600583015460c0830152600683015460e083015260078301549082015260088201546101208201526009820180548451818702810187019095528085528695929461014086019390929190879084015b828210156143c65760008481526020908190206040805160608101825260038602909201805483526001808201548486015260029091015460ff161515918301919091529083529092019101614375565b505050908252506040805160c081018252600a8401548152600b840154602082810191909152600c8501546001600160a01b0390811683850152600d860154606080850191909152600e8701546080850152600f909601541660a083015290920191909152908201519082015160e083015192935060009283929161444a91615112565b6144549190615112565b9050600080606080606080600061446a8c6137a5565b9a50909750955061447a8c612605565b9398509196509450925090506144908982615112565b90508960400151816144a29190615112565b90508088106144ba579b9a5050505050505050505050565b50959a9950505050505050505050565b600080546001600160a01b0316336001600160a01b0316146144eb57600080fd5b83516144fd9060209081870190614a48565b5082516145119060219060208601906148b0565b5050602355506001919050565b6000546001600160a01b0316336001600160a01b03161461453e57600080fd5b6001600160a01b03811661455157600080fd5b600080546040516001600160a01b03808516939216917f8be0079c531659141344cd1fd0a4f28419497f9722a3daafe3b4186f6b6457e091a3600080546001600160a01b0319166001600160a01b0392909216919091179055565b3360009081526001602052604081205460ff166145c857600080fd5b50601081905590565b6000826145e057506000611249565b60006145ec8385615141565b9050826145f98583615160565b1461460357600080fd5b9392505050565b600080821161461857600080fd5b60006146248385615160565b949350505050565b60606146398584516111b8565b905060008060005b855181101561488b5785818151811061465c5761465c6150cb565b602002602001015160001461487457601a6000858381518110614681576146816150cb565b6020908102919091018101516001600160a01b03168252810191909152604001600020805490925060ff1680156146be57508154610100900460ff165b80156146ce575060008260060154115b156148795760006001600160a01b03168482815181106146f0576146f06150cb565b60200260200101516001600160a01b031614614874576147386103e8611614888481518110614721576147216150cb565b60200260200101518a6145d190919063ffffffff16565b9250614743336142c1565b61474d9084615112565b826006015411156147e8578282600601600082825461476c919061512a565b90915550508415614796578282600201600082825461478b9190615112565b909155506147cb9050565b828260010160008282546147aa9190615112565b92505081905550828260030160008282546147c59190615112565b90915550505b82601860008282546147dd9190615112565b909155506148799050565b84156148115781600601548260020160008282546148069190615112565b9091555061484d9050565b81600601548260010160008282546148299190615112565b90915550506006820154600383018054600090614847908490615112565b90915550505b8160060154601860008282546148639190615112565b909155505060006006830155614879565b61488b565b80614883816150f7565b915050614641565b5050505050505050565b6000828211156148a457600080fd5b6000614624838561512a565b8280548282559060005260206000209081019282156148eb579160200282015b828111156148eb5782518255916020019190600101906148d0565b506148f7929150614a9d565b5090565b82805482825590600052602060002090601f016020900481019282156148eb5791602002820160005b8382111561496157835183826101000a81548160ff0219169083151502179055509260200192600101602081600001049283019260010302614924565b801561498e5782816101000a81549060ff0219169055600101602081600001049283019260010302614961565b50506148f7929150614a9d565b604051806101800160405280600015158152602001600015158152602001600081526020016000815260200160008152602001600081526020016000815260200160008152602001600081526020016000815260200160608152602001614a436040518060c00160405280600081526020016000815260200160006001600160a01b03168152602001600081526020016000815260200160006001600160a01b031681525090565b905290565b8280548282559060005260206000209081019282156148eb579160200282015b828111156148eb57825182546001600160a01b0319166001600160a01b03909116178255602090920191600190910190614a68565b5b808211156148f75760008155600101614a9e565b600060208284031215614ac457600080fd5b5035919050565b6001600160a01b0381168114614ae057600080fd5b50565b60008060408385031215614af657600080fd5b8235614b0181614acb565b946020939093013593505050565b6020808252825182820181905260009190848201906040850190845b81811015614b505783516001600160a01b031683529284019291840191600101614b2b565b50909695505050505050565b600060208284031215614b6e57600080fd5b813561460381614acb565b634e487b7160e01b600052604160045260246000fd5b604051601f8201601f1916810167ffffffffffffffff81118282101715614bb857614bb8614b79565b604052919050565b600067ffffffffffffffff821115614bda57614bda614b79565b5060051b60200190565b600082601f830112614bf557600080fd5b81356020614c0a614c0583614bc0565b614b8f565b82815260059290921b84018101918181019086841115614c2957600080fd5b8286015b84811015614c4d578035614c4081614acb565b8352918301918301614c2d565b509695505050505050565b600060208284031215614c6a57600080fd5b813567ffffffffffffffff811115614c8157600080fd5b61462484828501614be4565b60008060408385031215614ca057600080fd5b50508035926020909101359150565b600081518084526020808501945080840160005b83811015614cdf57815187529582019590820190600101614cc3565b509495945050505050565b6020815260006146036020830184614caf565b600082601f830112614d0e57600080fd5b81356020614d1e614c0583614bc0565b82815260059290921b84018101918181019086841115614d3d57600080fd5b8286015b84811015614c4d5780358352918301918301614d41565b8015158114614ae057600080fd5b600082601f830112614d7757600080fd5b81356020614d87614c0583614bc0565b82815260059290921b84018101918181019086841115614da657600080fd5b8286015b84811015614c4d578035614dbd81614d58565b8352918301918301614daa565b60008060408385031215614ddd57600080fd5b823567ffffffffffffffff80821115614df557600080fd5b614e0186838701614cfd565b93506020850135915080821115614e1757600080fd5b50614e2485828601614d66565b9150509250929050565b600080600060608486031215614e4357600080fd5b8335614e4e81614acb565b95602085013595506040909401359392505050565b600081518084526020808501945080840160005b83811015614cdf578151151587529582019590820190600101614e77565b60a081526000614ea860a0830188614caf565b8281036020840152614eba8188614caf565b90508281036040840152614ece8187614e63565b90508281036060840152614ee28186614e63565b9150508260808301529695505050505050565b600060208284031215614f0757600080fd5b813567ffffffffffffffff811115614f1e57600080fd5b61462484828501614cfd565b600060208284031215614f3c57600080fd5b813567ffffffffffffffff811115614f5357600080fd5b61462484828501614d66565b6020815260006146036020830184614e63565b60008060408385031215614f8557600080fd5b823567ffffffffffffffff80821115614f9d57600080fd5b614fa986838701614be4565b93506020850135915080821115614fbf57600080fd5b50614e2485828601614cfd565b600060208284031215614fde57600080fd5b813561460381614d58565b60008060408385031215614ffc57600080fd5b823561500781614acb565b9150602083013560ff8116811461501d57600080fd5b809150509250929050565b60008060006060848603121561503d57600080fd5b833567ffffffffffffffff8082111561505557600080fd5b61506187838801614be4565b9450602086013591508082111561507757600080fd5b5061508486828701614cfd565b925050604084013590509250925092565b6000602082840312156150a757600080fd5b5051919050565b6000602082840312156150c057600080fd5b815161460381614d58565b634e487b7160e01b600052603260045260246000fd5b634e487b7160e01b600052601160045260246000fd5b600060001982141561510b5761510b6150e1565b5060010190565b60008219821115615125576151256150e1565b500190565b60008282101561513c5761513c6150e1565b500390565b600081600019048311821515161561515b5761515b6150e1565b500290565b60008261517d57634e487b7160e01b600052601260045260246000fd5b50049056fea264697066735822122033bfa75346abaf738e7bb6986ff0a413e9f43aa03cd42589e0722ff5fbcf955464736f6c634300080a0033",
    "sourcePath": "c:/Users/STC/Documents/GitHub/10-Metapro-bi/contracts/BinariSystem.sol",
    "compiler": {
        "name": "solc",
        "version": "0.8.10+commit.fc410830"
    },
    "functionHashes": {
        "ChangeTokenPrincipal(address)": "50da983f",
        "MIN_RETIRO()": "6c529279",
        "MIN_RETIRO_interno()": "4bdcd429",
        "active(uint256)": "8033d581",
        "activerFee()": "bd9bee19",
        "actualizarArrayBool(bool[])": "7fcc1e36",
        "actualizarArrayUint256(uint256[])": "7367b080",
        "actualizarNetwork(address[])": "1ce7f99b",
        "addressToId(address)": "cb0e0d7d",
        "admin(address)": "63a846f8",
        "allnetwork(address[])": "7faee047",
        "asignarPlan(address,uint256)": "c70371a9",
        "asignarPuntosBinarios(address,uint256,uint256)": "5a090c2d",
        "buyPlan(uint256)": "a80b223b",
        "column(address,uint256)": "15e8392b",
        "controlWitdrawl(bool)": "b17b6e44",
        "corteBinario(address)": "17737164",
        "depositos(address)": "664e62b9",
        "descuento()": "7b0412ed",
        "dias()": "ab6db199",
        "discountDeposits(address,uint256)": "c073d909",
        "gananciasRango(uint256)": "81032892",
        "handLeft(address)": "55465fa5",
        "handRigth(address)": "6a88e297",
        "idToAddress(uint256)": "2a2d0c47",
        "insertionLeft(address[])": "6bf199ff",
        "insertionRigth(address[])": "42ccc234",
        "inversiones()": "a77d2119",
        "investors(address)": "6f7bc9be",
        "lastUserId()": "348d4487",
        "makeNewAdmin(address)": "69ed1e0a",
        "makeRemoveAdmin(address)": "70a0966b",
        "newRecompensa()": "69f4a84b",
        "onOffWitdrawl()": "e7348e8c",
        "owner()": "8da5cb5b",
        "padre(address)": "b35f0a8f",
        "personas()": "cc759ba2",
        "personasBinary(address)": "4e929b0f",
        "plans(uint256)": "b1620616",
        "plansLength()": "26837aa8",
        "porcent()": "4728f718",
        "porcentPuntosBinario()": "c2307ee6",
        "porcientos(uint256)": "28cca719",
        "porcientosSalida(uint256)": "22c0a574",
        "precioRegistro()": "7db9e9c6",
        "primervez(uint256)": "725fc270",
        "puntosRango(uint256)": "21309f21",
        "rangoReclamado(address,uint256)": "2acc8210",
        "redimTRX()": "cdb8bb2a",
        "redimTokenPrincipal02(uint256)": "1140e85b",
        "registro(address,uint8)": "c14b8361",
        "setDescuento(uint256)": "b3d9fa09",
        "setInversiones(uint256)": "b85ea335",
        "setMIN_RETIRO(uint256)": "4de1be62",
        "setPlansAll(uint256[],bool[])": "23f376bc",
        "setPorcientos(uint256,uint256)": "1e403c35",
        "setPorcientosSalida(uint256,uint256)": "5d216c60",
        "setPrecioRegistro(uint256)": "aaa749c5",
        "setPrimeravezPorcientos(uint256,uint256)": "54822522",
        "setPuntosPorcentajeBinario(uint256)": "64417c89",
        "setRetorno(uint256)": "6589fa8a",
        "setTiempo(uint256)": "f90b3f5a",
        "setTiempoUnidades(uint256)": "2748d29b",
        "setWalletFee(address[],uint256[],uint256)": "db3be1a2",
        "setWalletstransfers(address[],uint256[])": "a8beb717",
        "setstate()": "85338e20",
        "tiempo()": "50188c08",
        "tokenPricipal()": "b1390426",
        "totalInvested()": "5216aeec",
        "totalInvestors()": "29b8caff",
        "totalRefRewards()": "bfe0e020",
        "totalRefWitdrawl()": "9b8ff503",
        "transferOwnership(address)": "f2fde38b",
        "unidades()": "4b9b8203",
        "valor(uint256)": "62550916",
        "valorFee(uint256)": "29e1a243",
        "wallet(uint256)": "a2781335",
        "walletFee(uint256)": "7251b9ac",
        "withdraw()": "3ccfd60b",
        "withdrawable(address)": "ce513b6f",
        "withdrawableBinary(address)": "a95b4df9",
        "withdrawableRange(address)": "98c07d0a"
    },
    "gasEstimates": {
        "creation": {
            "codeDepositCost": "4184000",
            "executionCost": "infinite",
            "totalCost": "infinite"
        },
        "external": {
            "": "253",
            "ChangeTokenPrincipal(address)": "51183",
            "MIN_RETIRO()": "2439",
            "MIN_RETIRO_interno()": "2353",
            "active(uint256)": "6370",
            "activerFee()": "2395",
            "actualizarArrayBool(bool[])": "infinite",
            "actualizarArrayUint256(uint256[])": "infinite",
            "actualizarNetwork(address[])": "infinite",
            "addressToId(address)": "2635",
            "admin(address)": "2615",
            "allnetwork(address[])": "infinite",
            "asignarPlan(address,uint256)": "infinite",
            "asignarPuntosBinarios(address,uint256,uint256)": "infinite",
            "buyPlan(uint256)": "infinite",
            "column(address,uint256)": "infinite",
            "controlWitdrawl(bool)": "26877",
            "corteBinario(address)": "infinite",
            "depositos(address)": "infinite",
            "descuento()": "2441",
            "dias()": "2352",
            "discountDeposits(address,uint256)": "infinite",
            "gananciasRango(uint256)": "4720",
            "handLeft(address)": "6954",
            "handRigth(address)": "6953",
            "idToAddress(uint256)": "2612",
            "insertionLeft(address[])": "infinite",
            "insertionRigth(address[])": "infinite",
            "inversiones()": "2351",
            "investors(address)": "32876",
            "lastUserId()": "2352",
            "makeNewAdmin(address)": "28043",
            "makeRemoveAdmin(address)": "28027",
            "newRecompensa()": "infinite",
            "onOffWitdrawl()": "2442",
            "owner()": "2427",
            "padre(address)": "2708",
            "personas()": "2439",
            "personasBinary(address)": "infinite",
            "plans(uint256)": "4676",
            "plansLength()": "2424",
            "porcent()": "2418",
            "porcentPuntosBinario()": "2373",
            "porcientos(uint256)": "4633",
            "porcientosSalida(uint256)": "4655",
            "precioRegistro()": "2352",
            "primervez(uint256)": "4677",
            "puntosRango(uint256)": "4633",
            "rangoReclamado(address,uint256)": "6560",
            "redimTRX()": "infinite",
            "redimTokenPrincipal02(uint256)": "infinite",
            "registro(address,uint8)": "infinite",
            "setDescuento(uint256)": "24623",
            "setInversiones(uint256)": "24631",
            "setMIN_RETIRO(uint256)": "24633",
            "setPlansAll(uint256[],bool[])": "infinite",
            "setPorcientos(uint256,uint256)": "infinite",
            "setPorcientosSalida(uint256,uint256)": "infinite",
            "setPrecioRegistro(uint256)": "24711",
            "setPrimeravezPorcientos(uint256,uint256)": "infinite",
            "setPuntosPorcentajeBinario(uint256)": "24654",
            "setRetorno(uint256)": "24706",
            "setTiempo(uint256)": "24748",
            "setTiempoUnidades(uint256)": "24699",
            "setWalletFee(address[],uint256[],uint256)": "infinite",
            "setWalletstransfers(address[],uint256[])": "infinite",
            "setstate()": "6597",
            "tiempo()": "infinite",
            "tokenPricipal()": "2427",
            "totalInvested()": "2352",
            "totalInvestors()": "2375",
            "totalRefRewards()": "2417",
            "totalRefWitdrawl()": "2418",
            "transferOwnership(address)": "30566",
            "unidades()": "2440",
            "valor(uint256)": "4632",
            "valorFee(uint256)": "4677",
            "wallet(uint256)": "4770",
            "walletFee(uint256)": "4705",
            "withdraw()": "infinite",
            "withdrawable(address)": "infinite",
            "withdrawableBinary(address)": "infinite",
            "withdrawableRange(address)": "infinite"
        },
        "internal": {
            "rewardReferers(address,uint256,uint256[] memory,bool)": "infinite"
        }
    }
}