{
    "contractName": "BinarySystem",
    "abi": [
        {
            "inputs": [],
            "stateMutability": "nonpayable",
            "type": "constructor"
        },
        {
            "anonymous": false,
            "inputs": [
                {
                    "indexed": true,
                    "internalType": "address",
                    "name": "admin",
                    "type": "address"
                }
            ],
            "name": "AdminRemoved",
            "type": "event"
        },
        {
            "anonymous": false,
            "inputs": [
                {
                    "indexed": true,
                    "internalType": "address",
                    "name": "admin",
                    "type": "address"
                }
            ],
            "name": "NewAdmin",
            "type": "event"
        },
        {
            "anonymous": false,
            "inputs": [
                {
                    "indexed": true,
                    "internalType": "address",
                    "name": "previousOwner",
                    "type": "address"
                },
                {
                    "indexed": true,
                    "internalType": "address",
                    "name": "newOwner",
                    "type": "address"
                }
            ],
            "name": "OwnershipTransferred",
            "type": "event"
        },
        {
            "stateMutability": "payable",
            "type": "fallback"
        },
        {
            "inputs": [
                {
                    "internalType": "address",
                    "name": "_tokenTRC20",
                    "type": "address"
                }
            ],
            "name": "ChangeTokenPrincipal",
            "outputs": [
                {
                    "internalType": "bool",
                    "name": "",
                    "type": "bool"
                }
            ],
            "stateMutability": "nonpayable",
            "type": "function"
        },
        {
            "inputs": [],
            "name": "MIN_RETIRO",
            "outputs": [
                {
                    "internalType": "uint256",
                    "name": "",
                    "type": "uint256"
                }
            ],
            "stateMutability": "view",
            "type": "function"
        },
        {
            "inputs": [],
            "name": "MIN_RETIRO_interno",
            "outputs": [
                {
                    "internalType": "uint256",
                    "name": "",
                    "type": "uint256"
                }
            ],
            "stateMutability": "view",
            "type": "function"
        },
        {
            "inputs": [
                {
                    "internalType": "uint256",
                    "name": "",
                    "type": "uint256"
                }
            ],
            "name": "active",
            "outputs": [
                {
                    "internalType": "bool",
                    "name": "",
                    "type": "bool"
                }
            ],
            "stateMutability": "view",
            "type": "function"
        },
        {
            "inputs": [],
            "name": "activerFee",
            "outputs": [
                {
                    "internalType": "uint256",
                    "name": "",
                    "type": "uint256"
                }
            ],
            "stateMutability": "view",
            "type": "function"
        },
        {
            "inputs": [
                {
                    "internalType": "bool[]",
                    "name": "old",
                    "type": "bool[]"
                }
            ],
            "name": "actualizarArrayBool",
            "outputs": [
                {
                    "internalType": "bool[]",
                    "name": "",
                    "type": "bool[]"
                }
            ],
            "stateMutability": "pure",
            "type": "function"
        },
        {
            "inputs": [
                {
                    "internalType": "uint256[]",
                    "name": "old",
                    "type": "uint256[]"
                }
            ],
            "name": "actualizarArrayUint256",
            "outputs": [
                {
                    "internalType": "uint256[]",
                    "name": "",
                    "type": "uint256[]"
                }
            ],
            "stateMutability": "pure",
            "type": "function"
        },
        {
            "inputs": [
                {
                    "internalType": "address[]",
                    "name": "oldNetwork",
                    "type": "address[]"
                }
            ],
            "name": "actualizarNetwork",
            "outputs": [
                {
                    "internalType": "address[]",
                    "name": "",
                    "type": "address[]"
                }
            ],
            "stateMutability": "pure",
            "type": "function"
        },
        {
            "inputs": [
                {
                    "internalType": "address",
                    "name": "",
                    "type": "address"
                }
            ],
            "name": "addressToId",
            "outputs": [
                {
                    "internalType": "uint256",
                    "name": "",
                    "type": "uint256"
                }
            ],
            "stateMutability": "view",
            "type": "function"
        },
        {
            "inputs": [
                {
                    "internalType": "address",
                    "name": "",
                    "type": "address"
                }
            ],
            "name": "admin",
            "outputs": [
                {
                    "internalType": "bool",
                    "name": "",
                    "type": "bool"
                }
            ],
            "stateMutability": "view",
            "type": "function"
        },
        {
            "inputs": [
                {
                    "internalType": "address[]",
                    "name": "network",
                    "type": "address[]"
                }
            ],
            "name": "allnetwork",
            "outputs": [
                {
                    "internalType": "address[]",
                    "name": "",
                    "type": "address[]"
                }
            ],
            "stateMutability": "view",
            "type": "function"
        },
        {
            "inputs": [
                {
                    "internalType": "address",
                    "name": "_user",
                    "type": "address"
                },
                {
                    "internalType": "uint256",
                    "name": "_plan",
                    "type": "uint256"
                }
            ],
            "name": "asignarPlan",
            "outputs": [
                {
                    "internalType": "bool",
                    "name": "",
                    "type": "bool"
                }
            ],
            "stateMutability": "nonpayable",
            "type": "function"
        },
        {
            "inputs": [
                {
                    "internalType": "address",
                    "name": "_user",
                    "type": "address"
                },
                {
                    "internalType": "uint256",
                    "name": "_puntosLeft",
                    "type": "uint256"
                },
                {
                    "internalType": "uint256",
                    "name": "_puntosRigth",
                    "type": "uint256"
                }
            ],
            "name": "asignarPuntosBinarios",
            "outputs": [
                {
                    "internalType": "bool",
                    "name": "",
                    "type": "bool"
                }
            ],
            "stateMutability": "nonpayable",
            "type": "function"
        },
        {
            "inputs": [
                {
                    "internalType": "uint256",
                    "name": "_plan",
                    "type": "uint256"
                }
            ],
            "name": "buyPlan",
            "outputs": [],
            "stateMutability": "nonpayable",
            "type": "function"
        },
        {
            "inputs": [
                {
                    "internalType": "address",
                    "name": "yo",
                    "type": "address"
                },
                {
                    "internalType": "uint256",
                    "name": "_largo",
                    "type": "uint256"
                }
            ],
            "name": "column",
            "outputs": [
                {
                    "internalType": "address[]",
                    "name": "",
                    "type": "address[]"
                }
            ],
            "stateMutability": "view",
            "type": "function"
        },
        {
            "inputs": [
                {
                    "internalType": "bool",
                    "name": "_true_false",
                    "type": "bool"
                }
            ],
            "name": "controlWitdrawl",
            "outputs": [
                {
                    "internalType": "bool",
                    "name": "",
                    "type": "bool"
                }
            ],
            "stateMutability": "nonpayable",
            "type": "function"
        },
        {
            "inputs": [
                {
                    "internalType": "address",
                    "name": "any_user",
                    "type": "address"
                }
            ],
            "name": "corteBinario",
            "outputs": [
                {
                    "internalType": "uint256",
                    "name": "",
                    "type": "uint256"
                },
                {
                    "internalType": "uint256",
                    "name": "",
                    "type": "uint256"
                }
            ],
            "stateMutability": "view",
            "type": "function"
        },
        {
            "inputs": [
                {
                    "internalType": "address",
                    "name": "_user",
                    "type": "address"
                }
            ],
            "name": "depositos",
            "outputs": [
                {
                    "internalType": "uint256[]",
                    "name": "",
                    "type": "uint256[]"
                },
                {
                    "internalType": "uint256[]",
                    "name": "",
                    "type": "uint256[]"
                },
                {
                    "internalType": "bool[]",
                    "name": "",
                    "type": "bool[]"
                },
                {
                    "internalType": "bool[]",
                    "name": "",
                    "type": "bool[]"
                },
                {
                    "internalType": "uint256",
                    "name": "",
                    "type": "uint256"
                }
            ],
            "stateMutability": "view",
            "type": "function"
        },
        {
            "inputs": [],
            "name": "descuento",
            "outputs": [
                {
                    "internalType": "uint256",
                    "name": "",
                    "type": "uint256"
                }
            ],
            "stateMutability": "view",
            "type": "function"
        },
        {
            "inputs": [],
            "name": "dias",
            "outputs": [
                {
                    "internalType": "uint256",
                    "name": "",
                    "type": "uint256"
                }
            ],
            "stateMutability": "view",
            "type": "function"
        },
        {
            "inputs": [
                {
                    "internalType": "uint256",
                    "name": "",
                    "type": "uint256"
                }
            ],
            "name": "gananciasRango",
            "outputs": [
                {
                    "internalType": "uint256",
                    "name": "",
                    "type": "uint256"
                }
            ],
            "stateMutability": "view",
            "type": "function"
        },
        {
            "inputs": [
                {
                    "internalType": "address",
                    "name": "_user",
                    "type": "address"
                }
            ],
            "name": "handLeft",
            "outputs": [
                {
                    "internalType": "uint256",
                    "name": "extra",
                    "type": "uint256"
                },
                {
                    "internalType": "uint256",
                    "name": "reclamados",
                    "type": "uint256"
                },
                {
                    "internalType": "address",
                    "name": "referer",
                    "type": "address"
                }
            ],
            "stateMutability": "view",
            "type": "function"
        },
        {
            "inputs": [
                {
                    "internalType": "address",
                    "name": "_user",
                    "type": "address"
                }
            ],
            "name": "handRigth",
            "outputs": [
                {
                    "internalType": "uint256",
                    "name": "extra",
                    "type": "uint256"
                },
                {
                    "internalType": "uint256",
                    "name": "reclamados",
                    "type": "uint256"
                },
                {
                    "internalType": "address",
                    "name": "referer",
                    "type": "address"
                }
            ],
            "stateMutability": "view",
            "type": "function"
        },
        {
            "inputs": [
                {
                    "internalType": "uint256",
                    "name": "",
                    "type": "uint256"
                }
            ],
            "name": "idToAddress",
            "outputs": [
                {
                    "internalType": "address",
                    "name": "",
                    "type": "address"
                }
            ],
            "stateMutability": "view",
            "type": "function"
        },
        {
            "inputs": [
                {
                    "internalType": "address[]",
                    "name": "network",
                    "type": "address[]"
                }
            ],
            "name": "insertionLeft",
            "outputs": [
                {
                    "internalType": "address",
                    "name": "wallett",
                    "type": "address"
                }
            ],
            "stateMutability": "view",
            "type": "function"
        },
        {
            "inputs": [
                {
                    "internalType": "address[]",
                    "name": "network",
                    "type": "address[]"
                }
            ],
            "name": "insertionRigth",
            "outputs": [
                {
                    "internalType": "address",
                    "name": "wallett",
                    "type": "address"
                }
            ],
            "stateMutability": "view",
            "type": "function"
        },
        {
            "inputs": [],
            "name": "inversiones",
            "outputs": [
                {
                    "internalType": "uint256",
                    "name": "",
                    "type": "uint256"
                }
            ],
            "stateMutability": "view",
            "type": "function"
        },
        {
            "inputs": [
                {
                    "internalType": "address",
                    "name": "",
                    "type": "address"
                }
            ],
            "name": "investors",
            "outputs": [
                {
                    "internalType": "bool",
                    "name": "registered",
                    "type": "bool"
                },
                {
                    "internalType": "bool",
                    "name": "recompensa",
                    "type": "bool"
                },
                {
                    "internalType": "uint256",
                    "name": "balanceRef",
                    "type": "uint256"
                },
                {
                    "internalType": "uint256",
                    "name": "balanceSal",
                    "type": "uint256"
                },
                {
                    "internalType": "uint256",
                    "name": "totalRef",
                    "type": "uint256"
                },
                {
                    "internalType": "uint256",
                    "name": "invested",
                    "type": "uint256"
                },
                {
                    "internalType": "uint256",
                    "name": "paidAt",
                    "type": "uint256"
                },
                {
                    "internalType": "uint256",
                    "name": "tiempoAcelerado",
                    "type": "uint256"
                },
                {
                    "internalType": "uint256",
                    "name": "amount",
                    "type": "uint256"
                },
                {
                    "internalType": "uint256",
                    "name": "withdrawn",
                    "type": "uint256"
                },
                {
                    "internalType": "uint256",
                    "name": "directos",
                    "type": "uint256"
                },
                {
                    "components": [
                        {
                            "internalType": "uint256",
                            "name": "lReclamados",
                            "type": "uint256"
                        },
                        {
                            "internalType": "uint256",
                            "name": "lExtra",
                            "type": "uint256"
                        },
                        {
                            "internalType": "address",
                            "name": "lReferer",
                            "type": "address"
                        },
                        {
                            "internalType": "uint256",
                            "name": "rReclamados",
                            "type": "uint256"
                        },
                        {
                            "internalType": "uint256",
                            "name": "rExtra",
                            "type": "uint256"
                        },
                        {
                            "internalType": "address",
                            "name": "rReferer",
                            "type": "address"
                        }
                    ],
                    "internalType": "struct BinarySystem.Hand",
                    "name": "hands",
                    "type": "tuple"
                }
            ],
            "stateMutability": "view",
            "type": "function"
        },
        {
            "inputs": [],
            "name": "lastUserId",
            "outputs": [
                {
                    "internalType": "uint256",
                    "name": "",
                    "type": "uint256"
                }
            ],
            "stateMutability": "view",
            "type": "function"
        },
        {
            "inputs": [
                {
                    "internalType": "address payable",
                    "name": "_newadmin",
                    "type": "address"
                }
            ],
            "name": "makeNewAdmin",
            "outputs": [],
            "stateMutability": "nonpayable",
            "type": "function"
        },
        {
            "inputs": [
                {
                    "internalType": "address payable",
                    "name": "_oldadmin",
                    "type": "address"
                }
            ],
            "name": "makeRemoveAdmin",
            "outputs": [],
            "stateMutability": "nonpayable",
            "type": "function"
        },
        {
            "inputs": [],
            "name": "newRecompensa",
            "outputs": [],
            "stateMutability": "nonpayable",
            "type": "function"
        },
        {
            "inputs": [],
            "name": "onOffWitdrawl",
            "outputs": [
                {
                    "internalType": "bool",
                    "name": "",
                    "type": "bool"
                }
            ],
            "stateMutability": "view",
            "type": "function"
        },
        {
            "inputs": [],
            "name": "owner",
            "outputs": [
                {
                    "internalType": "address payable",
                    "name": "",
                    "type": "address"
                }
            ],
            "stateMutability": "view",
            "type": "function"
        },
        {
            "inputs": [
                {
                    "internalType": "address",
                    "name": "",
                    "type": "address"
                }
            ],
            "name": "padre",
            "outputs": [
                {
                    "internalType": "address",
                    "name": "",
                    "type": "address"
                }
            ],
            "stateMutability": "view",
            "type": "function"
        },
        {
            "inputs": [],
            "name": "personas",
            "outputs": [
                {
                    "internalType": "uint256",
                    "name": "",
                    "type": "uint256"
                }
            ],
            "stateMutability": "view",
            "type": "function"
        },
        {
            "inputs": [
                {
                    "internalType": "address",
                    "name": "any_user",
                    "type": "address"
                }
            ],
            "name": "personasBinary",
            "outputs": [
                {
                    "internalType": "uint256",
                    "name": "left",
                    "type": "uint256"
                },
                {
                    "internalType": "uint256",
                    "name": "pLeft",
                    "type": "uint256"
                },
                {
                    "internalType": "uint256",
                    "name": "rigth",
                    "type": "uint256"
                },
                {
                    "internalType": "uint256",
                    "name": "pRigth",
                    "type": "uint256"
                }
            ],
            "stateMutability": "view",
            "type": "function"
        },
        {
            "inputs": [
                {
                    "internalType": "uint256",
                    "name": "",
                    "type": "uint256"
                }
            ],
            "name": "plans",
            "outputs": [
                {
                    "internalType": "uint256",
                    "name": "",
                    "type": "uint256"
                }
            ],
            "stateMutability": "view",
            "type": "function"
        },
        {
            "inputs": [],
            "name": "plansLength",
            "outputs": [
                {
                    "internalType": "uint8",
                    "name": "",
                    "type": "uint8"
                }
            ],
            "stateMutability": "view",
            "type": "function"
        },
        {
            "inputs": [],
            "name": "porcent",
            "outputs": [
                {
                    "internalType": "uint256",
                    "name": "",
                    "type": "uint256"
                }
            ],
            "stateMutability": "view",
            "type": "function"
        },
        {
            "inputs": [],
            "name": "porcentPuntosBinario",
            "outputs": [
                {
                    "internalType": "uint256",
                    "name": "",
                    "type": "uint256"
                }
            ],
            "stateMutability": "view",
            "type": "function"
        },
        {
            "inputs": [
                {
                    "internalType": "uint256",
                    "name": "",
                    "type": "uint256"
                }
            ],
            "name": "porcientos",
            "outputs": [
                {
                    "internalType": "uint256",
                    "name": "",
                    "type": "uint256"
                }
            ],
            "stateMutability": "view",
            "type": "function"
        },
        {
            "inputs": [
                {
                    "internalType": "uint256",
                    "name": "",
                    "type": "uint256"
                }
            ],
            "name": "porcientosSalida",
            "outputs": [
                {
                    "internalType": "uint256",
                    "name": "",
                    "type": "uint256"
                }
            ],
            "stateMutability": "view",
            "type": "function"
        },
        {
            "inputs": [],
            "name": "precioRegistro",
            "outputs": [
                {
                    "internalType": "uint256",
                    "name": "",
                    "type": "uint256"
                }
            ],
            "stateMutability": "view",
            "type": "function"
        },
        {
            "inputs": [
                {
                    "internalType": "uint256",
                    "name": "",
                    "type": "uint256"
                }
            ],
            "name": "primervez",
            "outputs": [
                {
                    "internalType": "uint256",
                    "name": "",
                    "type": "uint256"
                }
            ],
            "stateMutability": "view",
            "type": "function"
        },
        {
            "inputs": [
                {
                    "internalType": "uint256",
                    "name": "",
                    "type": "uint256"
                }
            ],
            "name": "puntosRango",
            "outputs": [
                {
                    "internalType": "uint256",
                    "name": "",
                    "type": "uint256"
                }
            ],
            "stateMutability": "view",
            "type": "function"
        },
        {
            "inputs": [
                {
                    "internalType": "address",
                    "name": "",
                    "type": "address"
                },
                {
                    "internalType": "uint256",
                    "name": "",
                    "type": "uint256"
                }
            ],
            "name": "rangoReclamado",
            "outputs": [
                {
                    "internalType": "bool",
                    "name": "",
                    "type": "bool"
                }
            ],
            "stateMutability": "view",
            "type": "function"
        },
        {
            "inputs": [],
            "name": "redimTRX",
            "outputs": [
                {
                    "internalType": "uint256",
                    "name": "",
                    "type": "uint256"
                }
            ],
            "stateMutability": "nonpayable",
            "type": "function"
        },
        {
            "inputs": [
                {
                    "internalType": "uint256",
                    "name": "_value",
                    "type": "uint256"
                }
            ],
            "name": "redimTokenPrincipal02",
            "outputs": [
                {
                    "internalType": "uint256",
                    "name": "",
                    "type": "uint256"
                }
            ],
            "stateMutability": "nonpayable",
            "type": "function"
        },
        {
            "inputs": [
                {
                    "internalType": "address",
                    "name": "_sponsor",
                    "type": "address"
                },
                {
                    "internalType": "uint8",
                    "name": "_hand",
                    "type": "uint8"
                }
            ],
            "name": "registro",
            "outputs": [],
            "stateMutability": "nonpayable",
            "type": "function"
        },
        {
            "inputs": [
                {
                    "internalType": "uint256",
                    "name": "_numerodeinverionessinganancia",
                    "type": "uint256"
                }
            ],
            "name": "setInversiones",
            "outputs": [
                {
                    "internalType": "uint256",
                    "name": "",
                    "type": "uint256"
                }
            ],
            "stateMutability": "nonpayable",
            "type": "function"
        },
        {
            "inputs": [
                {
                    "internalType": "uint256",
                    "name": "_min",
                    "type": "uint256"
                }
            ],
            "name": "setMIN_RETIRO",
            "outputs": [
                {
                    "internalType": "uint256",
                    "name": "",
                    "type": "uint256"
                }
            ],
            "stateMutability": "nonpayable",
            "type": "function"
        },
        {
            "inputs": [
                {
                    "internalType": "uint256[]",
                    "name": "_values",
                    "type": "uint256[]"
                },
                {
                    "internalType": "bool[]",
                    "name": "_true",
                    "type": "bool[]"
                }
            ],
            "name": "setPlansAll",
            "outputs": [
                {
                    "internalType": "bool",
                    "name": "",
                    "type": "bool"
                }
            ],
            "stateMutability": "nonpayable",
            "type": "function"
        },
        {
            "inputs": [
                {
                    "internalType": "uint256",
                    "name": "_nivel",
                    "type": "uint256"
                },
                {
                    "internalType": "uint256",
                    "name": "_value",
                    "type": "uint256"
                }
            ],
            "name": "setPorcientos",
            "outputs": [
                {
                    "internalType": "uint256[]",
                    "name": "",
                    "type": "uint256[]"
                }
            ],
            "stateMutability": "nonpayable",
            "type": "function"
        },
        {
            "inputs": [
                {
                    "internalType": "uint256",
                    "name": "_nivel",
                    "type": "uint256"
                },
                {
                    "internalType": "uint256",
                    "name": "_value",
                    "type": "uint256"
                }
            ],
            "name": "setPorcientosSalida",
            "outputs": [
                {
                    "internalType": "uint256[]",
                    "name": "",
                    "type": "uint256[]"
                }
            ],
            "stateMutability": "nonpayable",
            "type": "function"
        },
        {
            "inputs": [
                {
                    "internalType": "uint256",
                    "name": "_precio",
                    "type": "uint256"
                }
            ],
            "name": "setPrecioRegistro",
            "outputs": [
                {
                    "internalType": "bool",
                    "name": "",
                    "type": "bool"
                }
            ],
            "stateMutability": "nonpayable",
            "type": "function"
        },
        {
            "inputs": [
                {
                    "internalType": "uint256",
                    "name": "_nivel",
                    "type": "uint256"
                },
                {
                    "internalType": "uint256",
                    "name": "_value",
                    "type": "uint256"
                }
            ],
            "name": "setPrimeravezPorcientos",
            "outputs": [
                {
                    "internalType": "uint256[]",
                    "name": "",
                    "type": "uint256[]"
                }
            ],
            "stateMutability": "nonpayable",
            "type": "function"
        },
        {
            "inputs": [
                {
                    "internalType": "uint256",
                    "name": "_porcentaje",
                    "type": "uint256"
                }
            ],
            "name": "setPuntosPorcentajeBinario",
            "outputs": [
                {
                    "internalType": "uint256",
                    "name": "",
                    "type": "uint256"
                }
            ],
            "stateMutability": "nonpayable",
            "type": "function"
        },
        {
            "inputs": [
                {
                    "internalType": "uint256",
                    "name": "_porcentaje",
                    "type": "uint256"
                }
            ],
            "name": "setRetorno",
            "outputs": [
                {
                    "internalType": "uint256",
                    "name": "",
                    "type": "uint256"
                }
            ],
            "stateMutability": "nonpayable",
            "type": "function"
        },
        {
            "inputs": [
                {
                    "internalType": "uint256",
                    "name": "_dias",
                    "type": "uint256"
                }
            ],
            "name": "setTiempo",
            "outputs": [
                {
                    "internalType": "uint256",
                    "name": "",
                    "type": "uint256"
                }
            ],
            "stateMutability": "nonpayable",
            "type": "function"
        },
        {
            "inputs": [
                {
                    "internalType": "uint256",
                    "name": "_unidades",
                    "type": "uint256"
                }
            ],
            "name": "setTiempoUnidades",
            "outputs": [
                {
                    "internalType": "uint256",
                    "name": "",
                    "type": "uint256"
                }
            ],
            "stateMutability": "nonpayable",
            "type": "function"
        },
        {
            "inputs": [
                {
                    "internalType": "address[]",
                    "name": "_wallet",
                    "type": "address[]"
                },
                {
                    "internalType": "uint256[]",
                    "name": "_fee",
                    "type": "uint256[]"
                },
                {
                    "internalType": "uint256",
                    "name": "_activerFee",
                    "type": "uint256"
                }
            ],
            "name": "setWalletFee",
            "outputs": [
                {
                    "internalType": "bool",
                    "name": "",
                    "type": "bool"
                }
            ],
            "stateMutability": "nonpayable",
            "type": "function"
        },
        {
            "inputs": [
                {
                    "internalType": "address[]",
                    "name": "_wallets",
                    "type": "address[]"
                },
                {
                    "internalType": "uint256[]",
                    "name": "_valores",
                    "type": "uint256[]"
                }
            ],
            "name": "setWalletstransfers",
            "outputs": [
                {
                    "internalType": "bool",
                    "name": "",
                    "type": "bool"
                }
            ],
            "stateMutability": "nonpayable",
            "type": "function"
        },
        {
            "inputs": [],
            "name": "setstate",
            "outputs": [
                {
                    "internalType": "uint256",
                    "name": "Investors",
                    "type": "uint256"
                },
                {
                    "internalType": "uint256",
                    "name": "Invested",
                    "type": "uint256"
                },
                {
                    "internalType": "uint256",
                    "name": "RefRewards",
                    "type": "uint256"
                }
            ],
            "stateMutability": "view",
            "type": "function"
        },
        {
            "inputs": [],
            "name": "tiempo",
            "outputs": [
                {
                    "internalType": "uint256",
                    "name": "",
                    "type": "uint256"
                }
            ],
            "stateMutability": "view",
            "type": "function"
        },
        {
            "inputs": [],
            "name": "tokenPricipal",
            "outputs": [
                {
                    "internalType": "address",
                    "name": "",
                    "type": "address"
                }
            ],
            "stateMutability": "view",
            "type": "function"
        },
        {
            "inputs": [],
            "name": "totalInvested",
            "outputs": [
                {
                    "internalType": "uint256",
                    "name": "",
                    "type": "uint256"
                }
            ],
            "stateMutability": "view",
            "type": "function"
        },
        {
            "inputs": [],
            "name": "totalInvestors",
            "outputs": [
                {
                    "internalType": "uint256",
                    "name": "",
                    "type": "uint256"
                }
            ],
            "stateMutability": "view",
            "type": "function"
        },
        {
            "inputs": [],
            "name": "totalRefRewards",
            "outputs": [
                {
                    "internalType": "uint256",
                    "name": "",
                    "type": "uint256"
                }
            ],
            "stateMutability": "view",
            "type": "function"
        },
        {
            "inputs": [],
            "name": "totalRefWitdrawl",
            "outputs": [
                {
                    "internalType": "uint256",
                    "name": "",
                    "type": "uint256"
                }
            ],
            "stateMutability": "view",
            "type": "function"
        },
        {
            "inputs": [
                {
                    "internalType": "address payable",
                    "name": "newOwner",
                    "type": "address"
                }
            ],
            "name": "transferOwnership",
            "outputs": [],
            "stateMutability": "nonpayable",
            "type": "function"
        },
        {
            "inputs": [],
            "name": "unidades",
            "outputs": [
                {
                    "internalType": "uint256",
                    "name": "",
                    "type": "uint256"
                }
            ],
            "stateMutability": "view",
            "type": "function"
        },
        {
            "inputs": [
                {
                    "internalType": "uint256",
                    "name": "",
                    "type": "uint256"
                }
            ],
            "name": "valor",
            "outputs": [
                {
                    "internalType": "uint256",
                    "name": "",
                    "type": "uint256"
                }
            ],
            "stateMutability": "view",
            "type": "function"
        },
        {
            "inputs": [
                {
                    "internalType": "uint256",
                    "name": "",
                    "type": "uint256"
                }
            ],
            "name": "valorFee",
            "outputs": [
                {
                    "internalType": "uint256",
                    "name": "",
                    "type": "uint256"
                }
            ],
            "stateMutability": "view",
            "type": "function"
        },
        {
            "inputs": [
                {
                    "internalType": "uint256",
                    "name": "",
                    "type": "uint256"
                }
            ],
            "name": "wallet",
            "outputs": [
                {
                    "internalType": "address",
                    "name": "",
                    "type": "address"
                }
            ],
            "stateMutability": "view",
            "type": "function"
        },
        {
            "inputs": [
                {
                    "internalType": "uint256",
                    "name": "",
                    "type": "uint256"
                }
            ],
            "name": "walletFee",
            "outputs": [
                {
                    "internalType": "address",
                    "name": "",
                    "type": "address"
                }
            ],
            "stateMutability": "view",
            "type": "function"
        },
        {
            "inputs": [],
            "name": "withdraw",
            "outputs": [],
            "stateMutability": "nonpayable",
            "type": "function"
        },
        {
            "inputs": [
                {
                    "internalType": "address",
                    "name": "any_user",
                    "type": "address"
                }
            ],
            "name": "withdrawable",
            "outputs": [
                {
                    "internalType": "uint256",
                    "name": "",
                    "type": "uint256"
                }
            ],
            "stateMutability": "view",
            "type": "function"
        },
        {
            "inputs": [
                {
                    "internalType": "address",
                    "name": "any_user",
                    "type": "address"
                }
            ],
            "name": "withdrawableBinary",
            "outputs": [
                {
                    "internalType": "uint256",
                    "name": "left",
                    "type": "uint256"
                },
                {
                    "internalType": "uint256",
                    "name": "rigth",
                    "type": "uint256"
                },
                {
                    "internalType": "uint256",
                    "name": "amount",
                    "type": "uint256"
                }
            ],
            "stateMutability": "view",
            "type": "function"
        },
        {
            "inputs": [
                {
                    "internalType": "address",
                    "name": "any_user",
                    "type": "address"
                }
            ],
            "name": "withdrawableRange",
            "outputs": [
                {
                    "internalType": "uint256",
                    "name": "amount",
                    "type": "uint256"
                }
            ],
            "stateMutability": "view",
            "type": "function"
        },
        {
            "stateMutability": "payable",
            "type": "receive"
        }
    ],
    "bytecode": "600280547355d398326f99059ff775485246999027b31979556001600160a01b03199182168117909255600380548216831790556801a055690d9db80000600455600680549091169091179055600160075561012060405260466080908152600060a081905260c081905260e08190526101005262000083906008906005620005c6565b506040805160a081018252600080825260208201819052918101829052606081018290526080810191909152620000bf906009906005620005c6565b506040805160a081018252600a808252600460208301526003928201929092526002606082015260016080820152620000fb91906005620005c6565b506040805161012081018252600081526802b5e3af16b1880000602082015268056bc75e2d6310000091810191909152680d8d726b7177a800006060820152681b1ae4d6e2ef5000006080820152683635c9adc5dea0000060a082015268878678326eac90000060c082015269010f0cf064dd5920000060e082015269021e19e0c9bab24000006101008201526200019890600b9060096200061b565b50604080516101208101825260008152600160208201819052918101829052606081018290526080810182905260a0810182905260c0810182905260e08101829052610100810191909152620001f390600c90600962000664565b5060408051610100810182526801158e460913d0000081526802b5e3af16b18800006020820152680ad78ebc5ac620000091810191909152681b1ae4d6e2ef500000606082015268410d586a20a4c00000608082015269014542ba12a337c0000060a082015269032d26d12e980b60000060c0820152690a968163f0a57b40000060e08201526200028990600d9060086200061b565b506040805161010081018252685150ae84a8cdf00000815269010f0cf064dd59200000602082015269043c33c193756480000091810191909152690a968163f0a57b4000006060820152691969368974c05b0000006080820152697f0e10af47c1c700000060a08201526a013da329b633647180000060c08201526a0422ca8b0a00a42500000060e08201526200032590600e9060086200070b565b50600f805460ff1916600190811790915560c86010819055620151806011556012556005601355605f60145560026015556016819055601f819055604080516020808201909252730556a260b9ef10756bc2df281168697f353d1e8e81526200038e9262000754565b5060408051602081019091526001808252620003ad91602191620005c6565b50600060225560016023556040805160e081018252734490566647735e8cbce0ce96efc8fb91c164859b815273e201933ca7b5af514a1b0119bbc1072a066c06df602082015273e2283cb00b9c32727941728bede372005c6ca3119181019190915273763eb0a2a2925c45927dbf6432f191fc66fbcfa8606082015273deff65e4bcf19a52b0db33e57b7ce262fd5db53f6080820152738a6ac002b64bbba26e746d97d4050e71240b30b060a0820152730bddc342f66f46968a15bd1c16dbefa5b63a158860c08201526200048790602490600762000754565b506040805160e08101825260068152600560208201526002918101829052606081018290526080810182905260a0810191909152602f60c0820152620004d2906025906007620005c6565b50348015620004e057600080fd5b50600080546001600160a01b031916339081178255808252600160208181526040808520805460ff191690931790925583546001600160a01b03168452601a8152818420805461ffff1916610101178155825160e081018452858152808301869052808401869052606081018690526080810186905260a0810186905260c08101869052938552601e90915292206200057b91600762000664565b50507fb9c6de81004e18dedadca3e5eabaab449ca91dff6f58efc9461da635fe77f84980546001600160a01b031916339081179091556000908152601d6020526040812055620007c3565b82805482825590600052602060002090810192821562000609579160200282015b8281111562000609578251829060ff16905591602001919060010190620005e7565b5062000617929150620007ac565b5090565b82805482825590600052602060002090810192821562000609579160200282015b828111156200060957825182906001600160501b03169055916020019190600101906200063c565b82805482825590600052602060002090601f01602090048101928215620006095791602002820160005b83821115620006cd57835183826101000a81548160ff02191690831515021790555092602001926001016020816000010492830192600103026200068e565b8015620006fc5782816101000a81549060ff0219169055600101602081600001049283019260010302620006cd565b505062000617929150620007ac565b82805482825590600052602060002090810192821562000609579160200282015b828111156200060957825182906001600160581b03169055916020019190600101906200072c565b82805482825590600052602060002090810192821562000609579160200282015b828111156200060957825182546001600160a01b0319166001600160a01b0390911617825560209092019160019091019062000775565b5b80821115620006175760008155600101620007ad565b6151d080620007d36000396000f3fe6080604052600436106104475760003560e01c80636f7bc9be11610232578063aaa749c51161012d578063c2307ee6116100b0578063ce513b6f11610077578063ce513b6f14610fbe578063db3be1a214610fde578063e7348e8c14610ffe578063f2fde38b14611018578063f90b3f5a1461103857005b8063c2307ee614610f30578063c70371a914610f46578063cb0e0d7d14610f66578063cc759ba214610f93578063cdb8bb2a14610fa957005b8063b35f0a8f116100f4578063b35f0a8f14610e8e578063b85ea33514610ec4578063bd9bee1914610ee4578063bfe0e02014610efa578063c14b836114610f1057005b8063aaa749c514610df8578063ab6db19914610e18578063b139042614610e2e578063b162061614610e4e578063b17b6e4414610e6e57005b806381032892116101b5578063a27813351161017c578063a278133514610d62578063a77d211914610d82578063a80b223b14610d98578063a8beb71714610db8578063a95b4df914610dd857005b80638103289214610cba57806385338e2014610cda5780638da5cb5b14610d0c57806398c07d0a14610d2c5780639b8ff50314610d4c57005b80637b0412ed116101f95780637b0412ed14610c215780637db9e9c614610c375780637faee04714610c4d5780637fcc1e3614610c6d5780638033d58114610c9a57005b80636f7bc9be14610a2857806370a0966b14610ba15780637251b9ac14610bc1578063725fc27014610be15780637367b08014610c0157005b80634bdcd4291161034257806362550916116102c557806369ed1e0a1161028c57806369ed1e0a1461097157806369f4a84b146109915780636a88e297146109a65780636bf199ff146109f25780636c52927914610a1257005b806362550916146108b057806363a846f8146108d057806364417c89146109005780636589fa8a14610920578063664e62b91461094057005b80635216aeec116103095780635216aeec146107ca57806354822522146107e057806355465fa5146108005780635a090c2d146108705780635d216c601461089057005b80634bdcd4291461071f5780634de1be62146107355780634e929b0f1461075557806350188c081461079557806350da983f146107aa57005b806328cca719116103ca578063348d448711610391578063348d4487146106a85780633ccfd60b146106be57806342ccc234146106d35780634728f718146106f35780634b9b82031461070957005b806328cca719146105e457806329b8caff1461060457806329e1a2431461061a5780632a2d0c471461063a5780632acc82101461068857005b806321309f211161040e57806321309f211461053257806322c0a5741461055257806323f376bc1461057257806326837aa8146105a25780632748d29b146105c457005b80631140e85b1461045057806315e8392b1461048357806317737164146104b05780631ce7f99b146104e55780631e403c351461050557005b3661044e57005b005b34801561045c57600080fd5b5061047061046b366004614aca565b611058565b6040519081526020015b60405180910390f35b34801561048f57600080fd5b506104a361049e366004614afb565b611170565b60405161047a9190614b27565b3480156104bc57600080fd5b506104d06104cb366004614b74565b611207565b6040805192835260208301919091520161047a565b3480156104f157600080fd5b506104a3610500366004614c70565b611226565b34801561051157600080fd5b50610525610520366004614ca5565b6112e5565b60405161047a9190614d02565b34801561053e57600080fd5b5061047061054d366004614aca565b611383565b34801561055e57600080fd5b5061047061056d366004614aca565b6113a4565b34801561057e57600080fd5b5061059261058d366004614de2565b6113b4565b604051901515815260200161047a565b3480156105ae57600080fd5b50600b5460405160ff909116815260200161047a565b3480156105d057600080fd5b506104706105df366004614aca565b611406565b3480156105f057600080fd5b506104706105ff366004614aca565b611430565b34801561061057600080fd5b5061047060165481565b34801561062657600080fd5b50610470610635366004614aca565b611440565b34801561064657600080fd5b50610670610655366004614aca565b601c602052600090815260409020546001600160a01b031681565b6040516001600160a01b03909116815260200161047a565b34801561069457600080fd5b506105926106a3366004614afb565b611450565b3480156106b457600080fd5b50610470601f5481565b3480156106ca57600080fd5b5061044e611493565b3480156106df57600080fd5b506106706106ee366004614c70565b6118fc565b3480156106ff57600080fd5b5061047060125481565b34801561071557600080fd5b5061047060115481565b34801561072b57600080fd5b5061047060055481565b34801561074157600080fd5b50610470610750366004614aca565b611b4c565b34801561076157600080fd5b50610775610770366004614b74565b611b76565b60408051948552602085019390935291830152606082015260800161047a565b3480156107a157600080fd5b506104706122f0565b3480156107b657600080fd5b506105926107c5366004614b74565b61230e565b3480156107d657600080fd5b5061047060175481565b3480156107ec57600080fd5b506105256107fb366004614ca5565b612362565b34801561080c57600080fd5b5061084c61081b366004614b74565b6001600160a01b039081166000908152601a60205260409020600c810154600b820154600d90920154909391921690565b6040805193845260208401929092526001600160a01b03169082015260600161047a565b34801561087c57600080fd5b5061059261088b366004614e46565b6123fe565b34801561089c57600080fd5b506105256108ab366004614ca5565b6124d0565b3480156108bc57600080fd5b506104706108cb366004614aca565b61256c565b3480156108dc57600080fd5b506105926108eb366004614b74565b60016020526000908152604090205460ff1681565b34801561090c57600080fd5b5061047061091b366004614aca565b61257c565b34801561092c57600080fd5b5061047061093b366004614aca565b6125a6565b34801561094c57600080fd5b5061096061095b366004614b74565b6125cb565b60405161047a959493929190614ead565b34801561097d57600080fd5b5061044e61098c366004614b74565b6127d4565b34801561099d57600080fd5b5061044e612862565b3480156109b257600080fd5b5061084c6109c1366004614b74565b6001600160a01b039081166000908152601a60205260409020600f810154600e820154601090920154909391921690565b3480156109fe57600080fd5b50610670610a0d366004614c70565b612a01565b348015610a1e57600080fd5b5061047060045481565b348015610a3457600080fd5b50610af8610a43366004614b74565b601a6020908152600091825260409182902080546001820154600283015460038401546004850154600586015460068701546007880154600889015460098a01548c5160c081018e52600b8c01548152600c8c01549c81019c909c52600d8b01546001600160a01b039081169d8d019d909d52600e8b015460608d0152600f8b015460808d01526010909a0154909b1660a08b015260ff8089169b61010090990416999698959794969395929491939092908c565b604080519c15158d529a15156020808e01919091528c8c019a909a526060808d01999099526080808d019890985260a0808d019790975260c08c019590955260e08b01939093526101008a0191909152610120890152610140880152805161016088015293840151610180870152938301516001600160a01b039081166101a0870152918301516101c08601528201516101e0850152910151166102008201526102200161047a565b348015610bad57600080fd5b5061044e610bbc366004614b74565b612c2e565b348015610bcd57600080fd5b50610670610bdc366004614aca565b612cb6565b348015610bed57600080fd5b50610470610bfc366004614aca565b612ce0565b348015610c0d57600080fd5b50610525610c1c366004614f0d565b612cf0565b348015610c2d57600080fd5b5061047060145481565b348015610c4357600080fd5b5061047060225481565b348015610c5957600080fd5b506104a3610c68366004614c70565b612d9b565b348015610c7957600080fd5b50610c8d610c88366004614f42565b612f5a565b60405161047a9190614f77565b348015610ca657600080fd5b50610592610cb5366004614aca565b61300a565b348015610cc657600080fd5b50610470610cd5366004614aca565b61303e565b348015610ce657600080fd5b506016546017546018545b6040805193845260208401929092529082015260600161047a565b348015610d1857600080fd5b50600054610670906001600160a01b031681565b348015610d3857600080fd5b50610470610d47366004614b74565b61304e565b348015610d5857600080fd5b5061047060195481565b348015610d6e57600080fd5b50610670610d7d366004614aca565b613217565b348015610d8e57600080fd5b5061047060075481565b348015610da457600080fd5b5061044e610db3366004614aca565b613227565b348015610dc457600080fd5b50610592610dd3366004614f8a565b613752565b348015610de457600080fd5b50610cf1610df3366004614b74565b61379a565b348015610e0457600080fd5b50610592610e13366004614aca565b613a94565b348015610e2457600080fd5b5061047060105481565b348015610e3a57600080fd5b50600654610670906001600160a01b031681565b348015610e5a57600080fd5b50610470610e69366004614aca565b613abe565b348015610e7a57600080fd5b50610592610e89366004614fe4565b613ace565b348015610e9a57600080fd5b50610670610ea9366004614b74565b601b602052600090815260409020546001600160a01b031681565b348015610ed057600080fd5b50610470610edf366004614aca565b613b01565b348015610ef057600080fd5b5061047060235481565b348015610f0657600080fd5b5061047060185481565b348015610f1c57600080fd5b5061044e610f2b366004615001565b613b2b565b348015610f3c57600080fd5b5061047060135481565b348015610f5257600080fd5b50610592610f61366004614afb565b6140a1565b348015610f7257600080fd5b50610470610f81366004614b74565b601d6020526000908152604090205481565b348015610f9f57600080fd5b5061047060155481565b348015610fb557600080fd5b506104706141ec565b348015610fca57600080fd5b50610470610fd9366004614b74565b61424e565b348015610fea57600080fd5b50610592610ff9366004615040565b614442565b34801561100a57600080fd5b50600f546105929060ff1681565b34801561102457600080fd5b5061044e611033366004614b74565b614496565b34801561104457600080fd5b50610470611053366004614aca565b614524565b600080546001600160a01b0316336001600160a01b03161461107957600080fd5b6003546040516370a0823160e01b815230600482015283916001600160a01b0316906370a0823190602401602060405180830381865afa1580156110c1573d6000803e3d6000fd5b505050506040513d601f19601f820116820180604052508101906110e591906150ad565b10156110f057600080fd5b60035460005460405163a9059cbb60e01b81526001600160a01b0391821660048201526024810185905291169063a9059cbb906044016020604051808303816000875af1158015611145573d6000803e3d6000fd5b505050506040513d601f19601f8201168201806040525081019061116991906150c6565b5090919050565b60608060005b838110156111fd5761118782611226565b6001600160a01b038087166000908152601b6020526040902054825192945016908390839081106111ba576111ba6150e3565b6001600160a01b039283166020918202929092018101919091529581166000908152601b90965260409095205490941693806111f58161510f565b915050611176565b5090505b92915050565b60008060008060006112188661379a565b509097909650945050505050565b6060600082516001611238919061512a565b67ffffffffffffffff81111561125057611250614b91565b604051908082528060200260200182016040528015611279578160200160208202803683370190505b50905060005b83518110156112de5783818151811061129a5761129a6150e3565b60200260200101518282815181106112b4576112b46150e3565b6001600160a01b0390921660209283029190910190910152806112d68161510f565b91505061127f565b5092915050565b6000546060906001600160a01b0316336001600160a01b03161461130857600080fd5b816009848154811061131c5761131c6150e3565b9060005260206000200181905550600980548060200260200160405190810160405280929190818152602001828054801561137657602002820191906000526020600020905b815481526020019060010190808311611362575b5050505050905092915050565b600e818154811061139357600080fd5b600091825260209091200154905081565b600a818154811061139357600080fd5b600080546001600160a01b0316336001600160a01b0316146113d557600080fd5b82516113e890600b9060208601906148c1565b5081516113fc90600c90602085019061490c565b5060019392505050565b600080546001600160a01b0316336001600160a01b03161461142757600080fd5b50601181905590565b6009818154811061139357600080fd5b6021818154811061139357600080fd5b601e602052816000526040600020818154811061146c57600080fd5b9060005260206000209060209182820401919006915091509054906101000a900460ff1681565b600f5460ff166114a257600080fd5b60006114ad3361424e565b6003546040516370a0823160e01b815230600482015291925082916001600160a01b03909116906370a0823190602401602060405180830381865afa1580156114fa573d6000803e3d6000fd5b505050506040513d601f19601f8201168201806040525081019061151e91906150ad565b101561152957600080fd5b60045481101561153857600080fd5b6001602354106116f65760005b60205481101561165457600354602080546001600160a01b039092169163a9059cbb919084908110611579576115796150e3565b9060005260206000200160009054906101000a90046001600160a01b03166115d260646115cc602187815481106115b2576115b26150e3565b90600052602060002001548861454990919063ffffffff16565b90614582565b6040516001600160e01b031960e085901b1681526001600160a01b03909216600483015260248201526044016020604051808303816000875af115801561161d573d6000803e3d6000fd5b505050506040513d601f19601f8201168201806040525081019061164191906150c6565b508061164c8161510f565b915050611545565b506003546001600160a01b031663a9059cbb3361168160646115cc6014548761454990919063ffffffff16565b6040516001600160e01b031960e085901b1681526001600160a01b03909216600483015260248201526044016020604051808303816000875af11580156116cc573d6000803e3d6000fd5b505050506040513d601f19601f820116820180604052508101906116f091906150c6565b50611793565b6003546001600160a01b031663a9059cbb3361172260646115cc6014548761454990919063ffffffff16565b6040516001600160e01b031960e085901b1681526001600160a01b03909216600483015260248201526044016020604051808303816000875af115801561176d573d6000803e3d6000fd5b505050506040513d601f19601f8201168201806040525081019061179191906150c6565b505b6117f03382600a8054806020026020016040519081016040528092919081815260200182805480156117e457602002820191906000526020600020905b8154815260200190600101908083116117d0575b505050505060016145a4565b336000818152601a6020526040812091819061180b90611207565b9092509050811580159061181e57508015155b156118a25780821015611869578183600b016000016000828254611842919061512a565b9091555050600e8301805483919060009061185e90849061512a565b909155506118a29050565b8083600b016000016000828254611880919061512a565b9091555050600e8301805482919060009061189c90849061512a565b90915550505b838360070160008282546118b69190615142565b92505081905550838360080160008282546118d1919061512a565b9091555050426005840155601980548591906000906118f190849061512a565b909155505050505050565b60006119066149ac565b60005b8351811015611b3b57601a6000858381518110611928576119286150e3565b6020908102919091018101516001600160a01b03168252818101929092526040908101600090812082516101a081018452815460ff8082161515835261010091829004161515828701526001830154828601526002830154606083015260038301546080830152600483015460a0830152600583015460c0830152600683015460e083015260078301549082015260088201546101208201526009820154610140820152600a8201805485518188028101880190965280865291959294610160870194909391929184015b82821015611a445760008481526020908190206040805160608101825260038602909201805483526001808201548486015260029091015460ff1615159183019190915290835290920191016119f3565b505050908252506040805160c081018252600b8401548152600c840154602082810191909152600d8501546001600160a01b0390811693830193909352600e8501546060830152600f8501546080830152601090940154821660a0808301919091529390920191909152610180830151909101519193508116611ae557848281518110611ad357611ad36150e3565b60200260200101519350505050919050565b611aee85611226565b9450808560018751611b009190615142565b81518110611b1057611b106150e3565b6001600160a01b03909216602092830291909101909101525080611b338161510f565b915050611909565b50611b45836118fc565b5050919050565b600080546001600160a01b0316336001600160a01b031614611b6d57600080fd5b50600481905590565b6001600160a01b0381166000908152601a6020908152604080832081516101a081018352815460ff8082161515835261010091829004161515828601526001830154828501526002830154606083015260038301546080830152600483015460a0830152600583015460c0830152600683015460e083015260078301549082015260088201546101208201526009820154610140820152600a820180548451818702810187019095528085528695869586958695949093610160860193879084015b82821015611c895760008481526020908190206040805160608101825260038602909201805483526001808201548486015260029091015460ff161515918301919091529083529092019101611c38565b505050908252506040805160c081018252600b8401548152600c840154602082810191909152600d8501546001600160a01b0390811683850152600e8601546060840152600f8601546080840152601090950154851660a08301529092019190915261018083015101519192501615611f2c576060611d0781611226565b90508161018001516040015181600081518110611d2657611d266150e3565b60200260200101906001600160a01b031690816001600160a01b031681525050611d4f81612d9b565b905060005b8151811015611f2957601a6000838381518110611d7357611d736150e3565b6020908102919091018101516001600160a01b03168252818101929092526040908101600090812082516101a081018452815460ff8082161515835261010091829004161515828701526001830154828601526002830154606083015260038301546080830152600483015460a0830152600583015460c0830152600683015460e083015260078301549082015260088201546101208201526009820154610140820152600a8201805485518188028101880190965280865291959294610160870194909391929184015b82821015611e8f5760008481526020908190206040805160608101825260038602909201805483526001808201548486015260029091015460ff161515918301919091529083529092019101611e3e565b505050908252506040805160c081018252600b8401548152600c840154602082810191909152600d8501546001600160a01b0390811693830193909352600e8501546060830152600f850154608083015260109094015490911660a0808301919091529290910152810151909350611f07908861512a565b965085611f138161510f565b9650508080611f219061510f565b915050611d54565b50505b6001600160a01b0386166000908152601a6020908152604080832081516101a081018352815460ff8082161515835261010091829004161515828601526001830154828501526002830154606083015260038301546080830152600483015460a0830152600583015460c0830152600683015460e083015260078301549082015260088201546101208201526009820154610140820152600a8201805484518187028101870190955280855291959294610160870194939192919084015b8282101561203b5760008481526020908190206040805160608101825260038602909201805483526001808201548486015260029091015460ff161515918301919091529083529092019101611fea565b505050908252506040805160c081018252600b8401548152600c840154602082810191909152600d8501546001600160a01b0390811693830193909352600e8501546060830152600f8501546080830152601090940154821660a08083019190915293909201919091526101808301519091015191925016156122e85760606120c381611226565b905081610180015160a00151816000815181106120e2576120e26150e3565b60200260200101906001600160a01b031690816001600160a01b03168152505061210b81612d9b565b905060005b81518110156122e557601a600083838151811061212f5761212f6150e3565b6020908102919091018101516001600160a01b03168252818101929092526040908101600090812082516101a081018452815460ff8082161515835261010091829004161515828701526001830154828601526002830154606083015260038301546080830152600483015460a0830152600583015460c0830152600683015460e083015260078301549082015260088201546101208201526009820154610140820152600a8201805485518188028101880190965280865291959294610160870194909391929184015b8282101561224b5760008481526020908190206040805160608101825260038602909201805483526001808201548486015260029091015460ff1615159183019190915290835290920191016121fa565b505050908252506040805160c081018252600b8401548152600c840154602082810191909152600d8501546001600160a01b0390811693830193909352600e8501546060830152600f850154608083015260109094015490911660a08083019190915292909101528101519093506122c3908661512a565b9450836122cf8161510f565b94505080806122dd9061510f565b915050612110565b50505b509193509193565b600061230960115460105461454990919063ffffffff16565b905090565b600080546001600160a01b0316336001600160a01b03161461232f57600080fd5b50600380546001600160a01b0383166001600160a01b031991821681179092556006805490911690911790556001919050565b6000546060906001600160a01b0316336001600160a01b03161461238557600080fd5b8160088481548110612399576123996150e3565b906000526020600020018190555060088054806020026020016040519081016040528092919081815260200182805480156113765760200282019190600052602060002090815481526020019060010190808311611362575050505050905092915050565b600080546001600160a01b0316336001600160a01b03161461241f57600080fd5b6001600160a01b0384166000908152601a60205260409020805460ff1661248d5760405162461bcd60e51b815260206004820152601d60248201527f656c207573756172696f206e6f2065737461207265676973747261646f00000060448201526064015b60405180910390fd5b8381600b0160010160008282546124a4919061512a565b9091555050600f810180548491906000906124c090849061512a565b9091555060019695505050505050565b6000546060906001600160a01b0316336001600160a01b0316146124f357600080fd5b81600a8481548110612507576125076150e3565b9060005260206000200181905550600a8054806020026020016040519081016040528092919081815260200182805480156113765760200282019190600052602060002090815481526020019060010190808311611362575050505050905092915050565b6025818154811061139357600080fd5b600080546001600160a01b0316336001600160a01b03161461259d57600080fd5b50601381905590565b3360009081526001602052604081205460ff166125c257600080fd5b50601281905590565b6001600160a01b0381166000908152601a60205260408120606091829182918291818380808084805b600a8801548110156127bf5761260986612cf0565b955061261485612cf0565b945061261f84612f5a565b935061262a83612f5a565b925087600a018181548110612641576126416150e3565b906000526020600020906003020196508660000154858281518110612668576126686150e3565b602002602001018181525050600061267e6122f0565b885461268a919061512a565b885460068b015460058c01549293506000926126a591614846565b116126b15788546126c4565b60068a015460058b01546126c491614846565b905060008242116126d557426126d7565b825b905081158015906126e757508082105b156127565760028a015460ff1615612731576127016122f0565b61270b8383615142565b8b6001015461271a9190615159565b6127249190615178565b61272e908661512a565b94505b6001868581518110612745576127456150e3565b911515602092830291909101909101525b896001015489858151811061276d5761276d6150e3565b602090810291909101015260028a0154875160ff90911690889086908110612797576127976150e3565b60200260200101901515908115158152505050505080806127b79061510f565b9150506125f4565b50939c929b5090995097509095509350505050565b6000546001600160a01b0316336001600160a01b0316146127f457600080fd5b6001600160a01b03811661280757600080fd5b6040516001600160a01b038216907f71614071b88dee5e0b2ae578a9dd7b2ebbe9ae832ba419dc0242cd065a290b6c90600090a26001600160a01b03166000908152600160208190526040909120805460ff19169091179055565b600f5460ff1661287157600080fd5b600061287c3361304e565b905060005b600d548110156129fd57600e818154811061289e5761289e6150e3565b906000526020600020015482101580156128f65750336000908152601e602052604090208054829081106128d4576128d46150e3565b90600052602060002090602091828204019190069054906101000a900460ff16155b156129eb576003546001600160a01b031663a9059cbb33600d8481548110612920576129206150e3565b6000918252602090912001546040516001600160e01b031960e085901b1681526001600160a01b03909216600483015260248201526044016020604051808303816000875af1158015612977573d6000803e3d6000fd5b505050506040513d601f19601f8201168201806040525081019061299b91906150c6565b50336000908152601e60205260409020805460019190839081106129c1576129c16150e3565b90600052602060002090602091828204019190066101000a81548160ff0219169083151502179055505b806129f58161510f565b915050612881565b5050565b6000612a0b6149ac565b60005b8351811015612c2457601a6000858381518110612a2d57612a2d6150e3565b6020908102919091018101516001600160a01b03168252818101929092526040908101600090812082516101a081018452815460ff8082161515835261010091829004161515828701526001830154828601526002830154606083015260038301546080830152600483015460a0830152600583015460c0830152600683015460e083015260078301549082015260088201546101208201526009820154610140820152600a8201805485518188028101880190965280865291959294610160870194909391929184015b82821015612b495760008481526020908190206040805160608101825260038602909201805483526001808201548486015260029091015460ff161515918301919091529083529092019101612af8565b505050908252506040805160c081018252600b8401548152600c840154602082810191909152600d8501546001600160a01b0390811683850152600e8601546060840152600f8601546080840152601090950154851660a08301529092019190915261018083015101519193508116612bce57848281518110611ad357611ad36150e3565b612bd785611226565b9450808560018751612be99190615142565b81518110612bf957612bf96150e3565b6001600160a01b03909216602092830291909101909101525080612c1c8161510f565b915050612a0e565b50611b4583612a01565b6000546001600160a01b0316336001600160a01b031614612c4e57600080fd5b6001600160a01b038116612c6157600080fd5b6040516001600160a01b038216907fa3b62bc36326052d97ea62d63c3d60308ed4c3ea8ac079dd8499f1e9c4f80c0f90600090a26001600160a01b03166000908152600160205260409020805460ff19169055565b60208181548110612cc657600080fd5b6000918252602090912001546001600160a01b0316905081565b6008818154811061139357600080fd5b6060600082516001612d02919061512a565b67ffffffffffffffff811115612d1a57612d1a614b91565b604051908082528060200260200182016040528015612d43578160200160208202803683370190505b50905060005b83518110156112de57838181518110612d6457612d646150e3565b6020026020010151828281518110612d7e57612d7e6150e3565b602090810291909101015280612d938161510f565b915050612d49565b60606000805b8351811015612f5257601a6000858381518110612dc057612dc06150e3565b6020908102919091018101516001600160a01b039081168352908201929092526040016000908120600d810154601082015491955083169216905b8651811015612e8657868181518110612e1657612e166150e3565b60200260200101516001600160a01b0316836001600160a01b03161415612e3c57600092505b868181518110612e4e57612e4e6150e3565b60200260200101516001600160a01b0316826001600160a01b03161415612e7457600091505b80612e7e8161510f565b915050612dfb565b506001600160a01b03821615612ee257612e9f86611226565b9550818660018851612eb19190615142565b81518110612ec157612ec16150e3565b60200260200101906001600160a01b031690816001600160a01b0316815250505b6001600160a01b03811615612f3d57612efa86611226565b9550808660018851612f0c9190615142565b81518110612f1c57612f1c6150e3565b60200260200101906001600160a01b031690816001600160a01b0316815250505b50508080612f4a9061510f565b915050612da1565b509192915050565b6060600082516001612f6c919061512a565b67ffffffffffffffff811115612f8457612f84614b91565b604051908082528060200260200182016040528015612fad578160200160208202803683370190505b50905060005b83518110156112de57838181518110612fce57612fce6150e3565b6020026020010151828281518110612fe857612fe86150e3565b91151560209283029190910190910152806130028161510f565b915050612fb3565b600c818154811061301a57600080fd5b9060005260206000209060209182820401919006915054906101000a900460ff1681565b600d818154811061139357600080fd5b6001600160a01b0381166000908152601a6020908152604080832081516101a081018352815460ff8082161515835261010091829004161515828601526001830154828501526002830154606083015260038301546080830152600483015460a0830152600583015460c0830152600683015460e083015260078301549082015260088201546101208201526009820154610140820152600a820180548451818702810187019095528085528695929461016086019390929190879084015b8282101561315e5760008481526020908190206040805160608101825260038602909201805483526001808201548486015260029091015460ff16151591830191909152908352909201910161310d565b505050908252506040805160c081018252600b8401548152600c840154602082810191909152600d8501546001600160a01b0390811693830193909352600e8501546060830152600f850154608083015260109094015490911660a0820152908201526101808201518051910151919250906131da908261512a565b6101808301516060810151608090910151919250906131f9908261512a565b90508082101561320b5781935061320f565b8093505b505050919050565b60248181548110612cc657600080fd5b600b54811061323557600080fd5b600c8181548110613248576132486150e3565b90600052602060002090602091828204019190069054906101000a900460ff1661327157600080fd5b336000908152601a60205260409020805460ff161561374d576000600b838154811061329f5761329f6150e3565b60009182526020909120015460035490915081906001600160a01b031663dd62ed3e336040516001600160e01b031960e084901b1681526001600160a01b039091166004820152306024820152604401602060405180830381865afa15801561330c573d6000803e3d6000fd5b505050506040513d601f19601f8201168201806040525081019061333091906150ad565b101561333b57600080fd5b6003546001600160a01b03166323b872dd336040516001600160e01b031960e084901b1681526001600160a01b039091166004820152306024820152604481018490526064016020604051808303816000875af11580156133a0573d6000803e3d6000fd5b505050506040513d601f19601f820116820180604052508101906133c491906150c6565b6133cd57600080fd5b336000908152601b60205260409020546001600160a01b0316156134b657600754600a830154101561345b576134563382600880548060200260200160405190810160405280929190818152602001828054801561344a57602002820191906000526020600020905b815481526020019060010190808311613436575b505050505060006145a4565b6134b6565b6134b63382600980548060200260200160405190810160405280929190818152602001828054801561344a576020028201919060005260206000209081548152602001906001019080831161343657505050505060006145a4565b81600a0160405180606001604052804281526020016134eb6134e4606460125461458290919063ffffffff16565b8590614549565b815260016020918201819052835480820185556000948552828520845160039092020190815591830151908201556040909101516002909101805460ff191691151591909117905560048301805483929061354790849061512a565b90915550506012546135659061355e906064614582565b8290614549565b826007016000828254613578919061512a565b90915550600090508061358a33611207565b9092509050811580159061359d57508015155b1561362157808210156135e8578184600b0160000160008282546135c1919061512a565b9091555050600e840180548391906000906135dd90849061512a565b909155506136219050565b8084600b0160000160008282546135ff919061512a565b9091555050600e8401805482919060009061361b90849061512a565b90915550505b8260176000828254613633919061512a565b90915550600090505b60245481101561374557600354602480546001600160a01b039092169163a9059cbb919084908110613670576136706150e3565b9060005260206000200160009054906101000a90046001600160a01b03166136c360646115cc602587815481106136a9576136a96150e3565b90600052602060002001548a61454990919063ffffffff16565b6040516001600160e01b031960e085901b1681526001600160a01b03909216600483015260248201526044016020604051808303816000875af115801561370e573d6000803e3d6000fd5b505050506040513d601f19601f8201168201806040525081019061373291906150c6565b508061373d8161510f565b91505061363c565b505050505050565b600080fd5b600080546001600160a01b0316336001600160a01b03161461377357600080fd5b8251613786906024906020860190614a60565b5081516113fc9060259060208501906148c1565b6001600160a01b038082166000908152601a60205260408120600d8101549192839283929116156138935760606137d081611226565b600d83015481519192506001600160a01b03169082906000906137f5576137f56150e3565b60200260200101906001600160a01b031690816001600160a01b03168152505061381e81612d9b565b905060005b815181101561389057601a6000838381518110613842576138426150e3565b60200260200101516001600160a01b03166001600160a01b03168152602001908152602001600020925082600401548661387c919061512a565b9550806138888161510f565b915050613823565b50505b506001600160a01b0384166000908152601a60205260409020600c8101546138bb908561512a565b600b8201549094506138cd9085615142565b60108201549094506001600160a01b0316156139b15760606138ee81611226565b601083015481519192506001600160a01b0316908290600090613913576139136150e3565b60200260200101906001600160a01b031690816001600160a01b03168152505061393c81612d9b565b905060005b81518110156139ae57601a6000838381518110613960576139606150e3565b60200260200101516001600160a01b03166001600160a01b03168152602001908152602001600020925082600401548561399a919061512a565b9450806139a68161510f565b915050613941565b50505b506001600160a01b0384166000908152601a60205260409020600f8101546139d9908461512a565b600e8201549093506139eb9084615142565b925082841015613a46578060070154613a1460646115cc6013548861454990919063ffffffff16565b11613a3a57613a3360646115cc6013548761454990919063ffffffff16565b9150613a8c565b80600701549150613a8c565b8060070154613a6560646115cc6013548761454990919063ffffffff16565b11613a8457613a3360646115cc6013548661454990919063ffffffff16565b806007015491505b509193909250565b600080546001600160a01b0316336001600160a01b031614613ab557600080fd5b50602255600190565b600b818154811061139357600080fd5b600080546001600160a01b0316336001600160a01b031614613aef57600080fd5b50600f805460ff191682151517905590565b600080546001600160a01b0316336001600160a01b031614613b2257600080fd5b50600781905590565b60018160ff161115613b705760405162461bcd60e51b815260206004820152600e60248201526d1a5b98dbdc9c9958dd081a185b9960921b6044820152606401612484565b336000908152601a60205260409020805460ff1615613bc15760405162461bcd60e51b815260206004820152600d60248201526c3ab9b2b9103932b3b4b9ba32b960991b6044820152606401612484565b60225415613cea576022546003546001600160a01b031663dd62ed3e336040516001600160e01b031960e084901b1681526001600160a01b039091166004820152306024820152604401602060405180830381865afa158015613c28573d6000803e3d6000fd5b505050506040513d601f19601f82011682018060405250810190613c4c91906150ad565b1015613c5757600080fd5b6003546001600160a01b03166323b872dd336022546040516001600160e01b031960e085901b1681526001600160a01b03909216600483015230602483015260448201526064016020604051808303816000875af1158015613cbd573d6000803e3d6000fd5b505050506040513d601f19601f82011682018060405250810190613ce191906150c6565b613cea57600080fd5b600260235410613e045760005b602454811015613e0257600354602080546001600160a01b039092169163a9059cbb919084908110613d2b57613d2b6150e3565b9060005260206000200160009054906101000a90046001600160a01b0316613d8060646115cc60218781548110613d6457613d646150e3565b906000526020600020015460225461454990919063ffffffff16565b6040516001600160e01b031960e085901b1681526001600160a01b03909216600483015260248201526044016020604051808303816000875af1158015613dcb573d6000803e3d6000fd5b505050506040513d601f19601f82011682018060405250810190613def91906150c6565b5080613dfa8161510f565b915050613cf7565b505b805461ffff1916610101178155336000908152601b6020526040902080546001600160a01b0319166001600160a01b03851690811790915515613ff0576001600160a01b0383166000908152601a602052604081206009810180549192613e6a8361510f565b909155505060ff8316613f3557600d8101546001600160a01b0316613ea257600d810180546001600160a01b03191633179055613fee565b6060613ead81611226565b600d83015481519192506001600160a01b0316908290600090613ed257613ed26150e3565b60200260200101906001600160a01b031690816001600160a01b031681525050601a6000613eff83612a01565b6001600160a01b031681526020810191909152604001600020600d810180546001600160a01b031916331790559150613fee9050565b60108101546001600160a01b0316613f60576010810180546001600160a01b03191633179055613fee565b6060613f6b81611226565b601083015481519192506001600160a01b0316908290600090613f9057613f906150e3565b60200260200101906001600160a01b031690816001600160a01b031681525050601a6000613fbd836118fc565b6001600160a01b0316815260208101919091526040016000206010810180546001600160a01b031916331790559150505b505b601680549060006140008361510f565b90915550506040805160e08101825260008082526020808301829052828401829052606083018290526080830182905260a0830182905260c08301829052338252601e90529190912061405491600761490c565b50601f80546000908152601c6020908152604080832080546001600160a01b031916339081179091558454908452601d909252822081905591906140978361510f565b9190505550505050565b3360009081526001602052604081205460ff166140bd57600080fd5b600b5482106140cb57600080fd5b600c82815481106140de576140de6150e3565b90600052602060002090602091828204019190069054906101000a900460ff1661410757600080fd5b6001600160a01b0383166000908152601a60205260409020805460ff1661412d57600080fd5b6000600b8481548110614142576141426150e3565b9060005260206000200154905081600a01604051806060016040528042815260200161417d6134e4606460125461458290919063ffffffff16565b8152600060209182018190528354600180820186559482529082902083516003909202019081559082015192810192909255604001516002909101805460ff19169115159190911790556012546141d99061355e906064614582565b8260070160008282546124c0919061512a565b600080546001600160a01b0316336001600160a01b03161461420d57600080fd5b600080546040516001600160a01b03909116914780156108fc02929091818181858888f19350505050158015614247573d6000803e3d6000fd5b5047905090565b6001600160a01b0381166000908152601a6020908152604080832081516101a081018352815460ff8082161515835261010091829004161515828601526001830154828501526002830154606083015260038301546080830152600483015460a0830152600583015460c0830152600683015460e083015260078301549082015260088201546101208201526009820154610140820152600a820180548451818702810187019095528085528695929461016086019390929190879084015b8282101561435e5760008481526020908190206040805160608101825260038602909201805483526001808201548486015260029091015460ff16151591830191909152908352909201910161430d565b505050908252506040805160c081018252600b8401548152600c840154602082810191909152600d8501546001600160a01b0390811693830193909352600e850154606080840191909152600f860154608084015260109095015490921660a08201529101526101008201519192506000919082908190808080846143e28c61379a565b9a5090975095506143f28c6125cb565b939850919650945092509050614408898261512a565b905089604001518161441a919061512a565b9050808810614432579b9a5050505050505050505050565b50959a9950505050505050505050565b600080546001600160a01b0316336001600160a01b03161461446357600080fd5b83516144759060209081870190614a60565b5082516144899060219060208601906148c1565b5050602355506001919050565b6000546001600160a01b0316336001600160a01b0316146144b657600080fd5b6001600160a01b0381166144c957600080fd5b600080546040516001600160a01b03808516939216917f8be0079c531659141344cd1fd0a4f28419497f9722a3daafe3b4186f6b6457e091a3600080546001600160a01b0319166001600160a01b0392909216919091179055565b3360009081526001602052604081205460ff1661454057600080fd5b50601081905590565b60008261455857506000611201565b60006145648385615159565b9050826145718583615178565b1461457b57600080fd5b9392505050565b600080821161459057600080fd5b600061459c8385615178565b949350505050565b60606145b1858451611170565b905060008060005b855181101561483c578581815181106145d4576145d46150e3565b602002602001015160001461482557601a60008583815181106145f9576145f96150e3565b6020908102919091018101516001600160a01b03168252810191909152604001600020805490925060ff16801561463657508154610100900460ff165b8015614646575060008260070154115b1561482a5760006001600160a01b0316848281518110614668576146686150e3565b60200260200101516001600160a01b031614614825576146b06103e86115cc888481518110614699576146996150e3565b60200260200101518a61454990919063ffffffff16565b92506146bb3361424e565b6146c5908461512a565b8260070154111561478357828260070160008282546146e49190615142565b9091555050841561470e5782826002016000828254614703919061512a565b909155506147439050565b82826001016000828254614722919061512a565b925050819055508282600301600082825461473d919061512a565b90915550505b61476683858381518110614759576147596150e3565b6020026020010151614862565b8260186000828254614778919061512a565b9091555061482a9050565b84156147ac5781600701548260020160008282546147a1919061512a565b909155506147e89050565b81600701548260010160008282546147c4919061512a565b909155505060078201546003830180546000906147e290849061512a565b90915550505b6147fe83858381518110614759576147596150e3565b816007015460186000828254614814919061512a565b90915550506000600783015561482a565b61483c565b806148348161510f565b9150506145b9565b5050505050505050565b600080614853838561512a565b90508381101561457b57600080fd5b6001600160a01b0381166000908152601a602052604090206007810154156148bc576148a360026115cc83600701546115cc61489c6122f0565b8890614549565b8160060160008282546148b6919061512a565b90915550505b505050565b8280548282559060005260206000209081019282156148fc579160200282015b828111156148fc5782518255916020019190600101906148e1565b50614908929150614ab5565b5090565b82805482825590600052602060002090601f016020900481019282156148fc5791602002820160005b8382111561497257835183826101000a81548160ff0219169083151502179055509260200192600101602081600001049283019260010302614935565b801561499f5782816101000a81549060ff0219169055600101602081600001049283019260010302614972565b5050614908929150614ab5565b604051806101a0016040528060001515815260200160001515815260200160008152602001600081526020016000815260200160008152602001600081526020016000815260200160008152602001600081526020016000815260200160608152602001614a5b6040518060c00160405280600081526020016000815260200160006001600160a01b03168152602001600081526020016000815260200160006001600160a01b031681525090565b905290565b8280548282559060005260206000209081019282156148fc579160200282015b828111156148fc57825182546001600160a01b0319166001600160a01b03909116178255602090920191600190910190614a80565b5b808211156149085760008155600101614ab6565b600060208284031215614adc57600080fd5b5035919050565b6001600160a01b0381168114614af857600080fd5b50565b60008060408385031215614b0e57600080fd5b8235614b1981614ae3565b946020939093013593505050565b6020808252825182820181905260009190848201906040850190845b81811015614b685783516001600160a01b031683529284019291840191600101614b43565b50909695505050505050565b600060208284031215614b8657600080fd5b813561457b81614ae3565b634e487b7160e01b600052604160045260246000fd5b604051601f8201601f1916810167ffffffffffffffff81118282101715614bd057614bd0614b91565b604052919050565b600067ffffffffffffffff821115614bf257614bf2614b91565b5060051b60200190565b600082601f830112614c0d57600080fd5b81356020614c22614c1d83614bd8565b614ba7565b82815260059290921b84018101918181019086841115614c4157600080fd5b8286015b84811015614c65578035614c5881614ae3565b8352918301918301614c45565b509695505050505050565b600060208284031215614c8257600080fd5b813567ffffffffffffffff811115614c9957600080fd5b61459c84828501614bfc565b60008060408385031215614cb857600080fd5b50508035926020909101359150565b600081518084526020808501945080840160005b83811015614cf757815187529582019590820190600101614cdb565b509495945050505050565b60208152600061457b6020830184614cc7565b600082601f830112614d2657600080fd5b81356020614d36614c1d83614bd8565b82815260059290921b84018101918181019086841115614d5557600080fd5b8286015b84811015614c655780358352918301918301614d59565b8015158114614af857600080fd5b600082601f830112614d8f57600080fd5b81356020614d9f614c1d83614bd8565b82815260059290921b84018101918181019086841115614dbe57600080fd5b8286015b84811015614c65578035614dd581614d70565b8352918301918301614dc2565b60008060408385031215614df557600080fd5b823567ffffffffffffffff80821115614e0d57600080fd5b614e1986838701614d15565b93506020850135915080821115614e2f57600080fd5b50614e3c85828601614d7e565b9150509250929050565b600080600060608486031215614e5b57600080fd5b8335614e6681614ae3565b95602085013595506040909401359392505050565b600081518084526020808501945080840160005b83811015614cf7578151151587529582019590820190600101614e8f565b60a081526000614ec060a0830188614cc7565b8281036020840152614ed28188614cc7565b90508281036040840152614ee68187614e7b565b90508281036060840152614efa8186614e7b565b9150508260808301529695505050505050565b600060208284031215614f1f57600080fd5b813567ffffffffffffffff811115614f3657600080fd5b61459c84828501614d15565b600060208284031215614f5457600080fd5b813567ffffffffffffffff811115614f6b57600080fd5b61459c84828501614d7e565b60208152600061457b6020830184614e7b565b60008060408385031215614f9d57600080fd5b823567ffffffffffffffff80821115614fb557600080fd5b614fc186838701614bfc565b93506020850135915080821115614fd757600080fd5b50614e3c85828601614d15565b600060208284031215614ff657600080fd5b813561457b81614d70565b6000806040838503121561501457600080fd5b823561501f81614ae3565b9150602083013560ff8116811461503557600080fd5b809150509250929050565b60008060006060848603121561505557600080fd5b833567ffffffffffffffff8082111561506d57600080fd5b61507987838801614bfc565b9450602086013591508082111561508f57600080fd5b5061509c86828701614d15565b925050604084013590509250925092565b6000602082840312156150bf57600080fd5b5051919050565b6000602082840312156150d857600080fd5b815161457b81614d70565b634e487b7160e01b600052603260045260246000fd5b634e487b7160e01b600052601160045260246000fd5b6000600019821415615123576151236150f9565b5060010190565b6000821982111561513d5761513d6150f9565b500190565b600082821015615154576151546150f9565b500390565b6000816000190483118215151615615173576151736150f9565b500290565b60008261519557634e487b7160e01b600052601260045260246000fd5b50049056fea2646970667358221220d8fb3f1a2d3ce95736afeeaa5b814add979432d9dba58f77a0b7da00302d58d664736f6c634300080a0033",
    "sourcePath": "c:/Users/STC/Documents/GitHub/10-Metapro-bi/contracts/BinariSystem.sol",
    "compiler": {
        "name": "solc",
        "version": "0.8.10+commit.fc410830"
    },
    "functionHashes": {
        "ChangeTokenPrincipal(address)": "50da983f",
        "MIN_RETIRO()": "6c529279",
        "MIN_RETIRO_interno()": "4bdcd429",
        "active(uint256)": "8033d581",
        "activerFee()": "bd9bee19",
        "actualizarArrayBool(bool[])": "7fcc1e36",
        "actualizarArrayUint256(uint256[])": "7367b080",
        "actualizarNetwork(address[])": "1ce7f99b",
        "addressToId(address)": "cb0e0d7d",
        "admin(address)": "63a846f8",
        "allnetwork(address[])": "7faee047",
        "asignarPlan(address,uint256)": "c70371a9",
        "asignarPuntosBinarios(address,uint256,uint256)": "5a090c2d",
        "buyPlan(uint256)": "a80b223b",
        "column(address,uint256)": "15e8392b",
        "controlWitdrawl(bool)": "b17b6e44",
        "corteBinario(address)": "17737164",
        "depositos(address)": "664e62b9",
        "descuento()": "7b0412ed",
        "dias()": "ab6db199",
        "gananciasRango(uint256)": "81032892",
        "handLeft(address)": "55465fa5",
        "handRigth(address)": "6a88e297",
        "idToAddress(uint256)": "2a2d0c47",
        "insertionLeft(address[])": "6bf199ff",
        "insertionRigth(address[])": "42ccc234",
        "inversiones()": "a77d2119",
        "investors(address)": "6f7bc9be",
        "lastUserId()": "348d4487",
        "makeNewAdmin(address)": "69ed1e0a",
        "makeRemoveAdmin(address)": "70a0966b",
        "newRecompensa()": "69f4a84b",
        "onOffWitdrawl()": "e7348e8c",
        "owner()": "8da5cb5b",
        "padre(address)": "b35f0a8f",
        "personas()": "cc759ba2",
        "personasBinary(address)": "4e929b0f",
        "plans(uint256)": "b1620616",
        "plansLength()": "26837aa8",
        "porcent()": "4728f718",
        "porcentPuntosBinario()": "c2307ee6",
        "porcientos(uint256)": "28cca719",
        "porcientosSalida(uint256)": "22c0a574",
        "precioRegistro()": "7db9e9c6",
        "primervez(uint256)": "725fc270",
        "puntosRango(uint256)": "21309f21",
        "rangoReclamado(address,uint256)": "2acc8210",
        "redimTRX()": "cdb8bb2a",
        "redimTokenPrincipal02(uint256)": "1140e85b",
        "registro(address,uint8)": "c14b8361",
        "setInversiones(uint256)": "b85ea335",
        "setMIN_RETIRO(uint256)": "4de1be62",
        "setPlansAll(uint256[],bool[])": "23f376bc",
        "setPorcientos(uint256,uint256)": "1e403c35",
        "setPorcientosSalida(uint256,uint256)": "5d216c60",
        "setPrecioRegistro(uint256)": "aaa749c5",
        "setPrimeravezPorcientos(uint256,uint256)": "54822522",
        "setPuntosPorcentajeBinario(uint256)": "64417c89",
        "setRetorno(uint256)": "6589fa8a",
        "setTiempo(uint256)": "f90b3f5a",
        "setTiempoUnidades(uint256)": "2748d29b",
        "setWalletFee(address[],uint256[],uint256)": "db3be1a2",
        "setWalletstransfers(address[],uint256[])": "a8beb717",
        "setstate()": "85338e20",
        "tiempo()": "50188c08",
        "tokenPricipal()": "b1390426",
        "totalInvested()": "5216aeec",
        "totalInvestors()": "29b8caff",
        "totalRefRewards()": "bfe0e020",
        "totalRefWitdrawl()": "9b8ff503",
        "transferOwnership(address)": "f2fde38b",
        "unidades()": "4b9b8203",
        "valor(uint256)": "62550916",
        "valorFee(uint256)": "29e1a243",
        "wallet(uint256)": "a2781335",
        "walletFee(uint256)": "7251b9ac",
        "withdraw()": "3ccfd60b",
        "withdrawable(address)": "ce513b6f",
        "withdrawableBinary(address)": "a95b4df9",
        "withdrawableRange(address)": "98c07d0a"
    },
    "gasEstimates": {
        "creation": {
            "codeDepositCost": "4188800",
            "executionCost": "infinite",
            "totalCost": "infinite"
        },
        "external": {
            "": "253",
            "ChangeTokenPrincipal(address)": "51183",
            "MIN_RETIRO()": "2439",
            "MIN_RETIRO_interno()": "2353",
            "active(uint256)": "6392",
            "activerFee()": "2395",
            "actualizarArrayBool(bool[])": "infinite",
            "actualizarArrayUint256(uint256[])": "infinite",
            "actualizarNetwork(address[])": "infinite",
            "addressToId(address)": "2613",
            "admin(address)": "2615",
            "allnetwork(address[])": "infinite",
            "asignarPlan(address,uint256)": "infinite",
            "asignarPuntosBinarios(address,uint256,uint256)": "infinite",
            "buyPlan(uint256)": "infinite",
            "column(address,uint256)": "infinite",
            "controlWitdrawl(bool)": "26899",
            "corteBinario(address)": "infinite",
            "depositos(address)": "infinite",
            "descuento()": "2352",
            "dias()": "2374",
            "gananciasRango(uint256)": "4632",
            "handLeft(address)": "6954",
            "handRigth(address)": "6953",
            "idToAddress(uint256)": "2612",
            "insertionLeft(address[])": "infinite",
            "insertionRigth(address[])": "infinite",
            "inversiones()": "2373",
            "investors(address)": "34901",
            "lastUserId()": "2352",
            "makeNewAdmin(address)": "28043",
            "makeRemoveAdmin(address)": "28049",
            "newRecompensa()": "infinite",
            "onOffWitdrawl()": "2420",
            "owner()": "2449",
            "padre(address)": "2619",
            "personas()": "2417",
            "personasBinary(address)": "infinite",
            "plans(uint256)": "4698",
            "plansLength()": "2424",
            "porcent()": "2418",
            "porcentPuntosBinario()": "2351",
            "porcientos(uint256)": "4633",
            "porcientosSalida(uint256)": "4655",
            "precioRegistro()": "2374",
            "primervez(uint256)": "4699",
            "puntosRango(uint256)": "4633",
            "rangoReclamado(address,uint256)": "6560",
            "redimTRX()": "infinite",
            "redimTokenPrincipal02(uint256)": "infinite",
            "registro(address,uint8)": "infinite",
            "setInversiones(uint256)": "24631",
            "setMIN_RETIRO(uint256)": "24633",
            "setPlansAll(uint256[],bool[])": "infinite",
            "setPorcientos(uint256,uint256)": "infinite",
            "setPorcientosSalida(uint256,uint256)": "infinite",
            "setPrecioRegistro(uint256)": "24624",
            "setPrimeravezPorcientos(uint256,uint256)": "infinite",
            "setPuntosPorcentajeBinario(uint256)": "24654",
            "setRetorno(uint256)": "24706",
            "setTiempo(uint256)": "24726",
            "setTiempoUnidades(uint256)": "24699",
            "setWalletFee(address[],uint256[],uint256)": "infinite",
            "setWalletstransfers(address[],uint256[])": "infinite",
            "setstate()": "6619",
            "tiempo()": "infinite",
            "tokenPricipal()": "2449",
            "totalInvested()": "2352",
            "totalInvestors()": "2375",
            "totalRefRewards()": "2417",
            "totalRefWitdrawl()": "2440",
            "transferOwnership(address)": "30544",
            "unidades()": "2440",
            "valor(uint256)": "4632",
            "valorFee(uint256)": "4677",
            "wallet(uint256)": "4681",
            "walletFee(uint256)": "4727",
            "withdraw()": "infinite",
            "withdrawable(address)": "infinite",
            "withdrawableBinary(address)": "infinite",
            "withdrawableRange(address)": "infinite"
        },
        "internal": {
            "acelerar(uint256,address)": "infinite",
            "rewardReferers(address,uint256,uint256[] memory,bool)": "infinite"
        }
    }
}